{
	"RomanConverter.sol": {
		"RomanConverter": {
			"abi": [
				{
					"inputs": [],
					"stateMutability": "nonpayable",
					"type": "constructor"
				},
				{
					"inputs": [
						{
							"internalType": "string",
							"name": "s",
							"type": "string"
						}
					],
					"name": "romanToInt",
					"outputs": [
						{
							"internalType": "uint256",
							"name": "",
							"type": "uint256"
						}
					],
					"stateMutability": "view",
					"type": "function"
				},
				{
					"inputs": [
						{
							"internalType": "bytes1",
							"name": "",
							"type": "bytes1"
						}
					],
					"name": "symbolValues",
					"outputs": [
						{
							"internalType": "uint256",
							"name": "",
							"type": "uint256"
						}
					],
					"stateMutability": "view",
					"type": "function"
				}
			],
			"devdoc": {
				"kind": "dev",
				"methods": {},
				"version": 1
			},
			"evm": {
				"assembly": "    /* \"RomanConverter.sol\":57:847  contract RomanConverter {... */\n  mstore(0x40, 0x80)\n    /* \"RomanConverter.sol\":140:387  constructor() {... */\n  callvalue\n  dup1\n  iszero\n  tag_1\n  jumpi\n  0x00\n  dup1\n  revert\ntag_1:\n  pop\n    /* \"RomanConverter.sol\":184:185  1 */\n  0x01\n    /* \"RomanConverter.sol\":164:176  symbolValues */\n  0x00\n    /* \"RomanConverter.sol\":164:181  symbolValues[\"I\"] */\n  dup1\n  and(not(0xffffffffffffffffffffffffffffffffffffffffffffffffffffffffffffff), 0x4900000000000000000000000000000000000000000000000000000000000000)\n  dup2\n  mstore\n  0x20\n  add\n  swap1\n  dup2\n  mstore\n  0x20\n  add\n  0x00\n  keccak256\n    /* \"RomanConverter.sol\":164:185  symbolValues[\"I\"] = 1 */\n  dup2\n  swap1\n  sstore\n  pop\n    /* \"RomanConverter.sol\":215:216  5 */\n  0x05\n    /* \"RomanConverter.sol\":195:207  symbolValues */\n  0x00\n    /* \"RomanConverter.sol\":195:212  symbolValues[\"V\"] */\n  dup1\n  and(not(0xffffffffffffffffffffffffffffffffffffffffffffffffffffffffffffff), 0x5600000000000000000000000000000000000000000000000000000000000000)\n  dup2\n  mstore\n  0x20\n  add\n  swap1\n  dup2\n  mstore\n  0x20\n  add\n  0x00\n  keccak256\n    /* \"RomanConverter.sol\":195:216  symbolValues[\"V\"] = 5 */\n  dup2\n  swap1\n  sstore\n  pop\n    /* \"RomanConverter.sol\":246:248  10 */\n  0x0a\n    /* \"RomanConverter.sol\":226:238  symbolValues */\n  0x00\n    /* \"RomanConverter.sol\":226:243  symbolValues[\"X\"] */\n  dup1\n  and(not(0xffffffffffffffffffffffffffffffffffffffffffffffffffffffffffffff), 0x5800000000000000000000000000000000000000000000000000000000000000)\n  dup2\n  mstore\n  0x20\n  add\n  swap1\n  dup2\n  mstore\n  0x20\n  add\n  0x00\n  keccak256\n    /* \"RomanConverter.sol\":226:248  symbolValues[\"X\"] = 10 */\n  dup2\n  swap1\n  sstore\n  pop\n    /* \"RomanConverter.sol\":278:280  50 */\n  0x32\n    /* \"RomanConverter.sol\":258:270  symbolValues */\n  0x00\n    /* \"RomanConverter.sol\":258:275  symbolValues[\"L\"] */\n  dup1\n  and(not(0xffffffffffffffffffffffffffffffffffffffffffffffffffffffffffffff), 0x4c00000000000000000000000000000000000000000000000000000000000000)\n  dup2\n  mstore\n  0x20\n  add\n  swap1\n  dup2\n  mstore\n  0x20\n  add\n  0x00\n  keccak256\n    /* \"RomanConverter.sol\":258:280  symbolValues[\"L\"] = 50 */\n  dup2\n  swap1\n  sstore\n  pop\n    /* \"RomanConverter.sol\":310:313  100 */\n  0x64\n    /* \"RomanConverter.sol\":290:302  symbolValues */\n  0x00\n    /* \"RomanConverter.sol\":290:307  symbolValues[\"C\"] */\n  dup1\n  and(not(0xffffffffffffffffffffffffffffffffffffffffffffffffffffffffffffff), 0x4300000000000000000000000000000000000000000000000000000000000000)\n  dup2\n  mstore\n  0x20\n  add\n  swap1\n  dup2\n  mstore\n  0x20\n  add\n  0x00\n  keccak256\n    /* \"RomanConverter.sol\":290:313  symbolValues[\"C\"] = 100 */\n  dup2\n  swap1\n  sstore\n  pop\n    /* \"RomanConverter.sol\":343:346  500 */\n  0x01f4\n    /* \"RomanConverter.sol\":323:335  symbolValues */\n  0x00\n    /* \"RomanConverter.sol\":323:340  symbolValues[\"D\"] */\n  dup1\n  and(not(0xffffffffffffffffffffffffffffffffffffffffffffffffffffffffffffff), 0x4400000000000000000000000000000000000000000000000000000000000000)\n  dup2\n  mstore\n  0x20\n  add\n  swap1\n  dup2\n  mstore\n  0x20\n  add\n  0x00\n  keccak256\n    /* \"RomanConverter.sol\":323:346  symbolValues[\"D\"] = 500 */\n  dup2\n  swap1\n  sstore\n  pop\n    /* \"RomanConverter.sol\":376:380  1000 */\n  0x03e8\n    /* \"RomanConverter.sol\":356:368  symbolValues */\n  0x00\n    /* \"RomanConverter.sol\":356:373  symbolValues[\"M\"] */\n  dup1\n  and(not(0xffffffffffffffffffffffffffffffffffffffffffffffffffffffffffffff), 0x4d00000000000000000000000000000000000000000000000000000000000000)\n  dup2\n  mstore\n  0x20\n  add\n  swap1\n  dup2\n  mstore\n  0x20\n  add\n  0x00\n  keccak256\n    /* \"RomanConverter.sol\":356:380  symbolValues[\"M\"] = 1000 */\n  dup2\n  swap1\n  sstore\n  pop\n    /* \"RomanConverter.sol\":57:847  contract RomanConverter {... */\n  dataSize(sub_0)\n  dup1\n  dataOffset(sub_0)\n  0x00\n  codecopy\n  0x00\n  return\nstop\n\nsub_0: assembly {\n        /* \"RomanConverter.sol\":57:847  contract RomanConverter {... */\n      mstore(0x40, 0x80)\n      callvalue\n      dup1\n      iszero\n      tag_1\n      jumpi\n      0x00\n      dup1\n      revert\n    tag_1:\n      pop\n      jumpi(tag_2, lt(calldatasize, 0x04))\n      shr(0xe0, calldataload(0x00))\n      dup1\n      0x85b57eee\n      eq\n      tag_3\n      jumpi\n      dup1\n      0xcb159dfe\n      eq\n      tag_4\n      jumpi\n    tag_2:\n      0x00\n      dup1\n      revert\n        /* \"RomanConverter.sol\":87:133  mapping(bytes1 => uint256) public symbolValues */\n    tag_3:\n      tag_5\n      0x04\n      dup1\n      calldatasize\n      sub\n      dup2\n      add\n      swap1\n      tag_6\n      swap2\n      swap1\n      tag_7\n      jump\t// in\n    tag_6:\n      tag_8\n      jump\t// in\n    tag_5:\n      mload(0x40)\n      tag_9\n      swap2\n      swap1\n      tag_10\n      jump\t// in\n    tag_9:\n      mload(0x40)\n      dup1\n      swap2\n      sub\n      swap1\n      return\n        /* \"RomanConverter.sol\":393:845  function romanToInt(string memory s) public view returns (uint256) {... */\n    tag_4:\n      tag_11\n      0x04\n      dup1\n      calldatasize\n      sub\n      dup2\n      add\n      swap1\n      tag_12\n      swap2\n      swap1\n      tag_13\n      jump\t// in\n    tag_12:\n      tag_14\n      jump\t// in\n    tag_11:\n      mload(0x40)\n      tag_15\n      swap2\n      swap1\n      tag_10\n      jump\t// in\n    tag_15:\n      mload(0x40)\n      dup1\n      swap2\n      sub\n      swap1\n      return\n        /* \"RomanConverter.sol\":87:133  mapping(bytes1 => uint256) public symbolValues */\n    tag_8:\n      mstore(0x20, 0x00)\n      dup1\n      0x00\n      mstore\n      keccak256(0x00, 0x40)\n      0x00\n      swap2\n      pop\n      swap1\n      pop\n      sload\n      dup2\n      jump\t// out\n        /* \"RomanConverter.sol\":393:845  function romanToInt(string memory s) public view returns (uint256) {... */\n    tag_14:\n        /* \"RomanConverter.sol\":451:458  uint256 */\n      0x00\n        /* \"RomanConverter.sol\":470:486  bytes memory str */\n      dup1\n        /* \"RomanConverter.sol\":495:496  s */\n      dup3\n        /* \"RomanConverter.sol\":470:497  bytes memory str = bytes(s) */\n      swap1\n      pop\n        /* \"RomanConverter.sol\":507:516  uint256 n */\n      0x00\n        /* \"RomanConverter.sol\":519:522  str */\n      dup2\n        /* \"RomanConverter.sol\":519:529  str.length */\n      mload\n        /* \"RomanConverter.sol\":507:529  uint256 n = str.length */\n      swap1\n      pop\n        /* \"RomanConverter.sol\":539:550  uint256 ans */\n      0x00\n        /* \"RomanConverter.sol\":570:579  uint256 i */\n      dup1\n        /* \"RomanConverter.sol\":565:818  for (uint256 i = 0; i < n; i++) {... */\n    tag_17:\n        /* \"RomanConverter.sol\":589:590  n */\n      dup3\n        /* \"RomanConverter.sol\":585:586  i */\n      dup2\n        /* \"RomanConverter.sol\":585:590  i < n */\n      lt\n        /* \"RomanConverter.sol\":565:818  for (uint256 i = 0; i < n; i++) {... */\n      iszero\n      tag_18\n      jumpi\n        /* \"RomanConverter.sol\":611:624  uint256 value */\n      0x00\n        /* \"RomanConverter.sol\":627:639  symbolValues */\n      dup1\n        /* \"RomanConverter.sol\":627:647  symbolValues[str[i]] */\n      0x00\n        /* \"RomanConverter.sol\":640:643  str */\n      dup7\n        /* \"RomanConverter.sol\":644:645  i */\n      dup5\n        /* \"RomanConverter.sol\":640:646  str[i] */\n      dup2\n      mload\n      dup2\n      lt\n      tag_20\n      jumpi\n      tag_21\n      tag_22\n      jump\t// in\n    tag_21:\n    tag_20:\n      0x20\n      add\n      add\n      mload\n      0xf8\n      shr\n      0xf8\n      shl\n        /* \"RomanConverter.sol\":627:647  symbolValues[str[i]] */\n      not(0xffffffffffffffffffffffffffffffffffffffffffffffffffffffffffffff)\n      and\n      not(0xffffffffffffffffffffffffffffffffffffffffffffffffffffffffffffff)\n      and\n      dup2\n      mstore\n      0x20\n      add\n      swap1\n      dup2\n      mstore\n      0x20\n      add\n      0x00\n      keccak256\n      sload\n        /* \"RomanConverter.sol\":611:647  uint256 value = symbolValues[str[i]] */\n      swap1\n      pop\n        /* \"RomanConverter.sol\":673:674  1 */\n      0x01\n        /* \"RomanConverter.sol\":669:670  n */\n      dup5\n        /* \"RomanConverter.sol\":669:674  n - 1 */\n      tag_23\n      swap2\n      swap1\n      tag_24\n      jump\t// in\n    tag_23:\n        /* \"RomanConverter.sol\":665:666  i */\n      dup3\n        /* \"RomanConverter.sol\":665:674  i < n - 1 */\n      lt\n        /* \"RomanConverter.sol\":665:710  i < n - 1 && value < symbolValues[str[i + 1]] */\n      dup1\n      iszero\n      tag_25\n      jumpi\n      pop\n        /* \"RomanConverter.sol\":686:698  symbolValues */\n      0x00\n        /* \"RomanConverter.sol\":686:710  symbolValues[str[i + 1]] */\n      dup1\n        /* \"RomanConverter.sol\":699:702  str */\n      dup7\n        /* \"RomanConverter.sol\":707:708  1 */\n      0x01\n        /* \"RomanConverter.sol\":703:704  i */\n      dup6\n        /* \"RomanConverter.sol\":703:708  i + 1 */\n      tag_26\n      swap2\n      swap1\n      tag_27\n      jump\t// in\n    tag_26:\n        /* \"RomanConverter.sol\":699:709  str[i + 1] */\n      dup2\n      mload\n      dup2\n      lt\n      tag_28\n      jumpi\n      tag_29\n      tag_22\n      jump\t// in\n    tag_29:\n    tag_28:\n      0x20\n      add\n      add\n      mload\n      0xf8\n      shr\n      0xf8\n      shl\n        /* \"RomanConverter.sol\":686:710  symbolValues[str[i + 1]] */\n      not(0xffffffffffffffffffffffffffffffffffffffffffffffffffffffffffffff)\n      and\n      not(0xffffffffffffffffffffffffffffffffffffffffffffffffffffffffffffff)\n      and\n      dup2\n      mstore\n      0x20\n      add\n      swap1\n      dup2\n      mstore\n      0x20\n      add\n      0x00\n      keccak256\n      sload\n        /* \"RomanConverter.sol\":678:683  value */\n      dup2\n        /* \"RomanConverter.sol\":678:710  value < symbolValues[str[i + 1]] */\n      lt\n        /* \"RomanConverter.sol\":665:710  i < n - 1 && value < symbolValues[str[i + 1]] */\n    tag_25:\n        /* \"RomanConverter.sol\":661:808  if (i < n - 1 && value < symbolValues[str[i + 1]]) {... */\n      iszero\n      tag_30\n      jumpi\n        /* \"RomanConverter.sol\":737:742  value */\n      dup1\n        /* \"RomanConverter.sol\":730:742  ans -= value */\n      dup4\n      tag_31\n      swap2\n      swap1\n      tag_24\n      jump\t// in\n    tag_31:\n      swap3\n      pop\n        /* \"RomanConverter.sol\":661:808  if (i < n - 1 && value < symbolValues[str[i + 1]]) {... */\n      jump(tag_32)\n    tag_30:\n        /* \"RomanConverter.sol\":788:793  value */\n      dup1\n        /* \"RomanConverter.sol\":781:793  ans += value */\n      dup4\n      tag_33\n      swap2\n      swap1\n      tag_27\n      jump\t// in\n    tag_33:\n      swap3\n      pop\n        /* \"RomanConverter.sol\":661:808  if (i < n - 1 && value < symbolValues[str[i + 1]]) {... */\n    tag_32:\n        /* \"RomanConverter.sol\":597:818  {... */\n      pop\n        /* \"RomanConverter.sol\":592:595  i++ */\n      dup1\n      dup1\n      0x01\n      add\n      swap2\n      pop\n      pop\n        /* \"RomanConverter.sol\":565:818  for (uint256 i = 0; i < n; i++) {... */\n      jump(tag_17)\n    tag_18:\n      pop\n        /* \"RomanConverter.sol\":835:838  ans */\n      dup1\n        /* \"RomanConverter.sol\":828:838  return ans */\n      swap4\n      pop\n      pop\n      pop\n      pop\n        /* \"RomanConverter.sol\":393:845  function romanToInt(string memory s) public view returns (uint256) {... */\n      swap2\n      swap1\n      pop\n      jump\t// out\n        /* \"#utility.yul\":7:82   */\n    tag_34:\n        /* \"#utility.yul\":40:46   */\n      0x00\n        /* \"#utility.yul\":73:75   */\n      0x40\n        /* \"#utility.yul\":67:76   */\n      mload\n        /* \"#utility.yul\":57:76   */\n      swap1\n      pop\n        /* \"#utility.yul\":7:82   */\n      swap1\n      jump\t// out\n        /* \"#utility.yul\":88:205   */\n    tag_35:\n        /* \"#utility.yul\":197:198   */\n      0x00\n        /* \"#utility.yul\":194:195   */\n      dup1\n        /* \"#utility.yul\":187:199   */\n      revert\n        /* \"#utility.yul\":211:328   */\n    tag_36:\n        /* \"#utility.yul\":320:321   */\n      0x00\n        /* \"#utility.yul\":317:318   */\n      dup1\n        /* \"#utility.yul\":310:322   */\n      revert\n        /* \"#utility.yul\":334:483   */\n    tag_37:\n        /* \"#utility.yul\":370:377   */\n      0x00\n        /* \"#utility.yul\":410:476   */\n      0xff00000000000000000000000000000000000000000000000000000000000000\n        /* \"#utility.yul\":403:408   */\n      dup3\n        /* \"#utility.yul\":399:477   */\n      and\n        /* \"#utility.yul\":388:477   */\n      swap1\n      pop\n        /* \"#utility.yul\":334:483   */\n      swap2\n      swap1\n      pop\n      jump\t// out\n        /* \"#utility.yul\":489:609   */\n    tag_38:\n        /* \"#utility.yul\":561:584   */\n      tag_59\n        /* \"#utility.yul\":578:583   */\n      dup2\n        /* \"#utility.yul\":561:584   */\n      tag_37\n      jump\t// in\n    tag_59:\n        /* \"#utility.yul\":554:559   */\n      dup2\n        /* \"#utility.yul\":551:585   */\n      eq\n        /* \"#utility.yul\":541:603   */\n      tag_60\n      jumpi\n        /* \"#utility.yul\":599:600   */\n      0x00\n        /* \"#utility.yul\":596:597   */\n      dup1\n        /* \"#utility.yul\":589:601   */\n      revert\n        /* \"#utility.yul\":541:603   */\n    tag_60:\n        /* \"#utility.yul\":489:609   */\n      pop\n      jump\t// out\n        /* \"#utility.yul\":615:752   */\n    tag_39:\n        /* \"#utility.yul\":660:665   */\n      0x00\n        /* \"#utility.yul\":698:704   */\n      dup2\n        /* \"#utility.yul\":685:705   */\n      calldataload\n        /* \"#utility.yul\":676:705   */\n      swap1\n      pop\n        /* \"#utility.yul\":714:746   */\n      tag_62\n        /* \"#utility.yul\":740:745   */\n      dup2\n        /* \"#utility.yul\":714:746   */\n      tag_38\n      jump\t// in\n    tag_62:\n        /* \"#utility.yul\":615:752   */\n      swap3\n      swap2\n      pop\n      pop\n      jump\t// out\n        /* \"#utility.yul\":758:1085   */\n    tag_7:\n        /* \"#utility.yul\":816:822   */\n      0x00\n        /* \"#utility.yul\":865:867   */\n      0x20\n        /* \"#utility.yul\":853:862   */\n      dup3\n        /* \"#utility.yul\":844:851   */\n      dup5\n        /* \"#utility.yul\":840:863   */\n      sub\n        /* \"#utility.yul\":836:868   */\n      slt\n        /* \"#utility.yul\":833:952   */\n      iszero\n      tag_64\n      jumpi\n        /* \"#utility.yul\":871:950   */\n      tag_65\n      tag_35\n      jump\t// in\n    tag_65:\n        /* \"#utility.yul\":833:952   */\n    tag_64:\n        /* \"#utility.yul\":991:992   */\n      0x00\n        /* \"#utility.yul\":1016:1068   */\n      tag_66\n        /* \"#utility.yul\":1060:1067   */\n      dup5\n        /* \"#utility.yul\":1051:1057   */\n      dup3\n        /* \"#utility.yul\":1040:1049   */\n      dup6\n        /* \"#utility.yul\":1036:1058   */\n      add\n        /* \"#utility.yul\":1016:1068   */\n      tag_39\n      jump\t// in\n    tag_66:\n        /* \"#utility.yul\":1006:1068   */\n      swap2\n      pop\n        /* \"#utility.yul\":962:1078   */\n      pop\n        /* \"#utility.yul\":758:1085   */\n      swap3\n      swap2\n      pop\n      pop\n      jump\t// out\n        /* \"#utility.yul\":1091:1168   */\n    tag_40:\n        /* \"#utility.yul\":1128:1135   */\n      0x00\n        /* \"#utility.yul\":1157:1162   */\n      dup2\n        /* \"#utility.yul\":1146:1162   */\n      swap1\n      pop\n        /* \"#utility.yul\":1091:1168   */\n      swap2\n      swap1\n      pop\n      jump\t// out\n        /* \"#utility.yul\":1174:1292   */\n    tag_41:\n        /* \"#utility.yul\":1261:1285   */\n      tag_69\n        /* \"#utility.yul\":1279:1284   */\n      dup2\n        /* \"#utility.yul\":1261:1285   */\n      tag_40\n      jump\t// in\n    tag_69:\n        /* \"#utility.yul\":1256:1259   */\n      dup3\n        /* \"#utility.yul\":1249:1286   */\n      mstore\n        /* \"#utility.yul\":1174:1292   */\n      pop\n      pop\n      jump\t// out\n        /* \"#utility.yul\":1298:1520   */\n    tag_10:\n        /* \"#utility.yul\":1391:1395   */\n      0x00\n        /* \"#utility.yul\":1429:1431   */\n      0x20\n        /* \"#utility.yul\":1418:1427   */\n      dup3\n        /* \"#utility.yul\":1414:1432   */\n      add\n        /* \"#utility.yul\":1406:1432   */\n      swap1\n      pop\n        /* \"#utility.yul\":1442:1513   */\n      tag_71\n        /* \"#utility.yul\":1510:1511   */\n      0x00\n        /* \"#utility.yul\":1499:1508   */\n      dup4\n        /* \"#utility.yul\":1495:1512   */\n      add\n        /* \"#utility.yul\":1486:1492   */\n      dup5\n        /* \"#utility.yul\":1442:1513   */\n      tag_41\n      jump\t// in\n    tag_71:\n        /* \"#utility.yul\":1298:1520   */\n      swap3\n      swap2\n      pop\n      pop\n      jump\t// out\n        /* \"#utility.yul\":1526:1643   */\n    tag_42:\n        /* \"#utility.yul\":1635:1636   */\n      0x00\n        /* \"#utility.yul\":1632:1633   */\n      dup1\n        /* \"#utility.yul\":1625:1637   */\n      revert\n        /* \"#utility.yul\":1649:1766   */\n    tag_43:\n        /* \"#utility.yul\":1758:1759   */\n      0x00\n        /* \"#utility.yul\":1755:1756   */\n      dup1\n        /* \"#utility.yul\":1748:1760   */\n      revert\n        /* \"#utility.yul\":1772:1874   */\n    tag_44:\n        /* \"#utility.yul\":1813:1819   */\n      0x00\n        /* \"#utility.yul\":1864:1866   */\n      0x1f\n        /* \"#utility.yul\":1860:1867   */\n      not\n        /* \"#utility.yul\":1855:1857   */\n      0x1f\n        /* \"#utility.yul\":1848:1853   */\n      dup4\n        /* \"#utility.yul\":1844:1858   */\n      add\n        /* \"#utility.yul\":1840:1868   */\n      and\n        /* \"#utility.yul\":1830:1868   */\n      swap1\n      pop\n        /* \"#utility.yul\":1772:1874   */\n      swap2\n      swap1\n      pop\n      jump\t// out\n        /* \"#utility.yul\":1880:2060   */\n    tag_45:\n        /* \"#utility.yul\":1928:2005   */\n      0x4e487b7100000000000000000000000000000000000000000000000000000000\n        /* \"#utility.yul\":1925:1926   */\n      0x00\n        /* \"#utility.yul\":1918:2006   */\n      mstore\n        /* \"#utility.yul\":2025:2029   */\n      0x41\n        /* \"#utility.yul\":2022:2023   */\n      0x04\n        /* \"#utility.yul\":2015:2030   */\n      mstore\n        /* \"#utility.yul\":2049:2053   */\n      0x24\n        /* \"#utility.yul\":2046:2047   */\n      0x00\n        /* \"#utility.yul\":2039:2054   */\n      revert\n        /* \"#utility.yul\":2066:2347   */\n    tag_46:\n        /* \"#utility.yul\":2149:2176   */\n      tag_77\n        /* \"#utility.yul\":2171:2175   */\n      dup3\n        /* \"#utility.yul\":2149:2176   */\n      tag_44\n      jump\t// in\n    tag_77:\n        /* \"#utility.yul\":2141:2147   */\n      dup2\n        /* \"#utility.yul\":2137:2177   */\n      add\n        /* \"#utility.yul\":2279:2285   */\n      dup2\n        /* \"#utility.yul\":2267:2277   */\n      dup2\n        /* \"#utility.yul\":2264:2286   */\n      lt\n        /* \"#utility.yul\":2243:2261   */\n      0xffffffffffffffff\n        /* \"#utility.yul\":2231:2241   */\n      dup3\n        /* \"#utility.yul\":2228:2262   */\n      gt\n        /* \"#utility.yul\":2225:2287   */\n      or\n        /* \"#utility.yul\":2222:2310   */\n      iszero\n      tag_78\n      jumpi\n        /* \"#utility.yul\":2290:2308   */\n      tag_79\n      tag_45\n      jump\t// in\n    tag_79:\n        /* \"#utility.yul\":2222:2310   */\n    tag_78:\n        /* \"#utility.yul\":2330:2340   */\n      dup1\n        /* \"#utility.yul\":2326:2328   */\n      0x40\n        /* \"#utility.yul\":2319:2341   */\n      mstore\n        /* \"#utility.yul\":2109:2347   */\n      pop\n        /* \"#utility.yul\":2066:2347   */\n      pop\n      pop\n      jump\t// out\n        /* \"#utility.yul\":2353:2482   */\n    tag_47:\n        /* \"#utility.yul\":2387:2393   */\n      0x00\n        /* \"#utility.yul\":2414:2434   */\n      tag_81\n      tag_34\n      jump\t// in\n    tag_81:\n        /* \"#utility.yul\":2404:2434   */\n      swap1\n      pop\n        /* \"#utility.yul\":2443:2476   */\n      tag_82\n        /* \"#utility.yul\":2471:2475   */\n      dup3\n        /* \"#utility.yul\":2463:2469   */\n      dup3\n        /* \"#utility.yul\":2443:2476   */\n      tag_46\n      jump\t// in\n    tag_82:\n        /* \"#utility.yul\":2353:2482   */\n      swap2\n      swap1\n      pop\n      jump\t// out\n        /* \"#utility.yul\":2488:2796   */\n    tag_48:\n        /* \"#utility.yul\":2550:2554   */\n      0x00\n        /* \"#utility.yul\":2640:2658   */\n      0xffffffffffffffff\n        /* \"#utility.yul\":2632:2638   */\n      dup3\n        /* \"#utility.yul\":2629:2659   */\n      gt\n        /* \"#utility.yul\":2626:2682   */\n      iszero\n      tag_84\n      jumpi\n        /* \"#utility.yul\":2662:2680   */\n      tag_85\n      tag_45\n      jump\t// in\n    tag_85:\n        /* \"#utility.yul\":2626:2682   */\n    tag_84:\n        /* \"#utility.yul\":2700:2729   */\n      tag_86\n        /* \"#utility.yul\":2722:2728   */\n      dup3\n        /* \"#utility.yul\":2700:2729   */\n      tag_44\n      jump\t// in\n    tag_86:\n        /* \"#utility.yul\":2692:2729   */\n      swap1\n      pop\n        /* \"#utility.yul\":2784:2788   */\n      0x20\n        /* \"#utility.yul\":2778:2782   */\n      dup2\n        /* \"#utility.yul\":2774:2789   */\n      add\n        /* \"#utility.yul\":2766:2789   */\n      swap1\n      pop\n        /* \"#utility.yul\":2488:2796   */\n      swap2\n      swap1\n      pop\n      jump\t// out\n        /* \"#utility.yul\":2802:2950   */\n    tag_49:\n        /* \"#utility.yul\":2900:2906   */\n      dup3\n        /* \"#utility.yul\":2895:2898   */\n      dup2\n        /* \"#utility.yul\":2890:2893   */\n      dup4\n        /* \"#utility.yul\":2877:2907   */\n      calldatacopy\n        /* \"#utility.yul\":2941:2942   */\n      0x00\n        /* \"#utility.yul\":2932:2938   */\n      dup4\n        /* \"#utility.yul\":2927:2930   */\n      dup4\n        /* \"#utility.yul\":2923:2939   */\n      add\n        /* \"#utility.yul\":2916:2943   */\n      mstore\n        /* \"#utility.yul\":2802:2950   */\n      pop\n      pop\n      pop\n      jump\t// out\n        /* \"#utility.yul\":2956:3381   */\n    tag_50:\n        /* \"#utility.yul\":3034:3039   */\n      0x00\n        /* \"#utility.yul\":3059:3125   */\n      tag_89\n        /* \"#utility.yul\":3075:3124   */\n      tag_90\n        /* \"#utility.yul\":3117:3123   */\n      dup5\n        /* \"#utility.yul\":3075:3124   */\n      tag_48\n      jump\t// in\n    tag_90:\n        /* \"#utility.yul\":3059:3125   */\n      tag_47\n      jump\t// in\n    tag_89:\n        /* \"#utility.yul\":3050:3125   */\n      swap1\n      pop\n        /* \"#utility.yul\":3148:3154   */\n      dup3\n        /* \"#utility.yul\":3141:3146   */\n      dup2\n        /* \"#utility.yul\":3134:3155   */\n      mstore\n        /* \"#utility.yul\":3186:3190   */\n      0x20\n        /* \"#utility.yul\":3179:3184   */\n      dup2\n        /* \"#utility.yul\":3175:3191   */\n      add\n        /* \"#utility.yul\":3224:3227   */\n      dup5\n        /* \"#utility.yul\":3215:3221   */\n      dup5\n        /* \"#utility.yul\":3210:3213   */\n      dup5\n        /* \"#utility.yul\":3206:3222   */\n      add\n        /* \"#utility.yul\":3203:3228   */\n      gt\n        /* \"#utility.yul\":3200:3312   */\n      iszero\n      tag_91\n      jumpi\n        /* \"#utility.yul\":3231:3310   */\n      tag_92\n      tag_43\n      jump\t// in\n    tag_92:\n        /* \"#utility.yul\":3200:3312   */\n    tag_91:\n        /* \"#utility.yul\":3321:3375   */\n      tag_93\n        /* \"#utility.yul\":3368:3374   */\n      dup5\n        /* \"#utility.yul\":3363:3366   */\n      dup3\n        /* \"#utility.yul\":3358:3361   */\n      dup6\n        /* \"#utility.yul\":3321:3375   */\n      tag_49\n      jump\t// in\n    tag_93:\n        /* \"#utility.yul\":3040:3381   */\n      pop\n        /* \"#utility.yul\":2956:3381   */\n      swap4\n      swap3\n      pop\n      pop\n      pop\n      jump\t// out\n        /* \"#utility.yul\":3401:3741   */\n    tag_51:\n        /* \"#utility.yul\":3457:3462   */\n      0x00\n        /* \"#utility.yul\":3506:3509   */\n      dup3\n        /* \"#utility.yul\":3499:3503   */\n      0x1f\n        /* \"#utility.yul\":3491:3497   */\n      dup4\n        /* \"#utility.yul\":3487:3504   */\n      add\n        /* \"#utility.yul\":3483:3510   */\n      slt\n        /* \"#utility.yul\":3473:3595   */\n      tag_95\n      jumpi\n        /* \"#utility.yul\":3514:3593   */\n      tag_96\n      tag_42\n      jump\t// in\n    tag_96:\n        /* \"#utility.yul\":3473:3595   */\n    tag_95:\n        /* \"#utility.yul\":3631:3637   */\n      dup2\n        /* \"#utility.yul\":3618:3638   */\n      calldataload\n        /* \"#utility.yul\":3656:3735   */\n      tag_97\n        /* \"#utility.yul\":3731:3734   */\n      dup5\n        /* \"#utility.yul\":3723:3729   */\n      dup3\n        /* \"#utility.yul\":3716:3720   */\n      0x20\n        /* \"#utility.yul\":3708:3714   */\n      dup7\n        /* \"#utility.yul\":3704:3721   */\n      add\n        /* \"#utility.yul\":3656:3735   */\n      tag_50\n      jump\t// in\n    tag_97:\n        /* \"#utility.yul\":3647:3735   */\n      swap2\n      pop\n        /* \"#utility.yul\":3463:3741   */\n      pop\n        /* \"#utility.yul\":3401:3741   */\n      swap3\n      swap2\n      pop\n      pop\n      jump\t// out\n        /* \"#utility.yul\":3747:4256   */\n    tag_13:\n        /* \"#utility.yul\":3816:3822   */\n      0x00\n        /* \"#utility.yul\":3865:3867   */\n      0x20\n        /* \"#utility.yul\":3853:3862   */\n      dup3\n        /* \"#utility.yul\":3844:3851   */\n      dup5\n        /* \"#utility.yul\":3840:3863   */\n      sub\n        /* \"#utility.yul\":3836:3868   */\n      slt\n        /* \"#utility.yul\":3833:3952   */\n      iszero\n      tag_99\n      jumpi\n        /* \"#utility.yul\":3871:3950   */\n      tag_100\n      tag_35\n      jump\t// in\n    tag_100:\n        /* \"#utility.yul\":3833:3952   */\n    tag_99:\n        /* \"#utility.yul\":4019:4020   */\n      0x00\n        /* \"#utility.yul\":4008:4017   */\n      dup3\n        /* \"#utility.yul\":4004:4021   */\n      add\n        /* \"#utility.yul\":3991:4022   */\n      calldataload\n        /* \"#utility.yul\":4049:4067   */\n      0xffffffffffffffff\n        /* \"#utility.yul\":4041:4047   */\n      dup2\n        /* \"#utility.yul\":4038:4068   */\n      gt\n        /* \"#utility.yul\":4035:4152   */\n      iszero\n      tag_101\n      jumpi\n        /* \"#utility.yul\":4071:4150   */\n      tag_102\n      tag_36\n      jump\t// in\n    tag_102:\n        /* \"#utility.yul\":4035:4152   */\n    tag_101:\n        /* \"#utility.yul\":4176:4239   */\n      tag_103\n        /* \"#utility.yul\":4231:4238   */\n      dup5\n        /* \"#utility.yul\":4222:4228   */\n      dup3\n        /* \"#utility.yul\":4211:4220   */\n      dup6\n        /* \"#utility.yul\":4207:4229   */\n      add\n        /* \"#utility.yul\":4176:4239   */\n      tag_51\n      jump\t// in\n    tag_103:\n        /* \"#utility.yul\":4166:4239   */\n      swap2\n      pop\n        /* \"#utility.yul\":3962:4249   */\n      pop\n        /* \"#utility.yul\":3747:4256   */\n      swap3\n      swap2\n      pop\n      pop\n      jump\t// out\n        /* \"#utility.yul\":4262:4442   */\n    tag_22:\n        /* \"#utility.yul\":4310:4387   */\n      0x4e487b7100000000000000000000000000000000000000000000000000000000\n        /* \"#utility.yul\":4307:4308   */\n      0x00\n        /* \"#utility.yul\":4300:4388   */\n      mstore\n        /* \"#utility.yul\":4407:4411   */\n      0x32\n        /* \"#utility.yul\":4404:4405   */\n      0x04\n        /* \"#utility.yul\":4397:4412   */\n      mstore\n        /* \"#utility.yul\":4431:4435   */\n      0x24\n        /* \"#utility.yul\":4428:4429   */\n      0x00\n        /* \"#utility.yul\":4421:4436   */\n      revert\n        /* \"#utility.yul\":4448:4628   */\n    tag_52:\n        /* \"#utility.yul\":4496:4573   */\n      0x4e487b7100000000000000000000000000000000000000000000000000000000\n        /* \"#utility.yul\":4493:4494   */\n      0x00\n        /* \"#utility.yul\":4486:4574   */\n      mstore\n        /* \"#utility.yul\":4593:4597   */\n      0x11\n        /* \"#utility.yul\":4590:4591   */\n      0x04\n        /* \"#utility.yul\":4583:4598   */\n      mstore\n        /* \"#utility.yul\":4617:4621   */\n      0x24\n        /* \"#utility.yul\":4614:4615   */\n      0x00\n        /* \"#utility.yul\":4607:4622   */\n      revert\n        /* \"#utility.yul\":4634:4828   */\n    tag_24:\n        /* \"#utility.yul\":4674:4678   */\n      0x00\n        /* \"#utility.yul\":4694:4714   */\n      tag_107\n        /* \"#utility.yul\":4712:4713   */\n      dup3\n        /* \"#utility.yul\":4694:4714   */\n      tag_40\n      jump\t// in\n    tag_107:\n        /* \"#utility.yul\":4689:4714   */\n      swap2\n      pop\n        /* \"#utility.yul\":4728:4748   */\n      tag_108\n        /* \"#utility.yul\":4746:4747   */\n      dup4\n        /* \"#utility.yul\":4728:4748   */\n      tag_40\n      jump\t// in\n    tag_108:\n        /* \"#utility.yul\":4723:4748   */\n      swap3\n      pop\n        /* \"#utility.yul\":4772:4773   */\n      dup3\n        /* \"#utility.yul\":4769:4770   */\n      dup3\n        /* \"#utility.yul\":4765:4774   */\n      sub\n        /* \"#utility.yul\":4757:4774   */\n      swap1\n      pop\n        /* \"#utility.yul\":4796:4797   */\n      dup2\n        /* \"#utility.yul\":4790:4794   */\n      dup2\n        /* \"#utility.yul\":4787:4798   */\n      gt\n        /* \"#utility.yul\":4784:4821   */\n      iszero\n      tag_109\n      jumpi\n        /* \"#utility.yul\":4801:4819   */\n      tag_110\n      tag_52\n      jump\t// in\n    tag_110:\n        /* \"#utility.yul\":4784:4821   */\n    tag_109:\n        /* \"#utility.yul\":4634:4828   */\n      swap3\n      swap2\n      pop\n      pop\n      jump\t// out\n        /* \"#utility.yul\":4834:5025   */\n    tag_27:\n        /* \"#utility.yul\":4874:4877   */\n      0x00\n        /* \"#utility.yul\":4893:4913   */\n      tag_112\n        /* \"#utility.yul\":4911:4912   */\n      dup3\n        /* \"#utility.yul\":4893:4913   */\n      tag_40\n      jump\t// in\n    tag_112:\n        /* \"#utility.yul\":4888:4913   */\n      swap2\n      pop\n        /* \"#utility.yul\":4927:4947   */\n      tag_113\n        /* \"#utility.yul\":4945:4946   */\n      dup4\n        /* \"#utility.yul\":4927:4947   */\n      tag_40\n      jump\t// in\n    tag_113:\n        /* \"#utility.yul\":4922:4947   */\n      swap3\n      pop\n        /* \"#utility.yul\":4970:4971   */\n      dup3\n        /* \"#utility.yul\":4967:4968   */\n      dup3\n        /* \"#utility.yul\":4963:4972   */\n      add\n        /* \"#utility.yul\":4956:4972   */\n      swap1\n      pop\n        /* \"#utility.yul\":4991:4994   */\n      dup1\n        /* \"#utility.yul\":4988:4989   */\n      dup3\n        /* \"#utility.yul\":4985:4995   */\n      gt\n        /* \"#utility.yul\":4982:5018   */\n      iszero\n      tag_114\n      jumpi\n        /* \"#utility.yul\":4998:5016   */\n      tag_115\n      tag_52\n      jump\t// in\n    tag_115:\n        /* \"#utility.yul\":4982:5018   */\n    tag_114:\n        /* \"#utility.yul\":4834:5025   */\n      swap3\n      swap2\n      pop\n      pop\n      jump\t// out\n\n    auxdata: 0xa26469706673582212200f715199bfaccd1797e695a6764f6608f4c920b1a8600b26314819f0812904fd64736f6c634300081a0033\n}\n",
				"bytecode": {
					"linkReferences": {},
					"object": "608060405234801561000f575f80fd5b5060015f807f49000000000000000000000000000000000000000000000000000000000000007effffffffffffffffffffffffffffffffffffffffffffffffffffffffffffff191681526020019081526020015f208190555060055f807f56000000000000000000000000000000000000000000000000000000000000007effffffffffffffffffffffffffffffffffffffffffffffffffffffffffffff191681526020019081526020015f2081905550600a5f807f58000000000000000000000000000000000000000000000000000000000000007effffffffffffffffffffffffffffffffffffffffffffffffffffffffffffff191681526020019081526020015f208190555060325f807f4c000000000000000000000000000000000000000000000000000000000000007effffffffffffffffffffffffffffffffffffffffffffffffffffffffffffff191681526020019081526020015f208190555060645f807f43000000000000000000000000000000000000000000000000000000000000007effffffffffffffffffffffffffffffffffffffffffffffffffffffffffffff191681526020019081526020015f20819055506101f45f807f44000000000000000000000000000000000000000000000000000000000000007effffffffffffffffffffffffffffffffffffffffffffffffffffffffffffff191681526020019081526020015f20819055506103e85f807f4d000000000000000000000000000000000000000000000000000000000000007effffffffffffffffffffffffffffffffffffffffffffffffffffffffffffff191681526020019081526020015f2081905550610549806102875f395ff3fe608060405234801561000f575f80fd5b5060043610610034575f3560e01c806385b57eee14610038578063cb159dfe14610068575b5f80fd5b610052600480360381019061004d9190610274565b610098565b60405161005f91906102b7565b60405180910390f35b610082600480360381019061007d919061040c565b6100ac565b60405161008f91906102b7565b60405180910390f35b5f602052805f5260405f205f915090505481565b5f808290505f815190505f805b82811015610202575f805f8684815181106100d7576100d6610453565b5b602001015160f81c60f81b7effffffffffffffffffffffffffffffffffffffffffffffffffffffffffffff19167effffffffffffffffffffffffffffffffffffffffffffffffffffffffffffff191681526020019081526020015f2054905060018461014391906104ad565b821080156101cd57505f808660018561015c91906104e0565b8151811061016d5761016c610453565b5b602001015160f81c60f81b7effffffffffffffffffffffffffffffffffffffffffffffffffffffffffffff19167effffffffffffffffffffffffffffffffffffffffffffffffffffffffffffff191681526020019081526020015f205481105b156101e55780836101de91906104ad565b92506101f4565b80836101f191906104e0565b92505b5080806001019150506100b9565b50809350505050919050565b5f604051905090565b5f80fd5b5f80fd5b5f7fff0000000000000000000000000000000000000000000000000000000000000082169050919050565b6102538161021f565b811461025d575f80fd5b50565b5f8135905061026e8161024a565b92915050565b5f6020828403121561028957610288610217565b5b5f61029684828501610260565b91505092915050565b5f819050919050565b6102b18161029f565b82525050565b5f6020820190506102ca5f8301846102a8565b92915050565b5f80fd5b5f80fd5b5f601f19601f8301169050919050565b7f4e487b71000000000000000000000000000000000000000000000000000000005f52604160045260245ffd5b61031e826102d8565b810181811067ffffffffffffffff8211171561033d5761033c6102e8565b5b80604052505050565b5f61034f61020e565b905061035b8282610315565b919050565b5f67ffffffffffffffff82111561037a576103796102e8565b5b610383826102d8565b9050602081019050919050565b828183375f83830152505050565b5f6103b06103ab84610360565b610346565b9050828152602081018484840111156103cc576103cb6102d4565b5b6103d7848285610390565b509392505050565b5f82601f8301126103f3576103f26102d0565b5b813561040384826020860161039e565b91505092915050565b5f6020828403121561042157610420610217565b5b5f82013567ffffffffffffffff81111561043e5761043d61021b565b5b61044a848285016103df565b91505092915050565b7f4e487b71000000000000000000000000000000000000000000000000000000005f52603260045260245ffd5b7f4e487b71000000000000000000000000000000000000000000000000000000005f52601160045260245ffd5b5f6104b78261029f565b91506104c28361029f565b92508282039050818111156104da576104d9610480565b5b92915050565b5f6104ea8261029f565b91506104f58361029f565b925082820190508082111561050d5761050c610480565b5b9291505056fea26469706673582212200f715199bfaccd1797e695a6764f6608f4c920b1a8600b26314819f0812904fd64736f6c634300081a0033",
					"opcodes": "PUSH1 0x80 PUSH1 0x40 MSTORE CALLVALUE DUP1 ISZERO PUSH2 0xF JUMPI PUSH0 DUP1 REVERT JUMPDEST POP PUSH1 0x1 PUSH0 DUP1 PUSH32 0x4900000000000000000000000000000000000000000000000000000000000000 PUSH31 0xFFFFFFFFFFFFFFFFFFFFFFFFFFFFFFFFFFFFFFFFFFFFFFFFFFFFFFFFFFFFFF NOT AND DUP2 MSTORE PUSH1 0x20 ADD SWAP1 DUP2 MSTORE PUSH1 0x20 ADD PUSH0 KECCAK256 DUP2 SWAP1 SSTORE POP PUSH1 0x5 PUSH0 DUP1 PUSH32 0x5600000000000000000000000000000000000000000000000000000000000000 PUSH31 0xFFFFFFFFFFFFFFFFFFFFFFFFFFFFFFFFFFFFFFFFFFFFFFFFFFFFFFFFFFFFFF NOT AND DUP2 MSTORE PUSH1 0x20 ADD SWAP1 DUP2 MSTORE PUSH1 0x20 ADD PUSH0 KECCAK256 DUP2 SWAP1 SSTORE POP PUSH1 0xA PUSH0 DUP1 PUSH32 0x5800000000000000000000000000000000000000000000000000000000000000 PUSH31 0xFFFFFFFFFFFFFFFFFFFFFFFFFFFFFFFFFFFFFFFFFFFFFFFFFFFFFFFFFFFFFF NOT AND DUP2 MSTORE PUSH1 0x20 ADD SWAP1 DUP2 MSTORE PUSH1 0x20 ADD PUSH0 KECCAK256 DUP2 SWAP1 SSTORE POP PUSH1 0x32 PUSH0 DUP1 PUSH32 0x4C00000000000000000000000000000000000000000000000000000000000000 PUSH31 0xFFFFFFFFFFFFFFFFFFFFFFFFFFFFFFFFFFFFFFFFFFFFFFFFFFFFFFFFFFFFFF NOT AND DUP2 MSTORE PUSH1 0x20 ADD SWAP1 DUP2 MSTORE PUSH1 0x20 ADD PUSH0 KECCAK256 DUP2 SWAP1 SSTORE POP PUSH1 0x64 PUSH0 DUP1 PUSH32 0x4300000000000000000000000000000000000000000000000000000000000000 PUSH31 0xFFFFFFFFFFFFFFFFFFFFFFFFFFFFFFFFFFFFFFFFFFFFFFFFFFFFFFFFFFFFFF NOT AND DUP2 MSTORE PUSH1 0x20 ADD SWAP1 DUP2 MSTORE PUSH1 0x20 ADD PUSH0 KECCAK256 DUP2 SWAP1 SSTORE POP PUSH2 0x1F4 PUSH0 DUP1 PUSH32 0x4400000000000000000000000000000000000000000000000000000000000000 PUSH31 0xFFFFFFFFFFFFFFFFFFFFFFFFFFFFFFFFFFFFFFFFFFFFFFFFFFFFFFFFFFFFFF NOT AND DUP2 MSTORE PUSH1 0x20 ADD SWAP1 DUP2 MSTORE PUSH1 0x20 ADD PUSH0 KECCAK256 DUP2 SWAP1 SSTORE POP PUSH2 0x3E8 PUSH0 DUP1 PUSH32 0x4D00000000000000000000000000000000000000000000000000000000000000 PUSH31 0xFFFFFFFFFFFFFFFFFFFFFFFFFFFFFFFFFFFFFFFFFFFFFFFFFFFFFFFFFFFFFF NOT AND DUP2 MSTORE PUSH1 0x20 ADD SWAP1 DUP2 MSTORE PUSH1 0x20 ADD PUSH0 KECCAK256 DUP2 SWAP1 SSTORE POP PUSH2 0x549 DUP1 PUSH2 0x287 PUSH0 CODECOPY PUSH0 RETURN INVALID PUSH1 0x80 PUSH1 0x40 MSTORE CALLVALUE DUP1 ISZERO PUSH2 0xF JUMPI PUSH0 DUP1 REVERT JUMPDEST POP PUSH1 0x4 CALLDATASIZE LT PUSH2 0x34 JUMPI PUSH0 CALLDATALOAD PUSH1 0xE0 SHR DUP1 PUSH4 0x85B57EEE EQ PUSH2 0x38 JUMPI DUP1 PUSH4 0xCB159DFE EQ PUSH2 0x68 JUMPI JUMPDEST PUSH0 DUP1 REVERT JUMPDEST PUSH2 0x52 PUSH1 0x4 DUP1 CALLDATASIZE SUB DUP2 ADD SWAP1 PUSH2 0x4D SWAP2 SWAP1 PUSH2 0x274 JUMP JUMPDEST PUSH2 0x98 JUMP JUMPDEST PUSH1 0x40 MLOAD PUSH2 0x5F SWAP2 SWAP1 PUSH2 0x2B7 JUMP JUMPDEST PUSH1 0x40 MLOAD DUP1 SWAP2 SUB SWAP1 RETURN JUMPDEST PUSH2 0x82 PUSH1 0x4 DUP1 CALLDATASIZE SUB DUP2 ADD SWAP1 PUSH2 0x7D SWAP2 SWAP1 PUSH2 0x40C JUMP JUMPDEST PUSH2 0xAC JUMP JUMPDEST PUSH1 0x40 MLOAD PUSH2 0x8F SWAP2 SWAP1 PUSH2 0x2B7 JUMP JUMPDEST PUSH1 0x40 MLOAD DUP1 SWAP2 SUB SWAP1 RETURN JUMPDEST PUSH0 PUSH1 0x20 MSTORE DUP1 PUSH0 MSTORE PUSH1 0x40 PUSH0 KECCAK256 PUSH0 SWAP2 POP SWAP1 POP SLOAD DUP2 JUMP JUMPDEST PUSH0 DUP1 DUP3 SWAP1 POP PUSH0 DUP2 MLOAD SWAP1 POP PUSH0 DUP1 JUMPDEST DUP3 DUP2 LT ISZERO PUSH2 0x202 JUMPI PUSH0 DUP1 PUSH0 DUP7 DUP5 DUP2 MLOAD DUP2 LT PUSH2 0xD7 JUMPI PUSH2 0xD6 PUSH2 0x453 JUMP JUMPDEST JUMPDEST PUSH1 0x20 ADD ADD MLOAD PUSH1 0xF8 SHR PUSH1 0xF8 SHL PUSH31 0xFFFFFFFFFFFFFFFFFFFFFFFFFFFFFFFFFFFFFFFFFFFFFFFFFFFFFFFFFFFFFF NOT AND PUSH31 0xFFFFFFFFFFFFFFFFFFFFFFFFFFFFFFFFFFFFFFFFFFFFFFFFFFFFFFFFFFFFFF NOT AND DUP2 MSTORE PUSH1 0x20 ADD SWAP1 DUP2 MSTORE PUSH1 0x20 ADD PUSH0 KECCAK256 SLOAD SWAP1 POP PUSH1 0x1 DUP5 PUSH2 0x143 SWAP2 SWAP1 PUSH2 0x4AD JUMP JUMPDEST DUP3 LT DUP1 ISZERO PUSH2 0x1CD JUMPI POP PUSH0 DUP1 DUP7 PUSH1 0x1 DUP6 PUSH2 0x15C SWAP2 SWAP1 PUSH2 0x4E0 JUMP JUMPDEST DUP2 MLOAD DUP2 LT PUSH2 0x16D JUMPI PUSH2 0x16C PUSH2 0x453 JUMP JUMPDEST JUMPDEST PUSH1 0x20 ADD ADD MLOAD PUSH1 0xF8 SHR PUSH1 0xF8 SHL PUSH31 0xFFFFFFFFFFFFFFFFFFFFFFFFFFFFFFFFFFFFFFFFFFFFFFFFFFFFFFFFFFFFFF NOT AND PUSH31 0xFFFFFFFFFFFFFFFFFFFFFFFFFFFFFFFFFFFFFFFFFFFFFFFFFFFFFFFFFFFFFF NOT AND DUP2 MSTORE PUSH1 0x20 ADD SWAP1 DUP2 MSTORE PUSH1 0x20 ADD PUSH0 KECCAK256 SLOAD DUP2 LT JUMPDEST ISZERO PUSH2 0x1E5 JUMPI DUP1 DUP4 PUSH2 0x1DE SWAP2 SWAP1 PUSH2 0x4AD JUMP JUMPDEST SWAP3 POP PUSH2 0x1F4 JUMP JUMPDEST DUP1 DUP4 PUSH2 0x1F1 SWAP2 SWAP1 PUSH2 0x4E0 JUMP JUMPDEST SWAP3 POP JUMPDEST POP DUP1 DUP1 PUSH1 0x1 ADD SWAP2 POP POP PUSH2 0xB9 JUMP JUMPDEST POP DUP1 SWAP4 POP POP POP POP SWAP2 SWAP1 POP JUMP JUMPDEST PUSH0 PUSH1 0x40 MLOAD SWAP1 POP SWAP1 JUMP JUMPDEST PUSH0 DUP1 REVERT JUMPDEST PUSH0 DUP1 REVERT JUMPDEST PUSH0 PUSH32 0xFF00000000000000000000000000000000000000000000000000000000000000 DUP3 AND SWAP1 POP SWAP2 SWAP1 POP JUMP JUMPDEST PUSH2 0x253 DUP2 PUSH2 0x21F JUMP JUMPDEST DUP2 EQ PUSH2 0x25D JUMPI PUSH0 DUP1 REVERT JUMPDEST POP JUMP JUMPDEST PUSH0 DUP2 CALLDATALOAD SWAP1 POP PUSH2 0x26E DUP2 PUSH2 0x24A JUMP JUMPDEST SWAP3 SWAP2 POP POP JUMP JUMPDEST PUSH0 PUSH1 0x20 DUP3 DUP5 SUB SLT ISZERO PUSH2 0x289 JUMPI PUSH2 0x288 PUSH2 0x217 JUMP JUMPDEST JUMPDEST PUSH0 PUSH2 0x296 DUP5 DUP3 DUP6 ADD PUSH2 0x260 JUMP JUMPDEST SWAP2 POP POP SWAP3 SWAP2 POP POP JUMP JUMPDEST PUSH0 DUP2 SWAP1 POP SWAP2 SWAP1 POP JUMP JUMPDEST PUSH2 0x2B1 DUP2 PUSH2 0x29F JUMP JUMPDEST DUP3 MSTORE POP POP JUMP JUMPDEST PUSH0 PUSH1 0x20 DUP3 ADD SWAP1 POP PUSH2 0x2CA PUSH0 DUP4 ADD DUP5 PUSH2 0x2A8 JUMP JUMPDEST SWAP3 SWAP2 POP POP JUMP JUMPDEST PUSH0 DUP1 REVERT JUMPDEST PUSH0 DUP1 REVERT JUMPDEST PUSH0 PUSH1 0x1F NOT PUSH1 0x1F DUP4 ADD AND SWAP1 POP SWAP2 SWAP1 POP JUMP JUMPDEST PUSH32 0x4E487B7100000000000000000000000000000000000000000000000000000000 PUSH0 MSTORE PUSH1 0x41 PUSH1 0x4 MSTORE PUSH1 0x24 PUSH0 REVERT JUMPDEST PUSH2 0x31E DUP3 PUSH2 0x2D8 JUMP JUMPDEST DUP2 ADD DUP2 DUP2 LT PUSH8 0xFFFFFFFFFFFFFFFF DUP3 GT OR ISZERO PUSH2 0x33D JUMPI PUSH2 0x33C PUSH2 0x2E8 JUMP JUMPDEST JUMPDEST DUP1 PUSH1 0x40 MSTORE POP POP POP JUMP JUMPDEST PUSH0 PUSH2 0x34F PUSH2 0x20E JUMP JUMPDEST SWAP1 POP PUSH2 0x35B DUP3 DUP3 PUSH2 0x315 JUMP JUMPDEST SWAP2 SWAP1 POP JUMP JUMPDEST PUSH0 PUSH8 0xFFFFFFFFFFFFFFFF DUP3 GT ISZERO PUSH2 0x37A JUMPI PUSH2 0x379 PUSH2 0x2E8 JUMP JUMPDEST JUMPDEST PUSH2 0x383 DUP3 PUSH2 0x2D8 JUMP JUMPDEST SWAP1 POP PUSH1 0x20 DUP2 ADD SWAP1 POP SWAP2 SWAP1 POP JUMP JUMPDEST DUP3 DUP2 DUP4 CALLDATACOPY PUSH0 DUP4 DUP4 ADD MSTORE POP POP POP JUMP JUMPDEST PUSH0 PUSH2 0x3B0 PUSH2 0x3AB DUP5 PUSH2 0x360 JUMP JUMPDEST PUSH2 0x346 JUMP JUMPDEST SWAP1 POP DUP3 DUP2 MSTORE PUSH1 0x20 DUP2 ADD DUP5 DUP5 DUP5 ADD GT ISZERO PUSH2 0x3CC JUMPI PUSH2 0x3CB PUSH2 0x2D4 JUMP JUMPDEST JUMPDEST PUSH2 0x3D7 DUP5 DUP3 DUP6 PUSH2 0x390 JUMP JUMPDEST POP SWAP4 SWAP3 POP POP POP JUMP JUMPDEST PUSH0 DUP3 PUSH1 0x1F DUP4 ADD SLT PUSH2 0x3F3 JUMPI PUSH2 0x3F2 PUSH2 0x2D0 JUMP JUMPDEST JUMPDEST DUP2 CALLDATALOAD PUSH2 0x403 DUP5 DUP3 PUSH1 0x20 DUP7 ADD PUSH2 0x39E JUMP JUMPDEST SWAP2 POP POP SWAP3 SWAP2 POP POP JUMP JUMPDEST PUSH0 PUSH1 0x20 DUP3 DUP5 SUB SLT ISZERO PUSH2 0x421 JUMPI PUSH2 0x420 PUSH2 0x217 JUMP JUMPDEST JUMPDEST PUSH0 DUP3 ADD CALLDATALOAD PUSH8 0xFFFFFFFFFFFFFFFF DUP2 GT ISZERO PUSH2 0x43E JUMPI PUSH2 0x43D PUSH2 0x21B JUMP JUMPDEST JUMPDEST PUSH2 0x44A DUP5 DUP3 DUP6 ADD PUSH2 0x3DF JUMP JUMPDEST SWAP2 POP POP SWAP3 SWAP2 POP POP JUMP JUMPDEST PUSH32 0x4E487B7100000000000000000000000000000000000000000000000000000000 PUSH0 MSTORE PUSH1 0x32 PUSH1 0x4 MSTORE PUSH1 0x24 PUSH0 REVERT JUMPDEST PUSH32 0x4E487B7100000000000000000000000000000000000000000000000000000000 PUSH0 MSTORE PUSH1 0x11 PUSH1 0x4 MSTORE PUSH1 0x24 PUSH0 REVERT JUMPDEST PUSH0 PUSH2 0x4B7 DUP3 PUSH2 0x29F JUMP JUMPDEST SWAP2 POP PUSH2 0x4C2 DUP4 PUSH2 0x29F JUMP JUMPDEST SWAP3 POP DUP3 DUP3 SUB SWAP1 POP DUP2 DUP2 GT ISZERO PUSH2 0x4DA JUMPI PUSH2 0x4D9 PUSH2 0x480 JUMP JUMPDEST JUMPDEST SWAP3 SWAP2 POP POP JUMP JUMPDEST PUSH0 PUSH2 0x4EA DUP3 PUSH2 0x29F JUMP JUMPDEST SWAP2 POP PUSH2 0x4F5 DUP4 PUSH2 0x29F JUMP JUMPDEST SWAP3 POP DUP3 DUP3 ADD SWAP1 POP DUP1 DUP3 GT ISZERO PUSH2 0x50D JUMPI PUSH2 0x50C PUSH2 0x480 JUMP JUMPDEST JUMPDEST SWAP3 SWAP2 POP POP JUMP INVALID LOG2 PUSH5 0x6970667358 0x22 SLT KECCAK256 0xF PUSH18 0x5199BFACCD1797E695A6764F6608F4C920B1 0xA8 PUSH1 0xB 0x26 BALANCE BASEFEE NOT CREATE DUP2 0x29 DIV REVERT PUSH5 0x736F6C6343 STOP ADDMOD BYTE STOP CALLER "
				},
				"gasEstimates": {
					"creation": {
						"codeDepositCost": "270600",
						"executionCost": "155703",
						"totalCost": "426303"
					},
					"external": {
						"romanToInt(string)": "infinite",
						"symbolValues(bytes1)": "2737"
					}
				},
				"methodIdentifiers": {
					"romanToInt(string)": "cb159dfe",
					"symbolValues(bytes1)": "85b57eee"
				}
			},
			"storageLayout": {
				"storage": [
					{
						"astId": 5,
						"contract": "RomanConverter.sol:RomanConverter",
						"label": "symbolValues",
						"offset": 0,
						"slot": "0",
						"type": "t_mapping(t_bytes1,t_uint256)"
					}
				],
				"types": {
					"t_bytes1": {
						"encoding": "inplace",
						"label": "bytes1",
						"numberOfBytes": "1"
					},
					"t_mapping(t_bytes1,t_uint256)": {
						"encoding": "mapping",
						"key": "t_bytes1",
						"label": "mapping(bytes1 => uint256)",
						"numberOfBytes": "32",
						"value": "t_uint256"
					},
					"t_uint256": {
						"encoding": "inplace",
						"label": "uint256",
						"numberOfBytes": "32"
					}
				}
			},
			"userdoc": {
				"kind": "user",
				"methods": {},
				"version": 1
			}
		}
	}
}