{
	"homework/voting.sol": {
		"voliting": {
			"abi": [
				{
					"inputs": [
						{
							"internalType": "string[]",
							"name": "_candidates",
							"type": "string[]"
						}
					],
					"stateMutability": "nonpayable",
					"type": "constructor"
				},
				{
					"inputs": [],
					"name": "getAllCandidates",
					"outputs": [
						{
							"internalType": "string[]",
							"name": "",
							"type": "string[]"
						}
					],
					"stateMutability": "view",
					"type": "function"
				},
				{
					"inputs": [
						{
							"internalType": "string",
							"name": "candidate",
							"type": "string"
						}
					],
					"name": "getVotes",
					"outputs": [
						{
							"internalType": "uint256",
							"name": "",
							"type": "uint256"
						}
					],
					"stateMutability": "view",
					"type": "function"
				},
				{
					"inputs": [],
					"name": "owner",
					"outputs": [
						{
							"internalType": "address",
							"name": "",
							"type": "address"
						}
					],
					"stateMutability": "view",
					"type": "function"
				},
				{
					"inputs": [],
					"name": "resetVotes",
					"outputs": [],
					"stateMutability": "nonpayable",
					"type": "function"
				},
				{
					"inputs": [
						{
							"internalType": "string",
							"name": "candidate",
							"type": "string"
						}
					],
					"name": "vote",
					"outputs": [],
					"stateMutability": "nonpayable",
					"type": "function"
				}
			],
			"devdoc": {
				"kind": "dev",
				"methods": {},
				"version": 1
			},
			"evm": {
				"assembly": "    /* \"homework/voting.sol\":369:2730  contract voliting{... */\n  mstore(0x40, 0x80)\n    /* \"homework/voting.sol\":848:1170  constructor(string[] memory _candidates) {... */\n  callvalue\n  dup1\n  iszero\n  tag_1\n  jumpi\n  0x00\n  dup1\n  revert\ntag_1:\n  pop\n  mload(0x40)\n  sub(codesize, bytecodeSize)\n  dup1\n  bytecodeSize\n  dup4\n  codecopy\n  dup2\n  dup2\n  add\n  0x40\n  mstore\n  dup2\n  add\n  swap1\n  tag_2\n  swap2\n  swap1\n  tag_3\n  jump\t// in\ntag_2:\n    /* \"homework/voting.sol\":907:917  msg.sender */\n  caller\n    /* \"homework/voting.sol\":899:904  owner */\n  0x02\n  0x00\n    /* \"homework/voting.sol\":899:917  owner = msg.sender */\n  0x0100\n  exp\n  dup2\n  sload\n  dup2\n  0xffffffffffffffffffffffffffffffffffffffff\n  mul\n  not\n  and\n  swap1\n  dup4\n  0xffffffffffffffffffffffffffffffffffffffff\n  and\n  mul\n  or\n  swap1\n  sstore\n  pop\n    /* \"homework/voting.sol\":1002:1013  _candidates */\n  dup1\n    /* \"homework/voting.sol\":989:999  candidates */\n  0x01\n    /* \"homework/voting.sol\":989:1013  candidates = _candidates */\n  swap1\n  dup1\n  mload\n  swap1\n  0x20\n  add\n  swap1\n  tag_6\n  swap3\n  swap2\n  swap1\n  tag_7\n  jump\t// in\ntag_6:\n  pop\n    /* \"homework/voting.sol\":1028:1034  uint i */\n  0x00\n    /* \"homework/voting.sol\":1023:1164  for (uint i = 0; i < _candidates.length; i++) {... */\ntag_8:\n    /* \"homework/voting.sol\":1044:1055  _candidates */\n  dup2\n    /* \"homework/voting.sol\":1044:1062  _candidates.length */\n  mload\n    /* \"homework/voting.sol\":1040:1041  i */\n  dup2\n    /* \"homework/voting.sol\":1040:1062  i < _candidates.length */\n  lt\n    /* \"homework/voting.sol\":1023:1164  for (uint i = 0; i < _candidates.length; i++) {... */\n  iszero\n  tag_9\n  jumpi\n    /* \"homework/voting.sol\":1107:1108  0 */\n  0x00\n    /* \"homework/voting.sol\":1083:1088  votes */\n  dup1\n    /* \"homework/voting.sol\":1089:1100  _candidates */\n  dup4\n    /* \"homework/voting.sol\":1101:1102  i */\n  dup4\n    /* \"homework/voting.sol\":1089:1103  _candidates[i] */\n  dup2\n  mload\n  dup2\n  lt\n  tag_11\n  jumpi\n  tag_12\n  tag_13\n  jump\t// in\ntag_12:\ntag_11:\n  0x20\n  mul\n  0x20\n  add\n  add\n  mload\n    /* \"homework/voting.sol\":1083:1104  votes[_candidates[i]] */\n  mload(0x40)\n  tag_14\n  swap2\n  swap1\n  tag_15\n  jump\t// in\ntag_14:\n  swap1\n  dup2\n  mstore\n  0x20\n  add\n  mload(0x40)\n  dup1\n  swap2\n  sub\n  swap1\n  keccak256\n    /* \"homework/voting.sol\":1083:1108  votes[_candidates[i]] = 0 */\n  dup2\n  swap1\n  sstore\n  pop\n    /* \"homework/voting.sol\":1064:1067  i++ */\n  dup1\n  dup1\n  0x01\n  add\n  swap2\n  pop\n  pop\n    /* \"homework/voting.sol\":1023:1164  for (uint i = 0; i < _candidates.length; i++) {... */\n  jump(tag_8)\ntag_9:\n  pop\n    /* \"homework/voting.sol\":848:1170  constructor(string[] memory _candidates) {... */\n  pop\n    /* \"homework/voting.sol\":369:2730  contract voliting{... */\n  jump(tag_16)\ntag_7:\n  dup3\n  dup1\n  sload\n  dup3\n  dup3\n  sstore\n  swap1\n  0x00\n  mstore\n  keccak256(0x00, 0x20)\n  swap1\n  dup2\n  add\n  swap3\n  dup3\n  iszero\n  tag_17\n  jumpi\n  swap2\n  0x20\n  mul\n  dup3\n  add\ntag_18:\n  dup3\n  dup2\n  gt\n  iszero\n  tag_19\n  jumpi\n  dup3\n  mload\n  dup3\n  swap1\n  dup2\n  tag_20\n  swap2\n  swap1\n  tag_21\n  jump\t// in\ntag_20:\n  pop\n  swap2\n  0x20\n  add\n  swap2\n  swap1\n  0x01\n  add\n  swap1\n  jump(tag_18)\ntag_19:\ntag_17:\n  pop\n  swap1\n  pop\n  tag_22\n  swap2\n  swap1\n  tag_23\n  jump\t// in\ntag_22:\n  pop\n  swap1\n  jump\t// out\ntag_23:\ntag_24:\n  dup1\n  dup3\n  gt\n  iszero\n  tag_25\n  jumpi\n  0x00\n  dup2\n  dup2\n  tag_26\n  swap2\n  swap1\n  tag_27\n  jump\t// in\ntag_26:\n  pop\n  0x01\n  add\n  jump(tag_24)\ntag_25:\n  pop\n  swap1\n  jump\t// out\ntag_27:\n  pop\n  dup1\n  sload\n  tag_28\n  swap1\n  tag_29\n  jump\t// in\ntag_28:\n  0x00\n  dup3\n  sstore\n  dup1\n  0x1f\n  lt\n  tag_31\n  jumpi\n  pop\n  jump(tag_30)\ntag_31:\n  0x1f\n  add\n  0x20\n  swap1\n  div\n  swap1\n  0x00\n  mstore\n  keccak256(0x00, 0x20)\n  swap1\n  dup2\n  add\n  swap1\n  tag_32\n  swap2\n  swap1\n  tag_33\n  jump\t// in\ntag_32:\ntag_30:\n  pop\n  jump\t// out\ntag_33:\ntag_34:\n  dup1\n  dup3\n  gt\n  iszero\n  tag_35\n  jumpi\n  0x00\n  dup2\n  0x00\n  swap1\n  sstore\n  pop\n  0x01\n  add\n  jump(tag_34)\ntag_35:\n  pop\n  swap1\n  jump\t// out\n    /* \"#utility.yul\":7:82   */\ntag_36:\n    /* \"#utility.yul\":40:46   */\n  0x00\n    /* \"#utility.yul\":73:75   */\n  0x40\n    /* \"#utility.yul\":67:76   */\n  mload\n    /* \"#utility.yul\":57:76   */\n  swap1\n  pop\n    /* \"#utility.yul\":7:82   */\n  swap1\n  jump\t// out\n    /* \"#utility.yul\":88:205   */\ntag_37:\n    /* \"#utility.yul\":197:198   */\n  0x00\n    /* \"#utility.yul\":194:195   */\n  dup1\n    /* \"#utility.yul\":187:199   */\n  revert\n    /* \"#utility.yul\":211:328   */\ntag_38:\n    /* \"#utility.yul\":320:321   */\n  0x00\n    /* \"#utility.yul\":317:318   */\n  dup1\n    /* \"#utility.yul\":310:322   */\n  revert\n    /* \"#utility.yul\":334:451   */\ntag_39:\n    /* \"#utility.yul\":443:444   */\n  0x00\n    /* \"#utility.yul\":440:441   */\n  dup1\n    /* \"#utility.yul\":433:445   */\n  revert\n    /* \"#utility.yul\":457:559   */\ntag_40:\n    /* \"#utility.yul\":498:504   */\n  0x00\n    /* \"#utility.yul\":549:551   */\n  0x1f\n    /* \"#utility.yul\":545:552   */\n  not\n    /* \"#utility.yul\":540:542   */\n  0x1f\n    /* \"#utility.yul\":533:538   */\n  dup4\n    /* \"#utility.yul\":529:543   */\n  add\n    /* \"#utility.yul\":525:553   */\n  and\n    /* \"#utility.yul\":515:553   */\n  swap1\n  pop\n    /* \"#utility.yul\":457:559   */\n  swap2\n  swap1\n  pop\n  jump\t// out\n    /* \"#utility.yul\":565:745   */\ntag_41:\n    /* \"#utility.yul\":613:690   */\n  0x4e487b7100000000000000000000000000000000000000000000000000000000\n    /* \"#utility.yul\":610:611   */\n  0x00\n    /* \"#utility.yul\":603:691   */\n  mstore\n    /* \"#utility.yul\":710:714   */\n  0x41\n    /* \"#utility.yul\":707:708   */\n  0x04\n    /* \"#utility.yul\":700:715   */\n  mstore\n    /* \"#utility.yul\":734:738   */\n  0x24\n    /* \"#utility.yul\":731:732   */\n  0x00\n    /* \"#utility.yul\":724:739   */\n  revert\n    /* \"#utility.yul\":751:1032   */\ntag_42:\n    /* \"#utility.yul\":834:861   */\n  tag_81\n    /* \"#utility.yul\":856:860   */\n  dup3\n    /* \"#utility.yul\":834:861   */\n  tag_40\n  jump\t// in\ntag_81:\n    /* \"#utility.yul\":826:832   */\n  dup2\n    /* \"#utility.yul\":822:862   */\n  add\n    /* \"#utility.yul\":964:970   */\n  dup2\n    /* \"#utility.yul\":952:962   */\n  dup2\n    /* \"#utility.yul\":949:971   */\n  lt\n    /* \"#utility.yul\":928:946   */\n  0xffffffffffffffff\n    /* \"#utility.yul\":916:926   */\n  dup3\n    /* \"#utility.yul\":913:947   */\n  gt\n    /* \"#utility.yul\":910:972   */\n  or\n    /* \"#utility.yul\":907:995   */\n  iszero\n  tag_82\n  jumpi\n    /* \"#utility.yul\":975:993   */\n  tag_83\n  tag_41\n  jump\t// in\ntag_83:\n    /* \"#utility.yul\":907:995   */\ntag_82:\n    /* \"#utility.yul\":1015:1025   */\n  dup1\n    /* \"#utility.yul\":1011:1013   */\n  0x40\n    /* \"#utility.yul\":1004:1026   */\n  mstore\n    /* \"#utility.yul\":794:1032   */\n  pop\n    /* \"#utility.yul\":751:1032   */\n  pop\n  pop\n  jump\t// out\n    /* \"#utility.yul\":1038:1167   */\ntag_43:\n    /* \"#utility.yul\":1072:1078   */\n  0x00\n    /* \"#utility.yul\":1099:1119   */\n  tag_85\n  tag_36\n  jump\t// in\ntag_85:\n    /* \"#utility.yul\":1089:1119   */\n  swap1\n  pop\n    /* \"#utility.yul\":1128:1161   */\n  tag_86\n    /* \"#utility.yul\":1156:1160   */\n  dup3\n    /* \"#utility.yul\":1148:1154   */\n  dup3\n    /* \"#utility.yul\":1128:1161   */\n  tag_42\n  jump\t// in\ntag_86:\n    /* \"#utility.yul\":1038:1167   */\n  swap2\n  swap1\n  pop\n  jump\t// out\n    /* \"#utility.yul\":1173:1494   */\ntag_44:\n    /* \"#utility.yul\":1260:1264   */\n  0x00\n    /* \"#utility.yul\":1350:1368   */\n  0xffffffffffffffff\n    /* \"#utility.yul\":1342:1348   */\n  dup3\n    /* \"#utility.yul\":1339:1369   */\n  gt\n    /* \"#utility.yul\":1336:1392   */\n  iszero\n  tag_88\n  jumpi\n    /* \"#utility.yul\":1372:1390   */\n  tag_89\n  tag_41\n  jump\t// in\ntag_89:\n    /* \"#utility.yul\":1336:1392   */\ntag_88:\n    /* \"#utility.yul\":1422:1426   */\n  0x20\n    /* \"#utility.yul\":1414:1420   */\n  dup3\n    /* \"#utility.yul\":1410:1427   */\n  mul\n    /* \"#utility.yul\":1402:1427   */\n  swap1\n  pop\n    /* \"#utility.yul\":1482:1486   */\n  0x20\n    /* \"#utility.yul\":1476:1480   */\n  dup2\n    /* \"#utility.yul\":1472:1487   */\n  add\n    /* \"#utility.yul\":1464:1487   */\n  swap1\n  pop\n    /* \"#utility.yul\":1173:1494   */\n  swap2\n  swap1\n  pop\n  jump\t// out\n    /* \"#utility.yul\":1500:1617   */\ntag_45:\n    /* \"#utility.yul\":1609:1610   */\n  0x00\n    /* \"#utility.yul\":1606:1607   */\n  dup1\n    /* \"#utility.yul\":1599:1611   */\n  revert\n    /* \"#utility.yul\":1623:1740   */\ntag_46:\n    /* \"#utility.yul\":1732:1733   */\n  0x00\n    /* \"#utility.yul\":1729:1730   */\n  dup1\n    /* \"#utility.yul\":1722:1734   */\n  revert\n    /* \"#utility.yul\":1746:2054   */\ntag_47:\n    /* \"#utility.yul\":1808:1812   */\n  0x00\n    /* \"#utility.yul\":1898:1916   */\n  0xffffffffffffffff\n    /* \"#utility.yul\":1890:1896   */\n  dup3\n    /* \"#utility.yul\":1887:1917   */\n  gt\n    /* \"#utility.yul\":1884:1940   */\n  iszero\n  tag_93\n  jumpi\n    /* \"#utility.yul\":1920:1938   */\n  tag_94\n  tag_41\n  jump\t// in\ntag_94:\n    /* \"#utility.yul\":1884:1940   */\ntag_93:\n    /* \"#utility.yul\":1958:1987   */\n  tag_95\n    /* \"#utility.yul\":1980:1986   */\n  dup3\n    /* \"#utility.yul\":1958:1987   */\n  tag_40\n  jump\t// in\ntag_95:\n    /* \"#utility.yul\":1950:1987   */\n  swap1\n  pop\n    /* \"#utility.yul\":2042:2046   */\n  0x20\n    /* \"#utility.yul\":2036:2040   */\n  dup2\n    /* \"#utility.yul\":2032:2047   */\n  add\n    /* \"#utility.yul\":2024:2047   */\n  swap1\n  pop\n    /* \"#utility.yul\":1746:2054   */\n  swap2\n  swap1\n  pop\n  jump\t// out\n    /* \"#utility.yul\":2060:2199   */\ntag_48:\n    /* \"#utility.yul\":2149:2155   */\n  dup3\n    /* \"#utility.yul\":2144:2147   */\n  dup2\n    /* \"#utility.yul\":2139:2142   */\n  dup4\n    /* \"#utility.yul\":2133:2156   */\n  mcopy\n    /* \"#utility.yul\":2190:2191   */\n  0x00\n    /* \"#utility.yul\":2181:2187   */\n  dup4\n    /* \"#utility.yul\":2176:2179   */\n  dup4\n    /* \"#utility.yul\":2172:2188   */\n  add\n    /* \"#utility.yul\":2165:2192   */\n  mstore\n    /* \"#utility.yul\":2060:2199   */\n  pop\n  pop\n  pop\n  jump\t// out\n    /* \"#utility.yul\":2205:2639   */\ntag_49:\n    /* \"#utility.yul\":2294:2299   */\n  0x00\n    /* \"#utility.yul\":2319:2385   */\n  tag_98\n    /* \"#utility.yul\":2335:2384   */\n  tag_99\n    /* \"#utility.yul\":2377:2383   */\n  dup5\n    /* \"#utility.yul\":2335:2384   */\n  tag_47\n  jump\t// in\ntag_99:\n    /* \"#utility.yul\":2319:2385   */\n  tag_43\n  jump\t// in\ntag_98:\n    /* \"#utility.yul\":2310:2385   */\n  swap1\n  pop\n    /* \"#utility.yul\":2408:2414   */\n  dup3\n    /* \"#utility.yul\":2401:2406   */\n  dup2\n    /* \"#utility.yul\":2394:2415   */\n  mstore\n    /* \"#utility.yul\":2446:2450   */\n  0x20\n    /* \"#utility.yul\":2439:2444   */\n  dup2\n    /* \"#utility.yul\":2435:2451   */\n  add\n    /* \"#utility.yul\":2484:2487   */\n  dup5\n    /* \"#utility.yul\":2475:2481   */\n  dup5\n    /* \"#utility.yul\":2470:2473   */\n  dup5\n    /* \"#utility.yul\":2466:2482   */\n  add\n    /* \"#utility.yul\":2463:2488   */\n  gt\n    /* \"#utility.yul\":2460:2572   */\n  iszero\n  tag_100\n  jumpi\n    /* \"#utility.yul\":2491:2570   */\n  tag_101\n  tag_46\n  jump\t// in\ntag_101:\n    /* \"#utility.yul\":2460:2572   */\ntag_100:\n    /* \"#utility.yul\":2581:2633   */\n  tag_102\n    /* \"#utility.yul\":2626:2632   */\n  dup5\n    /* \"#utility.yul\":2621:2624   */\n  dup3\n    /* \"#utility.yul\":2616:2619   */\n  dup6\n    /* \"#utility.yul\":2581:2633   */\n  tag_48\n  jump\t// in\ntag_102:\n    /* \"#utility.yul\":2300:2639   */\n  pop\n    /* \"#utility.yul\":2205:2639   */\n  swap4\n  swap3\n  pop\n  pop\n  pop\n  jump\t// out\n    /* \"#utility.yul\":2659:3014   */\ntag_50:\n    /* \"#utility.yul\":2726:2731   */\n  0x00\n    /* \"#utility.yul\":2775:2778   */\n  dup3\n    /* \"#utility.yul\":2768:2772   */\n  0x1f\n    /* \"#utility.yul\":2760:2766   */\n  dup4\n    /* \"#utility.yul\":2756:2773   */\n  add\n    /* \"#utility.yul\":2752:2779   */\n  slt\n    /* \"#utility.yul\":2742:2864   */\n  tag_104\n  jumpi\n    /* \"#utility.yul\":2783:2862   */\n  tag_105\n  tag_39\n  jump\t// in\ntag_105:\n    /* \"#utility.yul\":2742:2864   */\ntag_104:\n    /* \"#utility.yul\":2893:2899   */\n  dup2\n    /* \"#utility.yul\":2887:2900   */\n  mload\n    /* \"#utility.yul\":2918:3008   */\n  tag_106\n    /* \"#utility.yul\":3004:3007   */\n  dup5\n    /* \"#utility.yul\":2996:3002   */\n  dup3\n    /* \"#utility.yul\":2989:2993   */\n  0x20\n    /* \"#utility.yul\":2981:2987   */\n  dup7\n    /* \"#utility.yul\":2977:2994   */\n  add\n    /* \"#utility.yul\":2918:3008   */\n  tag_49\n  jump\t// in\ntag_106:\n    /* \"#utility.yul\":2909:3008   */\n  swap2\n  pop\n    /* \"#utility.yul\":2732:3014   */\n  pop\n    /* \"#utility.yul\":2659:3014   */\n  swap3\n  swap2\n  pop\n  pop\n  jump\t// out\n    /* \"#utility.yul\":3036:3996   */\ntag_51:\n    /* \"#utility.yul\":3153:3158   */\n  0x00\n    /* \"#utility.yul\":3178:3269   */\n  tag_108\n    /* \"#utility.yul\":3194:3268   */\n  tag_109\n    /* \"#utility.yul\":3261:3267   */\n  dup5\n    /* \"#utility.yul\":3194:3268   */\n  tag_44\n  jump\t// in\ntag_109:\n    /* \"#utility.yul\":3178:3269   */\n  tag_43\n  jump\t// in\ntag_108:\n    /* \"#utility.yul\":3169:3269   */\n  swap1\n  pop\n    /* \"#utility.yul\":3289:3294   */\n  dup1\n    /* \"#utility.yul\":3318:3324   */\n  dup4\n    /* \"#utility.yul\":3311:3316   */\n  dup3\n    /* \"#utility.yul\":3304:3325   */\n  mstore\n    /* \"#utility.yul\":3352:3356   */\n  0x20\n    /* \"#utility.yul\":3345:3350   */\n  dup3\n    /* \"#utility.yul\":3341:3357   */\n  add\n    /* \"#utility.yul\":3334:3357   */\n  swap1\n  pop\n    /* \"#utility.yul\":3405:3409   */\n  0x20\n    /* \"#utility.yul\":3397:3403   */\n  dup5\n    /* \"#utility.yul\":3393:3410   */\n  mul\n    /* \"#utility.yul\":3385:3391   */\n  dup4\n    /* \"#utility.yul\":3381:3411   */\n  add\n    /* \"#utility.yul\":3434:3437   */\n  dup6\n    /* \"#utility.yul\":3426:3432   */\n  dup2\n    /* \"#utility.yul\":3423:3438   */\n  gt\n    /* \"#utility.yul\":3420:3542   */\n  iszero\n  tag_110\n  jumpi\n    /* \"#utility.yul\":3453:3532   */\n  tag_111\n  tag_45\n  jump\t// in\ntag_111:\n    /* \"#utility.yul\":3420:3542   */\ntag_110:\n    /* \"#utility.yul\":3568:3574   */\n  dup4\n    /* \"#utility.yul\":3551:3990   */\ntag_112:\n    /* \"#utility.yul\":3585:3591   */\n  dup2\n    /* \"#utility.yul\":3580:3583   */\n  dup2\n    /* \"#utility.yul\":3577:3592   */\n  lt\n    /* \"#utility.yul\":3551:3990   */\n  iszero\n  tag_114\n  jumpi\n    /* \"#utility.yul\":3667:3670   */\n  dup1\n    /* \"#utility.yul\":3661:3671   */\n  mload\n    /* \"#utility.yul\":3703:3721   */\n  0xffffffffffffffff\n    /* \"#utility.yul\":3690:3701   */\n  dup2\n    /* \"#utility.yul\":3687:3722   */\n  gt\n    /* \"#utility.yul\":3684:3806   */\n  iszero\n  tag_115\n  jumpi\n    /* \"#utility.yul\":3725:3804   */\n  tag_116\n  tag_39\n  jump\t// in\ntag_116:\n    /* \"#utility.yul\":3684:3806   */\ntag_115:\n    /* \"#utility.yul\":3849:3860   */\n  dup1\n    /* \"#utility.yul\":3841:3847   */\n  dup7\n    /* \"#utility.yul\":3837:3861   */\n  add\n    /* \"#utility.yul\":3887:3945   */\n  tag_117\n    /* \"#utility.yul\":3941:3944   */\n  dup10\n    /* \"#utility.yul\":3929:3939   */\n  dup3\n    /* \"#utility.yul\":3887:3945   */\n  tag_50\n  jump\t// in\ntag_117:\n    /* \"#utility.yul\":3882:3885   */\n  dup6\n    /* \"#utility.yul\":3875:3946   */\n  mstore\n    /* \"#utility.yul\":3975:3979   */\n  0x20\n    /* \"#utility.yul\":3970:3973   */\n  dup6\n    /* \"#utility.yul\":3966:3980   */\n  add\n    /* \"#utility.yul\":3959:3980   */\n  swap5\n  pop\n    /* \"#utility.yul\":3627:3990   */\n  pop\n  pop\n    /* \"#utility.yul\":3611:3615   */\n  0x20\n    /* \"#utility.yul\":3606:3609   */\n  dup2\n    /* \"#utility.yul\":3602:3616   */\n  add\n    /* \"#utility.yul\":3595:3616   */\n  swap1\n  pop\n    /* \"#utility.yul\":3551:3990   */\n  jump(tag_112)\ntag_114:\n    /* \"#utility.yul\":3555:3576   */\n  pop\n    /* \"#utility.yul\":3159:3996   */\n  pop\n  pop\n    /* \"#utility.yul\":3036:3996   */\n  swap4\n  swap3\n  pop\n  pop\n  pop\n  jump\t// out\n    /* \"#utility.yul\":4018:4423   */\ntag_52:\n    /* \"#utility.yul\":4110:4115   */\n  0x00\n    /* \"#utility.yul\":4159:4162   */\n  dup3\n    /* \"#utility.yul\":4152:4156   */\n  0x1f\n    /* \"#utility.yul\":4144:4150   */\n  dup4\n    /* \"#utility.yul\":4140:4157   */\n  add\n    /* \"#utility.yul\":4136:4163   */\n  slt\n    /* \"#utility.yul\":4126:4248   */\n  tag_119\n  jumpi\n    /* \"#utility.yul\":4167:4246   */\n  tag_120\n  tag_39\n  jump\t// in\ntag_120:\n    /* \"#utility.yul\":4126:4248   */\ntag_119:\n    /* \"#utility.yul\":4277:4283   */\n  dup2\n    /* \"#utility.yul\":4271:4284   */\n  mload\n    /* \"#utility.yul\":4302:4417   */\n  tag_121\n    /* \"#utility.yul\":4413:4416   */\n  dup5\n    /* \"#utility.yul\":4405:4411   */\n  dup3\n    /* \"#utility.yul\":4398:4402   */\n  0x20\n    /* \"#utility.yul\":4390:4396   */\n  dup7\n    /* \"#utility.yul\":4386:4403   */\n  add\n    /* \"#utility.yul\":4302:4417   */\n  tag_51\n  jump\t// in\ntag_121:\n    /* \"#utility.yul\":4293:4417   */\n  swap2\n  pop\n    /* \"#utility.yul\":4116:4423   */\n  pop\n    /* \"#utility.yul\":4018:4423   */\n  swap3\n  swap2\n  pop\n  pop\n  jump\t// out\n    /* \"#utility.yul\":4429:5003   */\ntag_3:\n    /* \"#utility.yul\":4534:4540   */\n  0x00\n    /* \"#utility.yul\":4583:4585   */\n  0x20\n    /* \"#utility.yul\":4571:4580   */\n  dup3\n    /* \"#utility.yul\":4562:4569   */\n  dup5\n    /* \"#utility.yul\":4558:4581   */\n  sub\n    /* \"#utility.yul\":4554:4586   */\n  slt\n    /* \"#utility.yul\":4551:4670   */\n  iszero\n  tag_123\n  jumpi\n    /* \"#utility.yul\":4589:4668   */\n  tag_124\n  tag_37\n  jump\t// in\ntag_124:\n    /* \"#utility.yul\":4551:4670   */\ntag_123:\n    /* \"#utility.yul\":4730:4731   */\n  0x00\n    /* \"#utility.yul\":4719:4728   */\n  dup3\n    /* \"#utility.yul\":4715:4732   */\n  add\n    /* \"#utility.yul\":4709:4733   */\n  mload\n    /* \"#utility.yul\":4760:4778   */\n  0xffffffffffffffff\n    /* \"#utility.yul\":4752:4758   */\n  dup2\n    /* \"#utility.yul\":4749:4779   */\n  gt\n    /* \"#utility.yul\":4746:4863   */\n  iszero\n  tag_125\n  jumpi\n    /* \"#utility.yul\":4782:4861   */\n  tag_126\n  tag_38\n  jump\t// in\ntag_126:\n    /* \"#utility.yul\":4746:4863   */\ntag_125:\n    /* \"#utility.yul\":4887:4986   */\n  tag_127\n    /* \"#utility.yul\":4978:4985   */\n  dup5\n    /* \"#utility.yul\":4969:4975   */\n  dup3\n    /* \"#utility.yul\":4958:4967   */\n  dup6\n    /* \"#utility.yul\":4954:4976   */\n  add\n    /* \"#utility.yul\":4887:4986   */\n  tag_52\n  jump\t// in\ntag_127:\n    /* \"#utility.yul\":4877:4986   */\n  swap2\n  pop\n    /* \"#utility.yul\":4680:4996   */\n  pop\n    /* \"#utility.yul\":4429:5003   */\n  swap3\n  swap2\n  pop\n  pop\n  jump\t// out\n    /* \"#utility.yul\":5009:5189   */\ntag_13:\n    /* \"#utility.yul\":5057:5134   */\n  0x4e487b7100000000000000000000000000000000000000000000000000000000\n    /* \"#utility.yul\":5054:5055   */\n  0x00\n    /* \"#utility.yul\":5047:5135   */\n  mstore\n    /* \"#utility.yul\":5154:5158   */\n  0x32\n    /* \"#utility.yul\":5151:5152   */\n  0x04\n    /* \"#utility.yul\":5144:5159   */\n  mstore\n    /* \"#utility.yul\":5178:5182   */\n  0x24\n    /* \"#utility.yul\":5175:5176   */\n  0x00\n    /* \"#utility.yul\":5168:5183   */\n  revert\n    /* \"#utility.yul\":5195:5294   */\ntag_53:\n    /* \"#utility.yul\":5247:5253   */\n  0x00\n    /* \"#utility.yul\":5281:5286   */\n  dup2\n    /* \"#utility.yul\":5275:5287   */\n  mload\n    /* \"#utility.yul\":5265:5287   */\n  swap1\n  pop\n    /* \"#utility.yul\":5195:5294   */\n  swap2\n  swap1\n  pop\n  jump\t// out\n    /* \"#utility.yul\":5300:5448   */\ntag_54:\n    /* \"#utility.yul\":5402:5413   */\n  0x00\n    /* \"#utility.yul\":5439:5442   */\n  dup2\n    /* \"#utility.yul\":5424:5442   */\n  swap1\n  pop\n    /* \"#utility.yul\":5300:5448   */\n  swap3\n  swap2\n  pop\n  pop\n  jump\t// out\n    /* \"#utility.yul\":5454:5844   */\ntag_55:\n    /* \"#utility.yul\":5560:5563   */\n  0x00\n    /* \"#utility.yul\":5588:5627   */\n  tag_132\n    /* \"#utility.yul\":5621:5626   */\n  dup3\n    /* \"#utility.yul\":5588:5627   */\n  tag_53\n  jump\t// in\ntag_132:\n    /* \"#utility.yul\":5643:5732   */\n  tag_133\n    /* \"#utility.yul\":5725:5731   */\n  dup2\n    /* \"#utility.yul\":5720:5723   */\n  dup6\n    /* \"#utility.yul\":5643:5732   */\n  tag_54\n  jump\t// in\ntag_133:\n    /* \"#utility.yul\":5636:5732   */\n  swap4\n  pop\n    /* \"#utility.yul\":5741:5806   */\n  tag_134\n    /* \"#utility.yul\":5799:5805   */\n  dup2\n    /* \"#utility.yul\":5794:5797   */\n  dup6\n    /* \"#utility.yul\":5787:5791   */\n  0x20\n    /* \"#utility.yul\":5780:5785   */\n  dup7\n    /* \"#utility.yul\":5776:5792   */\n  add\n    /* \"#utility.yul\":5741:5806   */\n  tag_48\n  jump\t// in\ntag_134:\n    /* \"#utility.yul\":5831:5837   */\n  dup1\n    /* \"#utility.yul\":5826:5829   */\n  dup5\n    /* \"#utility.yul\":5822:5838   */\n  add\n    /* \"#utility.yul\":5815:5838   */\n  swap2\n  pop\n    /* \"#utility.yul\":5564:5844   */\n  pop\n    /* \"#utility.yul\":5454:5844   */\n  swap3\n  swap2\n  pop\n  pop\n  jump\t// out\n    /* \"#utility.yul\":5850:6125   */\ntag_15:\n    /* \"#utility.yul\":5982:5985   */\n  0x00\n    /* \"#utility.yul\":6004:6099   */\n  tag_136\n    /* \"#utility.yul\":6095:6098   */\n  dup3\n    /* \"#utility.yul\":6086:6092   */\n  dup5\n    /* \"#utility.yul\":6004:6099   */\n  tag_55\n  jump\t// in\ntag_136:\n    /* \"#utility.yul\":5997:6099   */\n  swap2\n  pop\n    /* \"#utility.yul\":6116:6119   */\n  dup2\n    /* \"#utility.yul\":6109:6119   */\n  swap1\n  pop\n    /* \"#utility.yul\":5850:6125   */\n  swap3\n  swap2\n  pop\n  pop\n  jump\t// out\n    /* \"#utility.yul\":6131:6311   */\ntag_56:\n    /* \"#utility.yul\":6179:6256   */\n  0x4e487b7100000000000000000000000000000000000000000000000000000000\n    /* \"#utility.yul\":6176:6177   */\n  0x00\n    /* \"#utility.yul\":6169:6257   */\n  mstore\n    /* \"#utility.yul\":6276:6280   */\n  0x22\n    /* \"#utility.yul\":6273:6274   */\n  0x04\n    /* \"#utility.yul\":6266:6281   */\n  mstore\n    /* \"#utility.yul\":6300:6304   */\n  0x24\n    /* \"#utility.yul\":6297:6298   */\n  0x00\n    /* \"#utility.yul\":6290:6305   */\n  revert\n    /* \"#utility.yul\":6317:6637   */\ntag_29:\n    /* \"#utility.yul\":6361:6367   */\n  0x00\n    /* \"#utility.yul\":6398:6399   */\n  0x02\n    /* \"#utility.yul\":6392:6396   */\n  dup3\n    /* \"#utility.yul\":6388:6400   */\n  div\n    /* \"#utility.yul\":6378:6400   */\n  swap1\n  pop\n    /* \"#utility.yul\":6445:6446   */\n  0x01\n    /* \"#utility.yul\":6439:6443   */\n  dup3\n    /* \"#utility.yul\":6435:6447   */\n  and\n    /* \"#utility.yul\":6466:6484   */\n  dup1\n    /* \"#utility.yul\":6456:6537   */\n  tag_139\n  jumpi\n    /* \"#utility.yul\":6522:6526   */\n  0x7f\n    /* \"#utility.yul\":6514:6520   */\n  dup3\n    /* \"#utility.yul\":6510:6527   */\n  and\n    /* \"#utility.yul\":6500:6527   */\n  swap2\n  pop\n    /* \"#utility.yul\":6456:6537   */\ntag_139:\n    /* \"#utility.yul\":6584:6586   */\n  0x20\n    /* \"#utility.yul\":6576:6582   */\n  dup3\n    /* \"#utility.yul\":6573:6587   */\n  lt\n    /* \"#utility.yul\":6553:6571   */\n  dup2\n    /* \"#utility.yul\":6550:6588   */\n  sub\n    /* \"#utility.yul\":6547:6631   */\n  tag_140\n  jumpi\n    /* \"#utility.yul\":6603:6621   */\n  tag_141\n  tag_56\n  jump\t// in\ntag_141:\n    /* \"#utility.yul\":6547:6631   */\ntag_140:\n    /* \"#utility.yul\":6368:6637   */\n  pop\n    /* \"#utility.yul\":6317:6637   */\n  swap2\n  swap1\n  pop\n  jump\t// out\n    /* \"#utility.yul\":6643:6784   */\ntag_57:\n    /* \"#utility.yul\":6692:6696   */\n  0x00\n    /* \"#utility.yul\":6715:6718   */\n  dup2\n    /* \"#utility.yul\":6707:6718   */\n  swap1\n  pop\n    /* \"#utility.yul\":6738:6741   */\n  dup2\n    /* \"#utility.yul\":6735:6736   */\n  0x00\n    /* \"#utility.yul\":6728:6742   */\n  mstore\n    /* \"#utility.yul\":6772:6776   */\n  0x20\n    /* \"#utility.yul\":6769:6770   */\n  0x00\n    /* \"#utility.yul\":6759:6777   */\n  keccak256\n    /* \"#utility.yul\":6751:6777   */\n  swap1\n  pop\n    /* \"#utility.yul\":6643:6784   */\n  swap2\n  swap1\n  pop\n  jump\t// out\n    /* \"#utility.yul\":6790:6883   */\ntag_58:\n    /* \"#utility.yul\":6827:6833   */\n  0x00\n    /* \"#utility.yul\":6874:6876   */\n  0x20\n    /* \"#utility.yul\":6869:6871   */\n  0x1f\n    /* \"#utility.yul\":6862:6867   */\n  dup4\n    /* \"#utility.yul\":6858:6872   */\n  add\n    /* \"#utility.yul\":6854:6877   */\n  div\n    /* \"#utility.yul\":6844:6877   */\n  swap1\n  pop\n    /* \"#utility.yul\":6790:6883   */\n  swap2\n  swap1\n  pop\n  jump\t// out\n    /* \"#utility.yul\":6889:6996   */\ntag_59:\n    /* \"#utility.yul\":6933:6941   */\n  0x00\n    /* \"#utility.yul\":6983:6988   */\n  dup3\n    /* \"#utility.yul\":6977:6981   */\n  dup3\n    /* \"#utility.yul\":6973:6989   */\n  shl\n    /* \"#utility.yul\":6952:6989   */\n  swap1\n  pop\n    /* \"#utility.yul\":6889:6996   */\n  swap3\n  swap2\n  pop\n  pop\n  jump\t// out\n    /* \"#utility.yul\":7002:7395   */\ntag_60:\n    /* \"#utility.yul\":7071:7077   */\n  0x00\n    /* \"#utility.yul\":7121:7122   */\n  0x08\n    /* \"#utility.yul\":7109:7119   */\n  dup4\n    /* \"#utility.yul\":7105:7123   */\n  mul\n    /* \"#utility.yul\":7144:7241   */\n  tag_146\n    /* \"#utility.yul\":7174:7240   */\n  0xffffffffffffffffffffffffffffffffffffffffffffffffffffffffffffffff\n    /* \"#utility.yul\":7163:7172   */\n  dup3\n    /* \"#utility.yul\":7144:7241   */\n  tag_59\n  jump\t// in\ntag_146:\n    /* \"#utility.yul\":7262:7301   */\n  tag_147\n    /* \"#utility.yul\":7292:7300   */\n  dup7\n    /* \"#utility.yul\":7281:7290   */\n  dup4\n    /* \"#utility.yul\":7262:7301   */\n  tag_59\n  jump\t// in\ntag_147:\n    /* \"#utility.yul\":7250:7301   */\n  swap6\n  pop\n    /* \"#utility.yul\":7334:7338   */\n  dup1\n    /* \"#utility.yul\":7330:7339   */\n  not\n    /* \"#utility.yul\":7323:7328   */\n  dup5\n    /* \"#utility.yul\":7319:7340   */\n  and\n    /* \"#utility.yul\":7310:7340   */\n  swap4\n  pop\n    /* \"#utility.yul\":7383:7387   */\n  dup1\n    /* \"#utility.yul\":7373:7381   */\n  dup7\n    /* \"#utility.yul\":7369:7388   */\n  and\n    /* \"#utility.yul\":7362:7367   */\n  dup5\n    /* \"#utility.yul\":7359:7389   */\n  or\n    /* \"#utility.yul\":7349:7389   */\n  swap3\n  pop\n    /* \"#utility.yul\":7078:7395   */\n  pop\n  pop\n    /* \"#utility.yul\":7002:7395   */\n  swap4\n  swap3\n  pop\n  pop\n  pop\n  jump\t// out\n    /* \"#utility.yul\":7401:7478   */\ntag_61:\n    /* \"#utility.yul\":7438:7445   */\n  0x00\n    /* \"#utility.yul\":7467:7472   */\n  dup2\n    /* \"#utility.yul\":7456:7472   */\n  swap1\n  pop\n    /* \"#utility.yul\":7401:7478   */\n  swap2\n  swap1\n  pop\n  jump\t// out\n    /* \"#utility.yul\":7484:7544   */\ntag_62:\n    /* \"#utility.yul\":7512:7515   */\n  0x00\n    /* \"#utility.yul\":7533:7538   */\n  dup2\n    /* \"#utility.yul\":7526:7538   */\n  swap1\n  pop\n    /* \"#utility.yul\":7484:7544   */\n  swap2\n  swap1\n  pop\n  jump\t// out\n    /* \"#utility.yul\":7550:7692   */\ntag_63:\n    /* \"#utility.yul\":7600:7609   */\n  0x00\n    /* \"#utility.yul\":7633:7686   */\n  tag_151\n    /* \"#utility.yul\":7651:7685   */\n  tag_152\n    /* \"#utility.yul\":7660:7684   */\n  tag_153\n    /* \"#utility.yul\":7678:7683   */\n  dup5\n    /* \"#utility.yul\":7660:7684   */\n  tag_61\n  jump\t// in\ntag_153:\n    /* \"#utility.yul\":7651:7685   */\n  tag_62\n  jump\t// in\ntag_152:\n    /* \"#utility.yul\":7633:7686   */\n  tag_61\n  jump\t// in\ntag_151:\n    /* \"#utility.yul\":7620:7686   */\n  swap1\n  pop\n    /* \"#utility.yul\":7550:7692   */\n  swap2\n  swap1\n  pop\n  jump\t// out\n    /* \"#utility.yul\":7698:7773   */\ntag_64:\n    /* \"#utility.yul\":7741:7744   */\n  0x00\n    /* \"#utility.yul\":7762:7767   */\n  dup2\n    /* \"#utility.yul\":7755:7767   */\n  swap1\n  pop\n    /* \"#utility.yul\":7698:7773   */\n  swap2\n  swap1\n  pop\n  jump\t// out\n    /* \"#utility.yul\":7779:8048   */\ntag_65:\n    /* \"#utility.yul\":7889:7928   */\n  tag_156\n    /* \"#utility.yul\":7920:7927   */\n  dup4\n    /* \"#utility.yul\":7889:7928   */\n  tag_63\n  jump\t// in\ntag_156:\n    /* \"#utility.yul\":7950:8041   */\n  tag_157\n    /* \"#utility.yul\":7999:8040   */\n  tag_158\n    /* \"#utility.yul\":8023:8039   */\n  dup3\n    /* \"#utility.yul\":7999:8040   */\n  tag_64\n  jump\t// in\ntag_158:\n    /* \"#utility.yul\":7991:7997   */\n  dup5\n    /* \"#utility.yul\":7984:7988   */\n  dup5\n    /* \"#utility.yul\":7978:7989   */\n  sload\n    /* \"#utility.yul\":7950:8041   */\n  tag_60\n  jump\t// in\ntag_157:\n    /* \"#utility.yul\":7944:7948   */\n  dup3\n    /* \"#utility.yul\":7937:8042   */\n  sstore\n    /* \"#utility.yul\":7855:8048   */\n  pop\n    /* \"#utility.yul\":7779:8048   */\n  pop\n  pop\n  pop\n  jump\t// out\n    /* \"#utility.yul\":8054:8127   */\ntag_66:\n    /* \"#utility.yul\":8099:8102   */\n  0x00\n    /* \"#utility.yul\":8054:8127   */\n  swap1\n  jump\t// out\n    /* \"#utility.yul\":8133:8322   */\ntag_67:\n    /* \"#utility.yul\":8210:8242   */\n  tag_161\n  tag_66\n  jump\t// in\ntag_161:\n    /* \"#utility.yul\":8251:8316   */\n  tag_162\n    /* \"#utility.yul\":8309:8315   */\n  dup2\n    /* \"#utility.yul\":8301:8307   */\n  dup5\n    /* \"#utility.yul\":8295:8299   */\n  dup5\n    /* \"#utility.yul\":8251:8316   */\n  tag_65\n  jump\t// in\ntag_162:\n    /* \"#utility.yul\":8186:8322   */\n  pop\n    /* \"#utility.yul\":8133:8322   */\n  pop\n  pop\n  jump\t// out\n    /* \"#utility.yul\":8328:8514   */\ntag_68:\n    /* \"#utility.yul\":8388:8508   */\ntag_164:\n    /* \"#utility.yul\":8405:8408   */\n  dup2\n    /* \"#utility.yul\":8398:8403   */\n  dup2\n    /* \"#utility.yul\":8395:8409   */\n  lt\n    /* \"#utility.yul\":8388:8508   */\n  iszero\n  tag_166\n  jumpi\n    /* \"#utility.yul\":8459:8498   */\n  tag_167\n    /* \"#utility.yul\":8496:8497   */\n  0x00\n    /* \"#utility.yul\":8489:8494   */\n  dup3\n    /* \"#utility.yul\":8459:8498   */\n  tag_67\n  jump\t// in\ntag_167:\n    /* \"#utility.yul\":8432:8433   */\n  0x01\n    /* \"#utility.yul\":8425:8430   */\n  dup2\n    /* \"#utility.yul\":8421:8434   */\n  add\n    /* \"#utility.yul\":8412:8434   */\n  swap1\n  pop\n    /* \"#utility.yul\":8388:8508   */\n  jump(tag_164)\ntag_166:\n    /* \"#utility.yul\":8328:8514   */\n  pop\n  pop\n  jump\t// out\n    /* \"#utility.yul\":8520:9063   */\ntag_69:\n    /* \"#utility.yul\":8621:8623   */\n  0x1f\n    /* \"#utility.yul\":8616:8619   */\n  dup3\n    /* \"#utility.yul\":8613:8624   */\n  gt\n    /* \"#utility.yul\":8610:9056   */\n  iszero\n  tag_169\n  jumpi\n    /* \"#utility.yul\":8655:8693   */\n  tag_170\n    /* \"#utility.yul\":8687:8692   */\n  dup2\n    /* \"#utility.yul\":8655:8693   */\n  tag_57\n  jump\t// in\ntag_170:\n    /* \"#utility.yul\":8739:8768   */\n  tag_171\n    /* \"#utility.yul\":8757:8767   */\n  dup5\n    /* \"#utility.yul\":8739:8768   */\n  tag_58\n  jump\t// in\ntag_171:\n    /* \"#utility.yul\":8729:8737   */\n  dup2\n    /* \"#utility.yul\":8725:8769   */\n  add\n    /* \"#utility.yul\":8922:8924   */\n  0x20\n    /* \"#utility.yul\":8910:8920   */\n  dup6\n    /* \"#utility.yul\":8907:8925   */\n  lt\n    /* \"#utility.yul\":8904:8953   */\n  iszero\n  tag_172\n  jumpi\n    /* \"#utility.yul\":8943:8951   */\n  dup2\n    /* \"#utility.yul\":8928:8951   */\n  swap1\n  pop\n    /* \"#utility.yul\":8904:8953   */\ntag_172:\n    /* \"#utility.yul\":8966:9046   */\n  tag_173\n    /* \"#utility.yul\":9022:9044   */\n  tag_174\n    /* \"#utility.yul\":9040:9043   */\n  dup6\n    /* \"#utility.yul\":9022:9044   */\n  tag_58\n  jump\t// in\ntag_174:\n    /* \"#utility.yul\":9012:9020   */\n  dup4\n    /* \"#utility.yul\":9008:9045   */\n  add\n    /* \"#utility.yul\":8995:9006   */\n  dup3\n    /* \"#utility.yul\":8966:9046   */\n  tag_68\n  jump\t// in\ntag_173:\n    /* \"#utility.yul\":8625:9056   */\n  pop\n  pop\n    /* \"#utility.yul\":8610:9056   */\ntag_169:\n    /* \"#utility.yul\":8520:9063   */\n  pop\n  pop\n  pop\n  jump\t// out\n    /* \"#utility.yul\":9069:9186   */\ntag_70:\n    /* \"#utility.yul\":9123:9131   */\n  0x00\n    /* \"#utility.yul\":9173:9178   */\n  dup3\n    /* \"#utility.yul\":9167:9171   */\n  dup3\n    /* \"#utility.yul\":9163:9179   */\n  shr\n    /* \"#utility.yul\":9142:9179   */\n  swap1\n  pop\n    /* \"#utility.yul\":9069:9186   */\n  swap3\n  swap2\n  pop\n  pop\n  jump\t// out\n    /* \"#utility.yul\":9192:9361   */\ntag_71:\n    /* \"#utility.yul\":9236:9242   */\n  0x00\n    /* \"#utility.yul\":9269:9320   */\n  tag_177\n    /* \"#utility.yul\":9317:9318   */\n  0x00\n    /* \"#utility.yul\":9313:9319   */\n  not\n    /* \"#utility.yul\":9305:9310   */\n  dup5\n    /* \"#utility.yul\":9302:9303   */\n  0x08\n    /* \"#utility.yul\":9298:9311   */\n  mul\n    /* \"#utility.yul\":9269:9320   */\n  tag_70\n  jump\t// in\ntag_177:\n    /* \"#utility.yul\":9265:9321   */\n  not\n    /* \"#utility.yul\":9350:9354   */\n  dup1\n    /* \"#utility.yul\":9344:9348   */\n  dup4\n    /* \"#utility.yul\":9340:9355   */\n  and\n    /* \"#utility.yul\":9330:9355   */\n  swap2\n  pop\n    /* \"#utility.yul\":9243:9361   */\n  pop\n    /* \"#utility.yul\":9192:9361   */\n  swap3\n  swap2\n  pop\n  pop\n  jump\t// out\n    /* \"#utility.yul\":9366:9661   */\ntag_72:\n    /* \"#utility.yul\":9442:9446   */\n  0x00\n    /* \"#utility.yul\":9588:9617   */\n  tag_179\n    /* \"#utility.yul\":9613:9616   */\n  dup4\n    /* \"#utility.yul\":9607:9611   */\n  dup4\n    /* \"#utility.yul\":9588:9617   */\n  tag_71\n  jump\t// in\ntag_179:\n    /* \"#utility.yul\":9580:9617   */\n  swap2\n  pop\n    /* \"#utility.yul\":9650:9653   */\n  dup3\n    /* \"#utility.yul\":9647:9648   */\n  0x02\n    /* \"#utility.yul\":9643:9654   */\n  mul\n    /* \"#utility.yul\":9637:9641   */\n  dup3\n    /* \"#utility.yul\":9634:9655   */\n  or\n    /* \"#utility.yul\":9626:9655   */\n  swap1\n  pop\n    /* \"#utility.yul\":9366:9661   */\n  swap3\n  swap2\n  pop\n  pop\n  jump\t// out\n    /* \"#utility.yul\":9666:11061   */\ntag_21:\n    /* \"#utility.yul\":9783:9820   */\n  tag_181\n    /* \"#utility.yul\":9816:9819   */\n  dup3\n    /* \"#utility.yul\":9783:9820   */\n  tag_53\n  jump\t// in\ntag_181:\n    /* \"#utility.yul\":9885:9903   */\n  0xffffffffffffffff\n    /* \"#utility.yul\":9877:9883   */\n  dup2\n    /* \"#utility.yul\":9874:9904   */\n  gt\n    /* \"#utility.yul\":9871:9927   */\n  iszero\n  tag_182\n  jumpi\n    /* \"#utility.yul\":9907:9925   */\n  tag_183\n  tag_41\n  jump\t// in\ntag_183:\n    /* \"#utility.yul\":9871:9927   */\ntag_182:\n    /* \"#utility.yul\":9951:9989   */\n  tag_184\n    /* \"#utility.yul\":9983:9987   */\n  dup3\n    /* \"#utility.yul\":9977:9988   */\n  sload\n    /* \"#utility.yul\":9951:9989   */\n  tag_29\n  jump\t// in\ntag_184:\n    /* \"#utility.yul\":10036:10103   */\n  tag_185\n    /* \"#utility.yul\":10096:10102   */\n  dup3\n    /* \"#utility.yul\":10088:10094   */\n  dup3\n    /* \"#utility.yul\":10082:10086   */\n  dup6\n    /* \"#utility.yul\":10036:10103   */\n  tag_69\n  jump\t// in\ntag_185:\n    /* \"#utility.yul\":10130:10131   */\n  0x00\n    /* \"#utility.yul\":10154:10158   */\n  0x20\n    /* \"#utility.yul\":10141:10158   */\n  swap1\n  pop\n    /* \"#utility.yul\":10186:10188   */\n  0x1f\n    /* \"#utility.yul\":10178:10184   */\n  dup4\n    /* \"#utility.yul\":10175:10189   */\n  gt\n    /* \"#utility.yul\":10203:10204   */\n  0x01\n    /* \"#utility.yul\":10198:10816   */\n  dup2\n  eq\n  tag_187\n  jumpi\n    /* \"#utility.yul\":10860:10861   */\n  0x00\n    /* \"#utility.yul\":10877:10883   */\n  dup5\n    /* \"#utility.yul\":10874:10951   */\n  iszero\n  tag_188\n  jumpi\n    /* \"#utility.yul\":10926:10935   */\n  dup3\n    /* \"#utility.yul\":10921:10924   */\n  dup8\n    /* \"#utility.yul\":10917:10936   */\n  add\n    /* \"#utility.yul\":10911:10937   */\n  mload\n    /* \"#utility.yul\":10902:10937   */\n  swap1\n  pop\n    /* \"#utility.yul\":10874:10951   */\ntag_188:\n    /* \"#utility.yul\":10977:11044   */\n  tag_189\n    /* \"#utility.yul\":11037:11043   */\n  dup6\n    /* \"#utility.yul\":11030:11035   */\n  dup3\n    /* \"#utility.yul\":10977:11044   */\n  tag_72\n  jump\t// in\ntag_189:\n    /* \"#utility.yul\":10971:10975   */\n  dup7\n    /* \"#utility.yul\":10964:11045   */\n  sstore\n    /* \"#utility.yul\":10833:11055   */\n  pop\n    /* \"#utility.yul\":10168:11055   */\n  jump(tag_186)\n    /* \"#utility.yul\":10198:10816   */\ntag_187:\n    /* \"#utility.yul\":10250:10254   */\n  0x1f\n    /* \"#utility.yul\":10246:10255   */\n  not\n    /* \"#utility.yul\":10238:10244   */\n  dup5\n    /* \"#utility.yul\":10234:10256   */\n  and\n    /* \"#utility.yul\":10284:10321   */\n  tag_190\n    /* \"#utility.yul\":10316:10320   */\n  dup7\n    /* \"#utility.yul\":10284:10321   */\n  tag_57\n  jump\t// in\ntag_190:\n    /* \"#utility.yul\":10343:10344   */\n  0x00\n    /* \"#utility.yul\":10357:10565   */\ntag_191:\n    /* \"#utility.yul\":10371:10378   */\n  dup3\n    /* \"#utility.yul\":10368:10369   */\n  dup2\n    /* \"#utility.yul\":10365:10379   */\n  lt\n    /* \"#utility.yul\":10357:10565   */\n  iszero\n  tag_193\n  jumpi\n    /* \"#utility.yul\":10450:10459   */\n  dup5\n    /* \"#utility.yul\":10445:10448   */\n  dup10\n    /* \"#utility.yul\":10441:10460   */\n  add\n    /* \"#utility.yul\":10435:10461   */\n  mload\n    /* \"#utility.yul\":10427:10433   */\n  dup3\n    /* \"#utility.yul\":10420:10462   */\n  sstore\n    /* \"#utility.yul\":10501:10502   */\n  0x01\n    /* \"#utility.yul\":10493:10499   */\n  dup3\n    /* \"#utility.yul\":10489:10503   */\n  add\n    /* \"#utility.yul\":10479:10503   */\n  swap2\n  pop\n    /* \"#utility.yul\":10548:10550   */\n  0x20\n    /* \"#utility.yul\":10537:10546   */\n  dup6\n    /* \"#utility.yul\":10533:10551   */\n  add\n    /* \"#utility.yul\":10520:10551   */\n  swap5\n  pop\n    /* \"#utility.yul\":10394:10398   */\n  0x20\n    /* \"#utility.yul\":10391:10392   */\n  dup2\n    /* \"#utility.yul\":10387:10399   */\n  add\n    /* \"#utility.yul\":10382:10399   */\n  swap1\n  pop\n    /* \"#utility.yul\":10357:10565   */\n  jump(tag_191)\ntag_193:\n    /* \"#utility.yul\":10593:10599   */\n  dup7\n    /* \"#utility.yul\":10584:10591   */\n  dup4\n    /* \"#utility.yul\":10581:10600   */\n  lt\n    /* \"#utility.yul\":10578:10757   */\n  iszero\n  tag_194\n  jumpi\n    /* \"#utility.yul\":10651:10660   */\n  dup5\n    /* \"#utility.yul\":10646:10649   */\n  dup10\n    /* \"#utility.yul\":10642:10661   */\n  add\n    /* \"#utility.yul\":10636:10662   */\n  mload\n    /* \"#utility.yul\":10694:10742   */\n  tag_195\n    /* \"#utility.yul\":10736:10740   */\n  0x1f\n    /* \"#utility.yul\":10728:10734   */\n  dup10\n    /* \"#utility.yul\":10724:10741   */\n  and\n    /* \"#utility.yul\":10713:10722   */\n  dup3\n    /* \"#utility.yul\":10694:10742   */\n  tag_71\n  jump\t// in\ntag_195:\n    /* \"#utility.yul\":10686:10692   */\n  dup4\n    /* \"#utility.yul\":10679:10743   */\n  sstore\n    /* \"#utility.yul\":10601:10757   */\n  pop\n    /* \"#utility.yul\":10578:10757   */\ntag_194:\n    /* \"#utility.yul\":10803:10804   */\n  0x01\n    /* \"#utility.yul\":10799:10800   */\n  0x02\n    /* \"#utility.yul\":10791:10797   */\n  dup9\n    /* \"#utility.yul\":10787:10801   */\n  mul\n    /* \"#utility.yul\":10783:10805   */\n  add\n    /* \"#utility.yul\":10777:10781   */\n  dup9\n    /* \"#utility.yul\":10770:10806   */\n  sstore\n    /* \"#utility.yul\":10205:10816   */\n  pop\n  pop\n  pop\n    /* \"#utility.yul\":10168:11055   */\ntag_186:\n  pop\n    /* \"#utility.yul\":9758:11061   */\n  pop\n  pop\n  pop\n    /* \"#utility.yul\":9666:11061   */\n  pop\n  pop\n  jump\t// out\n    /* \"homework/voting.sol\":369:2730  contract voliting{... */\ntag_16:\n  dataSize(sub_0)\n  dup1\n  dataOffset(sub_0)\n  0x00\n  codecopy\n  0x00\n  return\nstop\n\nsub_0: assembly {\n        /* \"homework/voting.sol\":369:2730  contract voliting{... */\n      mstore(0x40, 0x80)\n      callvalue\n      dup1\n      iszero\n      tag_1\n      jumpi\n      0x00\n      dup1\n      revert\n    tag_1:\n      pop\n      jumpi(tag_2, lt(calldatasize, 0x04))\n      shr(0xe0, calldataload(0x00))\n      dup1\n      0x2e6997fe\n      eq\n      tag_3\n      jumpi\n      dup1\n      0x805265e5\n      eq\n      tag_4\n      jumpi\n      dup1\n      0x8da5cb5b\n      eq\n      tag_5\n      jumpi\n      dup1\n      0xb9830ff1\n      eq\n      tag_6\n      jumpi\n      dup1\n      0xfc36e15b\n      eq\n      tag_7\n      jumpi\n    tag_2:\n      0x00\n      dup1\n      revert\n        /* \"homework/voting.sol\":2628:2728  function getAllCandidates() public view returns (string[] memory) {... */\n    tag_3:\n      tag_8\n      tag_9\n      jump\t// in\n    tag_8:\n      mload(0x40)\n      tag_10\n      swap2\n      swap1\n      tag_11\n      jump\t// in\n    tag_10:\n      mload(0x40)\n      dup1\n      swap2\n      sub\n      swap1\n      return\n        /* \"homework/voting.sol\":1573:1802  function getVotes(string memory candidate) public view returns (uint256) {... */\n    tag_4:\n      tag_12\n      0x04\n      dup1\n      calldatasize\n      sub\n      dup2\n      add\n      swap1\n      tag_13\n      swap2\n      swap1\n      tag_14\n      jump\t// in\n    tag_13:\n      tag_15\n      jump\t// in\n    tag_12:\n      mload(0x40)\n      tag_16\n      swap2\n      swap1\n      tag_17\n      jump\t// in\n    tag_16:\n      mload(0x40)\n      dup1\n      swap2\n      sub\n      swap1\n      return\n        /* \"homework/voting.sol\":585:605  address public owner */\n    tag_5:\n      tag_18\n      tag_19\n      jump\t// in\n    tag_18:\n      mload(0x40)\n      tag_20\n      swap2\n      swap1\n      tag_21\n      jump\t// in\n    tag_20:\n      mload(0x40)\n      dup1\n      swap2\n      sub\n      swap1\n      return\n        /* \"homework/voting.sol\":1867:2167  function resetVotes() public {... */\n    tag_6:\n      tag_22\n      tag_23\n      jump\t// in\n    tag_22:\n      stop\n        /* \"homework/voting.sol\":1208:1436  function vote(string memory candidate) public {... */\n    tag_7:\n      tag_24\n      0x04\n      dup1\n      calldatasize\n      sub\n      dup2\n      add\n      swap1\n      tag_25\n      swap2\n      swap1\n      tag_14\n      jump\t// in\n    tag_25:\n      tag_26\n      jump\t// in\n    tag_24:\n      stop\n        /* \"homework/voting.sol\":2628:2728  function getAllCandidates() public view returns (string[] memory) {... */\n    tag_9:\n        /* \"homework/voting.sol\":2677:2692  string[] memory */\n      0x60\n        /* \"homework/voting.sol\":2711:2721  candidates */\n      0x01\n        /* \"homework/voting.sol\":2704:2721  return candidates */\n      dup1\n      sload\n      dup1\n      0x20\n      mul\n      0x20\n      add\n      mload(0x40)\n      swap1\n      dup2\n      add\n      0x40\n      mstore\n      dup1\n      swap3\n      swap2\n      swap1\n      dup2\n      dup2\n      mstore\n      0x20\n      add\n      0x00\n      swap1\n    tag_28:\n      dup3\n      dup3\n      lt\n      iszero\n      tag_29\n      jumpi\n      dup4\n      dup3\n      swap1\n      0x00\n      mstore\n      keccak256(0x00, 0x20)\n      add\n      dup1\n      sload\n      tag_31\n      swap1\n      tag_32\n      jump\t// in\n    tag_31:\n      dup1\n      0x1f\n      add\n      0x20\n      dup1\n      swap2\n      div\n      mul\n      0x20\n      add\n      mload(0x40)\n      swap1\n      dup2\n      add\n      0x40\n      mstore\n      dup1\n      swap3\n      swap2\n      swap1\n      dup2\n      dup2\n      mstore\n      0x20\n      add\n      dup3\n      dup1\n      sload\n      tag_33\n      swap1\n      tag_32\n      jump\t// in\n    tag_33:\n      dup1\n      iszero\n      tag_34\n      jumpi\n      dup1\n      0x1f\n      lt\n      tag_35\n      jumpi\n      0x0100\n      dup1\n      dup4\n      sload\n      div\n      mul\n      dup4\n      mstore\n      swap2\n      0x20\n      add\n      swap2\n      jump(tag_34)\n    tag_35:\n      dup3\n      add\n      swap2\n      swap1\n      0x00\n      mstore\n      keccak256(0x00, 0x20)\n      swap1\n    tag_36:\n      dup2\n      sload\n      dup2\n      mstore\n      swap1\n      0x01\n      add\n      swap1\n      0x20\n      add\n      dup1\n      dup4\n      gt\n      tag_36\n      jumpi\n      dup3\n      swap1\n      sub\n      0x1f\n      and\n      dup3\n      add\n      swap2\n    tag_34:\n      pop\n      pop\n      pop\n      pop\n      pop\n      dup2\n      mstore\n      0x20\n      add\n      swap1\n      0x01\n      add\n      swap1\n      jump(tag_28)\n    tag_29:\n      pop\n      pop\n      pop\n      pop\n      swap1\n      pop\n        /* \"homework/voting.sol\":2628:2728  function getAllCandidates() public view returns (string[] memory) {... */\n      swap1\n      jump\t// out\n        /* \"homework/voting.sol\":1573:1802  function getVotes(string memory candidate) public view returns (uint256) {... */\n    tag_15:\n        /* \"homework/voting.sol\":1637:1644  uint256 */\n      0x00\n        /* \"homework/voting.sol\":1664:1689  validCandidate(candidate) */\n      tag_38\n        /* \"homework/voting.sol\":1679:1688  candidate */\n      dup3\n        /* \"homework/voting.sol\":1664:1678  validCandidate */\n      tag_39\n        /* \"homework/voting.sol\":1664:1689  validCandidate(candidate) */\n      jump\t// in\n    tag_38:\n        /* \"homework/voting.sol\":1656:1711  require(validCandidate(candidate), \"Invalid candidate\") */\n      tag_40\n      jumpi\n      mload(0x40)\n      0x08c379a000000000000000000000000000000000000000000000000000000000\n      dup2\n      mstore\n      0x04\n      add\n      tag_41\n      swap1\n      tag_42\n      jump\t// in\n    tag_41:\n      mload(0x40)\n      dup1\n      swap2\n      sub\n      swap1\n      revert\n    tag_40:\n        /* \"homework/voting.sol\":1779:1784  votes */\n      0x00\n        /* \"homework/voting.sol\":1785:1794  candidate */\n      dup3\n        /* \"homework/voting.sol\":1779:1795  votes[candidate] */\n      mload(0x40)\n      tag_43\n      swap2\n      swap1\n      tag_44\n      jump\t// in\n    tag_43:\n      swap1\n      dup2\n      mstore\n      0x20\n      add\n      mload(0x40)\n      dup1\n      swap2\n      sub\n      swap1\n      keccak256\n      sload\n        /* \"homework/voting.sol\":1772:1795  return votes[candidate] */\n      swap1\n      pop\n        /* \"homework/voting.sol\":1573:1802  function getVotes(string memory candidate) public view returns (uint256) {... */\n      swap2\n      swap1\n      pop\n      jump\t// out\n        /* \"homework/voting.sol\":585:605  address public owner */\n    tag_19:\n      0x02\n      0x00\n      swap1\n      sload\n      swap1\n      0x0100\n      exp\n      swap1\n      div\n      0xffffffffffffffffffffffffffffffffffffffff\n      and\n      dup2\n      jump\t// out\n        /* \"homework/voting.sol\":1867:2167  function resetVotes() public {... */\n    tag_23:\n        /* \"homework/voting.sol\":1928:1933  owner */\n      0x02\n      0x00\n      swap1\n      sload\n      swap1\n      0x0100\n      exp\n      swap1\n      div\n      0xffffffffffffffffffffffffffffffffffffffff\n      and\n        /* \"homework/voting.sol\":1914:1933  msg.sender == owner */\n      0xffffffffffffffffffffffffffffffffffffffff\n      and\n        /* \"homework/voting.sol\":1914:1924  msg.sender */\n      caller\n        /* \"homework/voting.sol\":1914:1933  msg.sender == owner */\n      0xffffffffffffffffffffffffffffffffffffffff\n      and\n      eq\n        /* \"homework/voting.sol\":1906:1964  require(msg.sender == owner, \"Only owner can reset votes\") */\n      tag_46\n      jumpi\n      mload(0x40)\n      0x08c379a000000000000000000000000000000000000000000000000000000000\n      dup2\n      mstore\n      0x04\n      add\n      tag_47\n      swap1\n      tag_48\n      jump\t// in\n    tag_47:\n      mload(0x40)\n      dup1\n      swap2\n      sub\n      swap1\n      revert\n    tag_46:\n        /* \"homework/voting.sol\":2072:2078  uint i */\n      0x00\n        /* \"homework/voting.sol\":2067:2161  for (uint i = 0; i < candidates.length; i++) {... */\n    tag_49:\n        /* \"homework/voting.sol\":2088:2098  candidates */\n      0x01\n        /* \"homework/voting.sol\":2088:2105  candidates.length */\n      dup1\n      sload\n      swap1\n      pop\n        /* \"homework/voting.sol\":2084:2085  i */\n      dup2\n        /* \"homework/voting.sol\":2084:2105  i < candidates.length */\n      lt\n        /* \"homework/voting.sol\":2067:2161  for (uint i = 0; i < candidates.length; i++) {... */\n      iszero\n      tag_50\n      jumpi\n        /* \"homework/voting.sol\":2149:2150  0 */\n      0x00\n        /* \"homework/voting.sol\":2126:2131  votes */\n      dup1\n        /* \"homework/voting.sol\":2132:2142  candidates */\n      0x01\n        /* \"homework/voting.sol\":2143:2144  i */\n      dup4\n        /* \"homework/voting.sol\":2132:2145  candidates[i] */\n      dup2\n      sload\n      dup2\n      lt\n      tag_52\n      jumpi\n      tag_53\n      tag_54\n      jump\t// in\n    tag_53:\n    tag_52:\n      swap1\n      0x00\n      mstore\n      keccak256(0x00, 0x20)\n      add\n        /* \"homework/voting.sol\":2126:2146  votes[candidates[i]] */\n      mload(0x40)\n      tag_56\n      swap2\n      swap1\n      tag_57\n      jump\t// in\n    tag_56:\n      swap1\n      dup2\n      mstore\n      0x20\n      add\n      mload(0x40)\n      dup1\n      swap2\n      sub\n      swap1\n      keccak256\n        /* \"homework/voting.sol\":2126:2150  votes[candidates[i]] = 0 */\n      dup2\n      swap1\n      sstore\n      pop\n        /* \"homework/voting.sol\":2107:2110  i++ */\n      dup1\n      dup1\n      0x01\n      add\n      swap2\n      pop\n      pop\n        /* \"homework/voting.sol\":2067:2161  for (uint i = 0; i < candidates.length; i++) {... */\n      jump(tag_49)\n    tag_50:\n      pop\n        /* \"homework/voting.sol\":1867:2167  function resetVotes() public {... */\n      jump\t// out\n        /* \"homework/voting.sol\":1208:1436  function vote(string memory candidate) public {... */\n    tag_26:\n        /* \"homework/voting.sol\":1272:1297  validCandidate(candidate) */\n      tag_59\n        /* \"homework/voting.sol\":1287:1296  candidate */\n      dup2\n        /* \"homework/voting.sol\":1272:1286  validCandidate */\n      tag_39\n        /* \"homework/voting.sol\":1272:1297  validCandidate(candidate) */\n      jump\t// in\n    tag_59:\n        /* \"homework/voting.sol\":1264:1319  require(validCandidate(candidate), \"Invalid candidate\") */\n      tag_60\n      jumpi\n      mload(0x40)\n      0x08c379a000000000000000000000000000000000000000000000000000000000\n      dup2\n      mstore\n      0x04\n      add\n      tag_61\n      swap1\n      tag_42\n      jump\t// in\n    tag_61:\n      mload(0x40)\n      dup1\n      swap2\n      sub\n      swap1\n      revert\n    tag_60:\n        /* \"homework/voting.sol\":1411:1416  votes */\n      0x00\n        /* \"homework/voting.sol\":1417:1426  candidate */\n      dup2\n        /* \"homework/voting.sol\":1411:1427  votes[candidate] */\n      mload(0x40)\n      tag_62\n      swap2\n      swap1\n      tag_44\n      jump\t// in\n    tag_62:\n      swap1\n      dup2\n      mstore\n      0x20\n      add\n      mload(0x40)\n      dup1\n      swap2\n      sub\n      swap1\n      keccak256\n      0x00\n        /* \"homework/voting.sol\":1411:1429  votes[candidate]++ */\n      dup2\n      sload\n      dup1\n      swap3\n      swap2\n      swap1\n      tag_63\n      swap1\n      tag_64\n      jump\t// in\n    tag_63:\n      swap2\n      swap1\n      pop\n      sstore\n      pop\n        /* \"homework/voting.sol\":1208:1436  function vote(string memory candidate) public {... */\n      pop\n      jump\t// out\n        /* \"homework/voting.sol\":2282:2569  function validCandidate(string memory name) internal view returns (bool) {... */\n    tag_39:\n        /* \"homework/voting.sol\":2349:2353  bool */\n      0x00\n        /* \"homework/voting.sol\":2370:2376  uint i */\n      dup1\n        /* \"homework/voting.sol\":2379:2380  0 */\n      0x00\n        /* \"homework/voting.sol\":2370:2380  uint i = 0 */\n      swap1\n      pop\n        /* \"homework/voting.sol\":2365:2541  for (uint i = 0; i < candidates.length; i++) {... */\n    tag_66:\n        /* \"homework/voting.sol\":2386:2396  candidates */\n      0x01\n        /* \"homework/voting.sol\":2386:2403  candidates.length */\n      dup1\n      sload\n      swap1\n      pop\n        /* \"homework/voting.sol\":2382:2383  i */\n      dup2\n        /* \"homework/voting.sol\":2382:2403  i < candidates.length */\n      lt\n        /* \"homework/voting.sol\":2365:2541  for (uint i = 0; i < candidates.length; i++) {... */\n      iszero\n      tag_67\n      jumpi\n        /* \"homework/voting.sol\":2479:2483  name */\n      dup3\n        /* \"homework/voting.sol\":2463:2485  keccak256(bytes(name)) */\n      dup1\n      mload\n      swap1\n      0x20\n      add\n      keccak256\n        /* \"homework/voting.sol\":2444:2454  candidates */\n      0x01\n        /* \"homework/voting.sol\":2455:2456  i */\n      dup3\n        /* \"homework/voting.sol\":2444:2457  candidates[i] */\n      dup2\n      sload\n      dup2\n      lt\n      tag_69\n      jumpi\n      tag_70\n      tag_54\n      jump\t// in\n    tag_70:\n    tag_69:\n      swap1\n      0x00\n      mstore\n      keccak256(0x00, 0x20)\n      add\n        /* \"homework/voting.sol\":2428:2459  keccak256(bytes(candidates[i])) */\n      mload(0x40)\n      tag_72\n      swap2\n      swap1\n      tag_73\n      jump\t// in\n    tag_72:\n      mload(0x40)\n      dup1\n      swap2\n      sub\n      swap1\n      keccak256\n        /* \"homework/voting.sol\":2428:2485  keccak256(bytes(candidates[i])) == keccak256(bytes(name)) */\n      sub\n        /* \"homework/voting.sol\":2424:2531  if (keccak256(bytes(candidates[i])) == keccak256(bytes(name))) {... */\n      tag_74\n      jumpi\n        /* \"homework/voting.sol\":2512:2516  true */\n      0x01\n        /* \"homework/voting.sol\":2505:2516  return true */\n      swap2\n      pop\n      pop\n      jump(tag_65)\n        /* \"homework/voting.sol\":2424:2531  if (keccak256(bytes(candidates[i])) == keccak256(bytes(name))) {... */\n    tag_74:\n        /* \"homework/voting.sol\":2405:2408  i++ */\n      dup1\n      dup1\n      0x01\n      add\n      swap2\n      pop\n      pop\n        /* \"homework/voting.sol\":2365:2541  for (uint i = 0; i < candidates.length; i++) {... */\n      jump(tag_66)\n    tag_67:\n      pop\n        /* \"homework/voting.sol\":2557:2562  false */\n      0x00\n        /* \"homework/voting.sol\":2550:2562  return false */\n      swap1\n      pop\n        /* \"homework/voting.sol\":2282:2569  function validCandidate(string memory name) internal view returns (bool) {... */\n    tag_65:\n      swap2\n      swap1\n      pop\n      jump\t// out\n        /* \"#utility.yul\":7:131   */\n    tag_75:\n        /* \"#utility.yul\":84:90   */\n      0x00\n        /* \"#utility.yul\":118:123   */\n      dup2\n        /* \"#utility.yul\":112:124   */\n      mload\n        /* \"#utility.yul\":102:124   */\n      swap1\n      pop\n        /* \"#utility.yul\":7:131   */\n      swap2\n      swap1\n      pop\n      jump\t// out\n        /* \"#utility.yul\":137:331   */\n    tag_76:\n        /* \"#utility.yul\":246:257   */\n      0x00\n        /* \"#utility.yul\":280:286   */\n      dup3\n        /* \"#utility.yul\":275:278   */\n      dup3\n        /* \"#utility.yul\":268:287   */\n      mstore\n        /* \"#utility.yul\":320:324   */\n      0x20\n        /* \"#utility.yul\":315:318   */\n      dup3\n        /* \"#utility.yul\":311:325   */\n      add\n        /* \"#utility.yul\":296:325   */\n      swap1\n      pop\n        /* \"#utility.yul\":137:331   */\n      swap3\n      swap2\n      pop\n      pop\n      jump\t// out\n        /* \"#utility.yul\":337:479   */\n    tag_77:\n        /* \"#utility.yul\":414:418   */\n      0x00\n        /* \"#utility.yul\":437:440   */\n      dup2\n        /* \"#utility.yul\":429:440   */\n      swap1\n      pop\n        /* \"#utility.yul\":467:471   */\n      0x20\n        /* \"#utility.yul\":462:465   */\n      dup3\n        /* \"#utility.yul\":458:472   */\n      add\n        /* \"#utility.yul\":450:472   */\n      swap1\n      pop\n        /* \"#utility.yul\":337:479   */\n      swap2\n      swap1\n      pop\n      jump\t// out\n        /* \"#utility.yul\":485:584   */\n    tag_78:\n        /* \"#utility.yul\":537:543   */\n      0x00\n        /* \"#utility.yul\":571:576   */\n      dup2\n        /* \"#utility.yul\":565:577   */\n      mload\n        /* \"#utility.yul\":555:577   */\n      swap1\n      pop\n        /* \"#utility.yul\":485:584   */\n      swap2\n      swap1\n      pop\n      jump\t// out\n        /* \"#utility.yul\":590:749   */\n    tag_79:\n        /* \"#utility.yul\":664:675   */\n      0x00\n        /* \"#utility.yul\":698:704   */\n      dup3\n        /* \"#utility.yul\":693:696   */\n      dup3\n        /* \"#utility.yul\":686:705   */\n      mstore\n        /* \"#utility.yul\":738:742   */\n      0x20\n        /* \"#utility.yul\":733:736   */\n      dup3\n        /* \"#utility.yul\":729:743   */\n      add\n        /* \"#utility.yul\":714:743   */\n      swap1\n      pop\n        /* \"#utility.yul\":590:749   */\n      swap3\n      swap2\n      pop\n      pop\n      jump\t// out\n        /* \"#utility.yul\":755:894   */\n    tag_80:\n        /* \"#utility.yul\":844:850   */\n      dup3\n        /* \"#utility.yul\":839:842   */\n      dup2\n        /* \"#utility.yul\":834:837   */\n      dup4\n        /* \"#utility.yul\":828:851   */\n      mcopy\n        /* \"#utility.yul\":885:886   */\n      0x00\n        /* \"#utility.yul\":876:882   */\n      dup4\n        /* \"#utility.yul\":871:874   */\n      dup4\n        /* \"#utility.yul\":867:883   */\n      add\n        /* \"#utility.yul\":860:887   */\n      mstore\n        /* \"#utility.yul\":755:894   */\n      pop\n      pop\n      pop\n      jump\t// out\n        /* \"#utility.yul\":900:1002   */\n    tag_81:\n        /* \"#utility.yul\":941:947   */\n      0x00\n        /* \"#utility.yul\":992:994   */\n      0x1f\n        /* \"#utility.yul\":988:995   */\n      not\n        /* \"#utility.yul\":983:985   */\n      0x1f\n        /* \"#utility.yul\":976:981   */\n      dup4\n        /* \"#utility.yul\":972:986   */\n      add\n        /* \"#utility.yul\":968:996   */\n      and\n        /* \"#utility.yul\":958:996   */\n      swap1\n      pop\n        /* \"#utility.yul\":900:1002   */\n      swap2\n      swap1\n      pop\n      jump\t// out\n        /* \"#utility.yul\":1008:1365   */\n    tag_82:\n        /* \"#utility.yul\":1086:1089   */\n      0x00\n        /* \"#utility.yul\":1114:1153   */\n      tag_126\n        /* \"#utility.yul\":1147:1152   */\n      dup3\n        /* \"#utility.yul\":1114:1153   */\n      tag_78\n      jump\t// in\n    tag_126:\n        /* \"#utility.yul\":1169:1230   */\n      tag_127\n        /* \"#utility.yul\":1223:1229   */\n      dup2\n        /* \"#utility.yul\":1218:1221   */\n      dup6\n        /* \"#utility.yul\":1169:1230   */\n      tag_79\n      jump\t// in\n    tag_127:\n        /* \"#utility.yul\":1162:1230   */\n      swap4\n      pop\n        /* \"#utility.yul\":1239:1304   */\n      tag_128\n        /* \"#utility.yul\":1297:1303   */\n      dup2\n        /* \"#utility.yul\":1292:1295   */\n      dup6\n        /* \"#utility.yul\":1285:1289   */\n      0x20\n        /* \"#utility.yul\":1278:1283   */\n      dup7\n        /* \"#utility.yul\":1274:1290   */\n      add\n        /* \"#utility.yul\":1239:1304   */\n      tag_80\n      jump\t// in\n    tag_128:\n        /* \"#utility.yul\":1329:1358   */\n      tag_129\n        /* \"#utility.yul\":1351:1357   */\n      dup2\n        /* \"#utility.yul\":1329:1358   */\n      tag_81\n      jump\t// in\n    tag_129:\n        /* \"#utility.yul\":1324:1327   */\n      dup5\n        /* \"#utility.yul\":1320:1359   */\n      add\n        /* \"#utility.yul\":1313:1359   */\n      swap2\n      pop\n        /* \"#utility.yul\":1090:1365   */\n      pop\n        /* \"#utility.yul\":1008:1365   */\n      swap3\n      swap2\n      pop\n      pop\n      jump\t// out\n        /* \"#utility.yul\":1371:1567   */\n    tag_83:\n        /* \"#utility.yul\":1460:1470   */\n      0x00\n        /* \"#utility.yul\":1495:1561   */\n      tag_131\n        /* \"#utility.yul\":1557:1560   */\n      dup4\n        /* \"#utility.yul\":1549:1555   */\n      dup4\n        /* \"#utility.yul\":1495:1561   */\n      tag_82\n      jump\t// in\n    tag_131:\n        /* \"#utility.yul\":1481:1561   */\n      swap1\n      pop\n        /* \"#utility.yul\":1371:1567   */\n      swap3\n      swap2\n      pop\n      pop\n      jump\t// out\n        /* \"#utility.yul\":1573:1696   */\n    tag_84:\n        /* \"#utility.yul\":1653:1657   */\n      0x00\n        /* \"#utility.yul\":1685:1689   */\n      0x20\n        /* \"#utility.yul\":1680:1683   */\n      dup3\n        /* \"#utility.yul\":1676:1690   */\n      add\n        /* \"#utility.yul\":1668:1690   */\n      swap1\n      pop\n        /* \"#utility.yul\":1573:1696   */\n      swap2\n      swap1\n      pop\n      jump\t// out\n        /* \"#utility.yul\":1730:2721   */\n    tag_85:\n        /* \"#utility.yul\":1869:1872   */\n      0x00\n        /* \"#utility.yul\":1898:1962   */\n      tag_134\n        /* \"#utility.yul\":1956:1961   */\n      dup3\n        /* \"#utility.yul\":1898:1962   */\n      tag_75\n      jump\t// in\n    tag_134:\n        /* \"#utility.yul\":1978:2074   */\n      tag_135\n        /* \"#utility.yul\":2067:2073   */\n      dup2\n        /* \"#utility.yul\":2062:2065   */\n      dup6\n        /* \"#utility.yul\":1978:2074   */\n      tag_76\n      jump\t// in\n    tag_135:\n        /* \"#utility.yul\":1971:2074   */\n      swap4\n      pop\n        /* \"#utility.yul\":2100:2103   */\n      dup4\n        /* \"#utility.yul\":2145:2149   */\n      0x20\n        /* \"#utility.yul\":2137:2143   */\n      dup3\n        /* \"#utility.yul\":2133:2150   */\n      mul\n        /* \"#utility.yul\":2128:2131   */\n      dup6\n        /* \"#utility.yul\":2124:2151   */\n      add\n        /* \"#utility.yul\":2175:2241   */\n      tag_136\n        /* \"#utility.yul\":2235:2240   */\n      dup6\n        /* \"#utility.yul\":2175:2241   */\n      tag_77\n      jump\t// in\n    tag_136:\n        /* \"#utility.yul\":2264:2271   */\n      dup1\n        /* \"#utility.yul\":2295:2296   */\n      0x00\n        /* \"#utility.yul\":2280:2676   */\n    tag_137:\n        /* \"#utility.yul\":2305:2311   */\n      dup6\n        /* \"#utility.yul\":2302:2303   */\n      dup2\n        /* \"#utility.yul\":2299:2312   */\n      lt\n        /* \"#utility.yul\":2280:2676   */\n      iszero\n      tag_139\n      jumpi\n        /* \"#utility.yul\":2376:2385   */\n      dup5\n        /* \"#utility.yul\":2370:2374   */\n      dup5\n        /* \"#utility.yul\":2366:2386   */\n      sub\n        /* \"#utility.yul\":2361:2364   */\n      dup10\n        /* \"#utility.yul\":2354:2387   */\n      mstore\n        /* \"#utility.yul\":2427:2433   */\n      dup2\n        /* \"#utility.yul\":2421:2434   */\n      mload\n        /* \"#utility.yul\":2455:2539   */\n      tag_140\n        /* \"#utility.yul\":2534:2538   */\n      dup6\n        /* \"#utility.yul\":2519:2532   */\n      dup3\n        /* \"#utility.yul\":2455:2539   */\n      tag_83\n      jump\t// in\n    tag_140:\n        /* \"#utility.yul\":2447:2539   */\n      swap5\n      pop\n        /* \"#utility.yul\":2562:2632   */\n      tag_141\n        /* \"#utility.yul\":2625:2631   */\n      dup4\n        /* \"#utility.yul\":2562:2632   */\n      tag_84\n      jump\t// in\n    tag_141:\n        /* \"#utility.yul\":2552:2632   */\n      swap3\n      pop\n        /* \"#utility.yul\":2661:2665   */\n      0x20\n        /* \"#utility.yul\":2656:2659   */\n      dup11\n        /* \"#utility.yul\":2652:2666   */\n      add\n        /* \"#utility.yul\":2645:2666   */\n      swap10\n      pop\n        /* \"#utility.yul\":2340:2676   */\n      pop\n        /* \"#utility.yul\":2327:2328   */\n      0x01\n        /* \"#utility.yul\":2324:2325   */\n      dup2\n        /* \"#utility.yul\":2320:2329   */\n      add\n        /* \"#utility.yul\":2315:2329   */\n      swap1\n      pop\n        /* \"#utility.yul\":2280:2676   */\n      jump(tag_137)\n    tag_139:\n        /* \"#utility.yul\":2284:2298   */\n      pop\n        /* \"#utility.yul\":2692:2696   */\n      dup3\n        /* \"#utility.yul\":2685:2696   */\n      swap8\n      pop\n        /* \"#utility.yul\":2712:2715   */\n      dup8\n        /* \"#utility.yul\":2705:2715   */\n      swap6\n      pop\n        /* \"#utility.yul\":1874:2721   */\n      pop\n      pop\n      pop\n      pop\n      pop\n        /* \"#utility.yul\":1730:2721   */\n      swap3\n      swap2\n      pop\n      pop\n      jump\t// out\n        /* \"#utility.yul\":2727:3140   */\n    tag_11:\n        /* \"#utility.yul\":2890:2894   */\n      0x00\n        /* \"#utility.yul\":2928:2930   */\n      0x20\n        /* \"#utility.yul\":2917:2926   */\n      dup3\n        /* \"#utility.yul\":2913:2931   */\n      add\n        /* \"#utility.yul\":2905:2931   */\n      swap1\n      pop\n        /* \"#utility.yul\":2977:2986   */\n      dup2\n        /* \"#utility.yul\":2971:2975   */\n      dup2\n        /* \"#utility.yul\":2967:2987   */\n      sub\n        /* \"#utility.yul\":2963:2964   */\n      0x00\n        /* \"#utility.yul\":2952:2961   */\n      dup4\n        /* \"#utility.yul\":2948:2965   */\n      add\n        /* \"#utility.yul\":2941:2988   */\n      mstore\n        /* \"#utility.yul\":3005:3133   */\n      tag_143\n        /* \"#utility.yul\":3128:3132   */\n      dup2\n        /* \"#utility.yul\":3119:3125   */\n      dup5\n        /* \"#utility.yul\":3005:3133   */\n      tag_85\n      jump\t// in\n    tag_143:\n        /* \"#utility.yul\":2997:3133   */\n      swap1\n      pop\n        /* \"#utility.yul\":2727:3140   */\n      swap3\n      swap2\n      pop\n      pop\n      jump\t// out\n        /* \"#utility.yul\":3146:3221   */\n    tag_86:\n        /* \"#utility.yul\":3179:3185   */\n      0x00\n        /* \"#utility.yul\":3212:3214   */\n      0x40\n        /* \"#utility.yul\":3206:3215   */\n      mload\n        /* \"#utility.yul\":3196:3215   */\n      swap1\n      pop\n        /* \"#utility.yul\":3146:3221   */\n      swap1\n      jump\t// out\n        /* \"#utility.yul\":3227:3344   */\n    tag_87:\n        /* \"#utility.yul\":3336:3337   */\n      0x00\n        /* \"#utility.yul\":3333:3334   */\n      dup1\n        /* \"#utility.yul\":3326:3338   */\n      revert\n        /* \"#utility.yul\":3350:3467   */\n    tag_88:\n        /* \"#utility.yul\":3459:3460   */\n      0x00\n        /* \"#utility.yul\":3456:3457   */\n      dup1\n        /* \"#utility.yul\":3449:3461   */\n      revert\n        /* \"#utility.yul\":3473:3590   */\n    tag_89:\n        /* \"#utility.yul\":3582:3583   */\n      0x00\n        /* \"#utility.yul\":3579:3580   */\n      dup1\n        /* \"#utility.yul\":3572:3584   */\n      revert\n        /* \"#utility.yul\":3596:3713   */\n    tag_90:\n        /* \"#utility.yul\":3705:3706   */\n      0x00\n        /* \"#utility.yul\":3702:3703   */\n      dup1\n        /* \"#utility.yul\":3695:3707   */\n      revert\n        /* \"#utility.yul\":3719:3899   */\n    tag_91:\n        /* \"#utility.yul\":3767:3844   */\n      0x4e487b7100000000000000000000000000000000000000000000000000000000\n        /* \"#utility.yul\":3764:3765   */\n      0x00\n        /* \"#utility.yul\":3757:3845   */\n      mstore\n        /* \"#utility.yul\":3864:3868   */\n      0x41\n        /* \"#utility.yul\":3861:3862   */\n      0x04\n        /* \"#utility.yul\":3854:3869   */\n      mstore\n        /* \"#utility.yul\":3888:3892   */\n      0x24\n        /* \"#utility.yul\":3885:3886   */\n      0x00\n        /* \"#utility.yul\":3878:3893   */\n      revert\n        /* \"#utility.yul\":3905:4186   */\n    tag_92:\n        /* \"#utility.yul\":3988:4015   */\n      tag_151\n        /* \"#utility.yul\":4010:4014   */\n      dup3\n        /* \"#utility.yul\":3988:4015   */\n      tag_81\n      jump\t// in\n    tag_151:\n        /* \"#utility.yul\":3980:3986   */\n      dup2\n        /* \"#utility.yul\":3976:4016   */\n      add\n        /* \"#utility.yul\":4118:4124   */\n      dup2\n        /* \"#utility.yul\":4106:4116   */\n      dup2\n        /* \"#utility.yul\":4103:4125   */\n      lt\n        /* \"#utility.yul\":4082:4100   */\n      0xffffffffffffffff\n        /* \"#utility.yul\":4070:4080   */\n      dup3\n        /* \"#utility.yul\":4067:4101   */\n      gt\n        /* \"#utility.yul\":4064:4126   */\n      or\n        /* \"#utility.yul\":4061:4149   */\n      iszero\n      tag_152\n      jumpi\n        /* \"#utility.yul\":4129:4147   */\n      tag_153\n      tag_91\n      jump\t// in\n    tag_153:\n        /* \"#utility.yul\":4061:4149   */\n    tag_152:\n        /* \"#utility.yul\":4169:4179   */\n      dup1\n        /* \"#utility.yul\":4165:4167   */\n      0x40\n        /* \"#utility.yul\":4158:4180   */\n      mstore\n        /* \"#utility.yul\":3948:4186   */\n      pop\n        /* \"#utility.yul\":3905:4186   */\n      pop\n      pop\n      jump\t// out\n        /* \"#utility.yul\":4192:4321   */\n    tag_93:\n        /* \"#utility.yul\":4226:4232   */\n      0x00\n        /* \"#utility.yul\":4253:4273   */\n      tag_155\n      tag_86\n      jump\t// in\n    tag_155:\n        /* \"#utility.yul\":4243:4273   */\n      swap1\n      pop\n        /* \"#utility.yul\":4282:4315   */\n      tag_156\n        /* \"#utility.yul\":4310:4314   */\n      dup3\n        /* \"#utility.yul\":4302:4308   */\n      dup3\n        /* \"#utility.yul\":4282:4315   */\n      tag_92\n      jump\t// in\n    tag_156:\n        /* \"#utility.yul\":4192:4321   */\n      swap2\n      swap1\n      pop\n      jump\t// out\n        /* \"#utility.yul\":4327:4635   */\n    tag_94:\n        /* \"#utility.yul\":4389:4393   */\n      0x00\n        /* \"#utility.yul\":4479:4497   */\n      0xffffffffffffffff\n        /* \"#utility.yul\":4471:4477   */\n      dup3\n        /* \"#utility.yul\":4468:4498   */\n      gt\n        /* \"#utility.yul\":4465:4521   */\n      iszero\n      tag_158\n      jumpi\n        /* \"#utility.yul\":4501:4519   */\n      tag_159\n      tag_91\n      jump\t// in\n    tag_159:\n        /* \"#utility.yul\":4465:4521   */\n    tag_158:\n        /* \"#utility.yul\":4539:4568   */\n      tag_160\n        /* \"#utility.yul\":4561:4567   */\n      dup3\n        /* \"#utility.yul\":4539:4568   */\n      tag_81\n      jump\t// in\n    tag_160:\n        /* \"#utility.yul\":4531:4568   */\n      swap1\n      pop\n        /* \"#utility.yul\":4623:4627   */\n      0x20\n        /* \"#utility.yul\":4617:4621   */\n      dup2\n        /* \"#utility.yul\":4613:4628   */\n      add\n        /* \"#utility.yul\":4605:4628   */\n      swap1\n      pop\n        /* \"#utility.yul\":4327:4635   */\n      swap2\n      swap1\n      pop\n      jump\t// out\n        /* \"#utility.yul\":4641:4789   */\n    tag_95:\n        /* \"#utility.yul\":4739:4745   */\n      dup3\n        /* \"#utility.yul\":4734:4737   */\n      dup2\n        /* \"#utility.yul\":4729:4732   */\n      dup4\n        /* \"#utility.yul\":4716:4746   */\n      calldatacopy\n        /* \"#utility.yul\":4780:4781   */\n      0x00\n        /* \"#utility.yul\":4771:4777   */\n      dup4\n        /* \"#utility.yul\":4766:4769   */\n      dup4\n        /* \"#utility.yul\":4762:4778   */\n      add\n        /* \"#utility.yul\":4755:4782   */\n      mstore\n        /* \"#utility.yul\":4641:4789   */\n      pop\n      pop\n      pop\n      jump\t// out\n        /* \"#utility.yul\":4795:5220   */\n    tag_96:\n        /* \"#utility.yul\":4873:4878   */\n      0x00\n        /* \"#utility.yul\":4898:4964   */\n      tag_163\n        /* \"#utility.yul\":4914:4963   */\n      tag_164\n        /* \"#utility.yul\":4956:4962   */\n      dup5\n        /* \"#utility.yul\":4914:4963   */\n      tag_94\n      jump\t// in\n    tag_164:\n        /* \"#utility.yul\":4898:4964   */\n      tag_93\n      jump\t// in\n    tag_163:\n        /* \"#utility.yul\":4889:4964   */\n      swap1\n      pop\n        /* \"#utility.yul\":4987:4993   */\n      dup3\n        /* \"#utility.yul\":4980:4985   */\n      dup2\n        /* \"#utility.yul\":4973:4994   */\n      mstore\n        /* \"#utility.yul\":5025:5029   */\n      0x20\n        /* \"#utility.yul\":5018:5023   */\n      dup2\n        /* \"#utility.yul\":5014:5030   */\n      add\n        /* \"#utility.yul\":5063:5066   */\n      dup5\n        /* \"#utility.yul\":5054:5060   */\n      dup5\n        /* \"#utility.yul\":5049:5052   */\n      dup5\n        /* \"#utility.yul\":5045:5061   */\n      add\n        /* \"#utility.yul\":5042:5067   */\n      gt\n        /* \"#utility.yul\":5039:5151   */\n      iszero\n      tag_165\n      jumpi\n        /* \"#utility.yul\":5070:5149   */\n      tag_166\n      tag_90\n      jump\t// in\n    tag_166:\n        /* \"#utility.yul\":5039:5151   */\n    tag_165:\n        /* \"#utility.yul\":5160:5214   */\n      tag_167\n        /* \"#utility.yul\":5207:5213   */\n      dup5\n        /* \"#utility.yul\":5202:5205   */\n      dup3\n        /* \"#utility.yul\":5197:5200   */\n      dup6\n        /* \"#utility.yul\":5160:5214   */\n      tag_95\n      jump\t// in\n    tag_167:\n        /* \"#utility.yul\":4879:5220   */\n      pop\n        /* \"#utility.yul\":4795:5220   */\n      swap4\n      swap3\n      pop\n      pop\n      pop\n      jump\t// out\n        /* \"#utility.yul\":5240:5580   */\n    tag_97:\n        /* \"#utility.yul\":5296:5301   */\n      0x00\n        /* \"#utility.yul\":5345:5348   */\n      dup3\n        /* \"#utility.yul\":5338:5342   */\n      0x1f\n        /* \"#utility.yul\":5330:5336   */\n      dup4\n        /* \"#utility.yul\":5326:5343   */\n      add\n        /* \"#utility.yul\":5322:5349   */\n      slt\n        /* \"#utility.yul\":5312:5434   */\n      tag_169\n      jumpi\n        /* \"#utility.yul\":5353:5432   */\n      tag_170\n      tag_89\n      jump\t// in\n    tag_170:\n        /* \"#utility.yul\":5312:5434   */\n    tag_169:\n        /* \"#utility.yul\":5470:5476   */\n      dup2\n        /* \"#utility.yul\":5457:5477   */\n      calldataload\n        /* \"#utility.yul\":5495:5574   */\n      tag_171\n        /* \"#utility.yul\":5570:5573   */\n      dup5\n        /* \"#utility.yul\":5562:5568   */\n      dup3\n        /* \"#utility.yul\":5555:5559   */\n      0x20\n        /* \"#utility.yul\":5547:5553   */\n      dup7\n        /* \"#utility.yul\":5543:5560   */\n      add\n        /* \"#utility.yul\":5495:5574   */\n      tag_96\n      jump\t// in\n    tag_171:\n        /* \"#utility.yul\":5486:5574   */\n      swap2\n      pop\n        /* \"#utility.yul\":5302:5580   */\n      pop\n        /* \"#utility.yul\":5240:5580   */\n      swap3\n      swap2\n      pop\n      pop\n      jump\t// out\n        /* \"#utility.yul\":5586:6095   */\n    tag_14:\n        /* \"#utility.yul\":5655:5661   */\n      0x00\n        /* \"#utility.yul\":5704:5706   */\n      0x20\n        /* \"#utility.yul\":5692:5701   */\n      dup3\n        /* \"#utility.yul\":5683:5690   */\n      dup5\n        /* \"#utility.yul\":5679:5702   */\n      sub\n        /* \"#utility.yul\":5675:5707   */\n      slt\n        /* \"#utility.yul\":5672:5791   */\n      iszero\n      tag_173\n      jumpi\n        /* \"#utility.yul\":5710:5789   */\n      tag_174\n      tag_87\n      jump\t// in\n    tag_174:\n        /* \"#utility.yul\":5672:5791   */\n    tag_173:\n        /* \"#utility.yul\":5858:5859   */\n      0x00\n        /* \"#utility.yul\":5847:5856   */\n      dup3\n        /* \"#utility.yul\":5843:5860   */\n      add\n        /* \"#utility.yul\":5830:5861   */\n      calldataload\n        /* \"#utility.yul\":5888:5906   */\n      0xffffffffffffffff\n        /* \"#utility.yul\":5880:5886   */\n      dup2\n        /* \"#utility.yul\":5877:5907   */\n      gt\n        /* \"#utility.yul\":5874:5991   */\n      iszero\n      tag_175\n      jumpi\n        /* \"#utility.yul\":5910:5989   */\n      tag_176\n      tag_88\n      jump\t// in\n    tag_176:\n        /* \"#utility.yul\":5874:5991   */\n    tag_175:\n        /* \"#utility.yul\":6015:6078   */\n      tag_177\n        /* \"#utility.yul\":6070:6077   */\n      dup5\n        /* \"#utility.yul\":6061:6067   */\n      dup3\n        /* \"#utility.yul\":6050:6059   */\n      dup6\n        /* \"#utility.yul\":6046:6068   */\n      add\n        /* \"#utility.yul\":6015:6078   */\n      tag_97\n      jump\t// in\n    tag_177:\n        /* \"#utility.yul\":6005:6078   */\n      swap2\n      pop\n        /* \"#utility.yul\":5801:6088   */\n      pop\n        /* \"#utility.yul\":5586:6095   */\n      swap3\n      swap2\n      pop\n      pop\n      jump\t// out\n        /* \"#utility.yul\":6101:6178   */\n    tag_98:\n        /* \"#utility.yul\":6138:6145   */\n      0x00\n        /* \"#utility.yul\":6167:6172   */\n      dup2\n        /* \"#utility.yul\":6156:6172   */\n      swap1\n      pop\n        /* \"#utility.yul\":6101:6178   */\n      swap2\n      swap1\n      pop\n      jump\t// out\n        /* \"#utility.yul\":6184:6302   */\n    tag_99:\n        /* \"#utility.yul\":6271:6295   */\n      tag_180\n        /* \"#utility.yul\":6289:6294   */\n      dup2\n        /* \"#utility.yul\":6271:6295   */\n      tag_98\n      jump\t// in\n    tag_180:\n        /* \"#utility.yul\":6266:6269   */\n      dup3\n        /* \"#utility.yul\":6259:6296   */\n      mstore\n        /* \"#utility.yul\":6184:6302   */\n      pop\n      pop\n      jump\t// out\n        /* \"#utility.yul\":6308:6530   */\n    tag_17:\n        /* \"#utility.yul\":6401:6405   */\n      0x00\n        /* \"#utility.yul\":6439:6441   */\n      0x20\n        /* \"#utility.yul\":6428:6437   */\n      dup3\n        /* \"#utility.yul\":6424:6442   */\n      add\n        /* \"#utility.yul\":6416:6442   */\n      swap1\n      pop\n        /* \"#utility.yul\":6452:6523   */\n      tag_182\n        /* \"#utility.yul\":6520:6521   */\n      0x00\n        /* \"#utility.yul\":6509:6518   */\n      dup4\n        /* \"#utility.yul\":6505:6522   */\n      add\n        /* \"#utility.yul\":6496:6502   */\n      dup5\n        /* \"#utility.yul\":6452:6523   */\n      tag_99\n      jump\t// in\n    tag_182:\n        /* \"#utility.yul\":6308:6530   */\n      swap3\n      swap2\n      pop\n      pop\n      jump\t// out\n        /* \"#utility.yul\":6536:6662   */\n    tag_100:\n        /* \"#utility.yul\":6573:6580   */\n      0x00\n        /* \"#utility.yul\":6613:6655   */\n      0xffffffffffffffffffffffffffffffffffffffff\n        /* \"#utility.yul\":6606:6611   */\n      dup3\n        /* \"#utility.yul\":6602:6656   */\n      and\n        /* \"#utility.yul\":6591:6656   */\n      swap1\n      pop\n        /* \"#utility.yul\":6536:6662   */\n      swap2\n      swap1\n      pop\n      jump\t// out\n        /* \"#utility.yul\":6668:6764   */\n    tag_101:\n        /* \"#utility.yul\":6705:6712   */\n      0x00\n        /* \"#utility.yul\":6734:6758   */\n      tag_185\n        /* \"#utility.yul\":6752:6757   */\n      dup3\n        /* \"#utility.yul\":6734:6758   */\n      tag_100\n      jump\t// in\n    tag_185:\n        /* \"#utility.yul\":6723:6758   */\n      swap1\n      pop\n        /* \"#utility.yul\":6668:6764   */\n      swap2\n      swap1\n      pop\n      jump\t// out\n        /* \"#utility.yul\":6770:6888   */\n    tag_102:\n        /* \"#utility.yul\":6857:6881   */\n      tag_187\n        /* \"#utility.yul\":6875:6880   */\n      dup2\n        /* \"#utility.yul\":6857:6881   */\n      tag_101\n      jump\t// in\n    tag_187:\n        /* \"#utility.yul\":6852:6855   */\n      dup3\n        /* \"#utility.yul\":6845:6882   */\n      mstore\n        /* \"#utility.yul\":6770:6888   */\n      pop\n      pop\n      jump\t// out\n        /* \"#utility.yul\":6894:7116   */\n    tag_21:\n        /* \"#utility.yul\":6987:6991   */\n      0x00\n        /* \"#utility.yul\":7025:7027   */\n      0x20\n        /* \"#utility.yul\":7014:7023   */\n      dup3\n        /* \"#utility.yul\":7010:7028   */\n      add\n        /* \"#utility.yul\":7002:7028   */\n      swap1\n      pop\n        /* \"#utility.yul\":7038:7109   */\n      tag_189\n        /* \"#utility.yul\":7106:7107   */\n      0x00\n        /* \"#utility.yul\":7095:7104   */\n      dup4\n        /* \"#utility.yul\":7091:7108   */\n      add\n        /* \"#utility.yul\":7082:7088   */\n      dup5\n        /* \"#utility.yul\":7038:7109   */\n      tag_102\n      jump\t// in\n    tag_189:\n        /* \"#utility.yul\":6894:7116   */\n      swap3\n      swap2\n      pop\n      pop\n      jump\t// out\n        /* \"#utility.yul\":7122:7302   */\n    tag_103:\n        /* \"#utility.yul\":7170:7247   */\n      0x4e487b7100000000000000000000000000000000000000000000000000000000\n        /* \"#utility.yul\":7167:7168   */\n      0x00\n        /* \"#utility.yul\":7160:7248   */\n      mstore\n        /* \"#utility.yul\":7267:7271   */\n      0x22\n        /* \"#utility.yul\":7264:7265   */\n      0x04\n        /* \"#utility.yul\":7257:7272   */\n      mstore\n        /* \"#utility.yul\":7291:7295   */\n      0x24\n        /* \"#utility.yul\":7288:7289   */\n      0x00\n        /* \"#utility.yul\":7281:7296   */\n      revert\n        /* \"#utility.yul\":7308:7628   */\n    tag_32:\n        /* \"#utility.yul\":7352:7358   */\n      0x00\n        /* \"#utility.yul\":7389:7390   */\n      0x02\n        /* \"#utility.yul\":7383:7387   */\n      dup3\n        /* \"#utility.yul\":7379:7391   */\n      div\n        /* \"#utility.yul\":7369:7391   */\n      swap1\n      pop\n        /* \"#utility.yul\":7436:7437   */\n      0x01\n        /* \"#utility.yul\":7430:7434   */\n      dup3\n        /* \"#utility.yul\":7426:7438   */\n      and\n        /* \"#utility.yul\":7457:7475   */\n      dup1\n        /* \"#utility.yul\":7447:7528   */\n      tag_192\n      jumpi\n        /* \"#utility.yul\":7513:7517   */\n      0x7f\n        /* \"#utility.yul\":7505:7511   */\n      dup3\n        /* \"#utility.yul\":7501:7518   */\n      and\n        /* \"#utility.yul\":7491:7518   */\n      swap2\n      pop\n        /* \"#utility.yul\":7447:7528   */\n    tag_192:\n        /* \"#utility.yul\":7575:7577   */\n      0x20\n        /* \"#utility.yul\":7567:7573   */\n      dup3\n        /* \"#utility.yul\":7564:7578   */\n      lt\n        /* \"#utility.yul\":7544:7562   */\n      dup2\n        /* \"#utility.yul\":7541:7579   */\n      sub\n        /* \"#utility.yul\":7538:7622   */\n      tag_193\n      jumpi\n        /* \"#utility.yul\":7594:7612   */\n      tag_194\n      tag_103\n      jump\t// in\n    tag_194:\n        /* \"#utility.yul\":7538:7622   */\n    tag_193:\n        /* \"#utility.yul\":7359:7628   */\n      pop\n        /* \"#utility.yul\":7308:7628   */\n      swap2\n      swap1\n      pop\n      jump\t// out\n        /* \"#utility.yul\":7634:7803   */\n    tag_104:\n        /* \"#utility.yul\":7718:7729   */\n      0x00\n        /* \"#utility.yul\":7752:7758   */\n      dup3\n        /* \"#utility.yul\":7747:7750   */\n      dup3\n        /* \"#utility.yul\":7740:7759   */\n      mstore\n        /* \"#utility.yul\":7792:7796   */\n      0x20\n        /* \"#utility.yul\":7787:7790   */\n      dup3\n        /* \"#utility.yul\":7783:7797   */\n      add\n        /* \"#utility.yul\":7768:7797   */\n      swap1\n      pop\n        /* \"#utility.yul\":7634:7803   */\n      swap3\n      swap2\n      pop\n      pop\n      jump\t// out\n        /* \"#utility.yul\":7809:7976   */\n    tag_105:\n        /* \"#utility.yul\":7949:7968   */\n      0x496e76616c69642063616e646964617465000000000000000000000000000000\n        /* \"#utility.yul\":7945:7946   */\n      0x00\n        /* \"#utility.yul\":7937:7943   */\n      dup3\n        /* \"#utility.yul\":7933:7947   */\n      add\n        /* \"#utility.yul\":7926:7969   */\n      mstore\n        /* \"#utility.yul\":7809:7976   */\n      pop\n      jump\t// out\n        /* \"#utility.yul\":7982:8348   */\n    tag_106:\n        /* \"#utility.yul\":8124:8127   */\n      0x00\n        /* \"#utility.yul\":8145:8212   */\n      tag_198\n        /* \"#utility.yul\":8209:8211   */\n      0x11\n        /* \"#utility.yul\":8204:8207   */\n      dup4\n        /* \"#utility.yul\":8145:8212   */\n      tag_104\n      jump\t// in\n    tag_198:\n        /* \"#utility.yul\":8138:8212   */\n      swap2\n      pop\n        /* \"#utility.yul\":8221:8314   */\n      tag_199\n        /* \"#utility.yul\":8310:8313   */\n      dup3\n        /* \"#utility.yul\":8221:8314   */\n      tag_105\n      jump\t// in\n    tag_199:\n        /* \"#utility.yul\":8339:8341   */\n      0x20\n        /* \"#utility.yul\":8334:8337   */\n      dup3\n        /* \"#utility.yul\":8330:8342   */\n      add\n        /* \"#utility.yul\":8323:8342   */\n      swap1\n      pop\n        /* \"#utility.yul\":7982:8348   */\n      swap2\n      swap1\n      pop\n      jump\t// out\n        /* \"#utility.yul\":8354:8773   */\n    tag_42:\n        /* \"#utility.yul\":8520:8524   */\n      0x00\n        /* \"#utility.yul\":8558:8560   */\n      0x20\n        /* \"#utility.yul\":8547:8556   */\n      dup3\n        /* \"#utility.yul\":8543:8561   */\n      add\n        /* \"#utility.yul\":8535:8561   */\n      swap1\n      pop\n        /* \"#utility.yul\":8607:8616   */\n      dup2\n        /* \"#utility.yul\":8601:8605   */\n      dup2\n        /* \"#utility.yul\":8597:8617   */\n      sub\n        /* \"#utility.yul\":8593:8594   */\n      0x00\n        /* \"#utility.yul\":8582:8591   */\n      dup4\n        /* \"#utility.yul\":8578:8595   */\n      add\n        /* \"#utility.yul\":8571:8618   */\n      mstore\n        /* \"#utility.yul\":8635:8766   */\n      tag_201\n        /* \"#utility.yul\":8761:8765   */\n      dup2\n        /* \"#utility.yul\":8635:8766   */\n      tag_106\n      jump\t// in\n    tag_201:\n        /* \"#utility.yul\":8627:8766   */\n      swap1\n      pop\n        /* \"#utility.yul\":8354:8773   */\n      swap2\n      swap1\n      pop\n      jump\t// out\n        /* \"#utility.yul\":8779:8927   */\n    tag_107:\n        /* \"#utility.yul\":8881:8892   */\n      0x00\n        /* \"#utility.yul\":8918:8921   */\n      dup2\n        /* \"#utility.yul\":8903:8921   */\n      swap1\n      pop\n        /* \"#utility.yul\":8779:8927   */\n      swap3\n      swap2\n      pop\n      pop\n      jump\t// out\n        /* \"#utility.yul\":8933:9323   */\n    tag_108:\n        /* \"#utility.yul\":9039:9042   */\n      0x00\n        /* \"#utility.yul\":9067:9106   */\n      tag_204\n        /* \"#utility.yul\":9100:9105   */\n      dup3\n        /* \"#utility.yul\":9067:9106   */\n      tag_78\n      jump\t// in\n    tag_204:\n        /* \"#utility.yul\":9122:9211   */\n      tag_205\n        /* \"#utility.yul\":9204:9210   */\n      dup2\n        /* \"#utility.yul\":9199:9202   */\n      dup6\n        /* \"#utility.yul\":9122:9211   */\n      tag_107\n      jump\t// in\n    tag_205:\n        /* \"#utility.yul\":9115:9211   */\n      swap4\n      pop\n        /* \"#utility.yul\":9220:9285   */\n      tag_206\n        /* \"#utility.yul\":9278:9284   */\n      dup2\n        /* \"#utility.yul\":9273:9276   */\n      dup6\n        /* \"#utility.yul\":9266:9270   */\n      0x20\n        /* \"#utility.yul\":9259:9264   */\n      dup7\n        /* \"#utility.yul\":9255:9271   */\n      add\n        /* \"#utility.yul\":9220:9285   */\n      tag_80\n      jump\t// in\n    tag_206:\n        /* \"#utility.yul\":9310:9316   */\n      dup1\n        /* \"#utility.yul\":9305:9308   */\n      dup5\n        /* \"#utility.yul\":9301:9317   */\n      add\n        /* \"#utility.yul\":9294:9317   */\n      swap2\n      pop\n        /* \"#utility.yul\":9043:9323   */\n      pop\n        /* \"#utility.yul\":8933:9323   */\n      swap3\n      swap2\n      pop\n      pop\n      jump\t// out\n        /* \"#utility.yul\":9329:9604   */\n    tag_44:\n        /* \"#utility.yul\":9461:9464   */\n      0x00\n        /* \"#utility.yul\":9483:9578   */\n      tag_208\n        /* \"#utility.yul\":9574:9577   */\n      dup3\n        /* \"#utility.yul\":9565:9571   */\n      dup5\n        /* \"#utility.yul\":9483:9578   */\n      tag_108\n      jump\t// in\n    tag_208:\n        /* \"#utility.yul\":9476:9578   */\n      swap2\n      pop\n        /* \"#utility.yul\":9595:9598   */\n      dup2\n        /* \"#utility.yul\":9588:9598   */\n      swap1\n      pop\n        /* \"#utility.yul\":9329:9604   */\n      swap3\n      swap2\n      pop\n      pop\n      jump\t// out\n        /* \"#utility.yul\":9610:9786   */\n    tag_109:\n        /* \"#utility.yul\":9750:9778   */\n      0x4f6e6c79206f776e65722063616e20726573657420766f746573000000000000\n        /* \"#utility.yul\":9746:9747   */\n      0x00\n        /* \"#utility.yul\":9738:9744   */\n      dup3\n        /* \"#utility.yul\":9734:9748   */\n      add\n        /* \"#utility.yul\":9727:9779   */\n      mstore\n        /* \"#utility.yul\":9610:9786   */\n      pop\n      jump\t// out\n        /* \"#utility.yul\":9792:10158   */\n    tag_110:\n        /* \"#utility.yul\":9934:9937   */\n      0x00\n        /* \"#utility.yul\":9955:10022   */\n      tag_211\n        /* \"#utility.yul\":10019:10021   */\n      0x1a\n        /* \"#utility.yul\":10014:10017   */\n      dup4\n        /* \"#utility.yul\":9955:10022   */\n      tag_104\n      jump\t// in\n    tag_211:\n        /* \"#utility.yul\":9948:10022   */\n      swap2\n      pop\n        /* \"#utility.yul\":10031:10124   */\n      tag_212\n        /* \"#utility.yul\":10120:10123   */\n      dup3\n        /* \"#utility.yul\":10031:10124   */\n      tag_109\n      jump\t// in\n    tag_212:\n        /* \"#utility.yul\":10149:10151   */\n      0x20\n        /* \"#utility.yul\":10144:10147   */\n      dup3\n        /* \"#utility.yul\":10140:10152   */\n      add\n        /* \"#utility.yul\":10133:10152   */\n      swap1\n      pop\n        /* \"#utility.yul\":9792:10158   */\n      swap2\n      swap1\n      pop\n      jump\t// out\n        /* \"#utility.yul\":10164:10583   */\n    tag_48:\n        /* \"#utility.yul\":10330:10334   */\n      0x00\n        /* \"#utility.yul\":10368:10370   */\n      0x20\n        /* \"#utility.yul\":10357:10366   */\n      dup3\n        /* \"#utility.yul\":10353:10371   */\n      add\n        /* \"#utility.yul\":10345:10371   */\n      swap1\n      pop\n        /* \"#utility.yul\":10417:10426   */\n      dup2\n        /* \"#utility.yul\":10411:10415   */\n      dup2\n        /* \"#utility.yul\":10407:10427   */\n      sub\n        /* \"#utility.yul\":10403:10404   */\n      0x00\n        /* \"#utility.yul\":10392:10401   */\n      dup4\n        /* \"#utility.yul\":10388:10405   */\n      add\n        /* \"#utility.yul\":10381:10428   */\n      mstore\n        /* \"#utility.yul\":10445:10576   */\n      tag_214\n        /* \"#utility.yul\":10571:10575   */\n      dup2\n        /* \"#utility.yul\":10445:10576   */\n      tag_110\n      jump\t// in\n    tag_214:\n        /* \"#utility.yul\":10437:10576   */\n      swap1\n      pop\n        /* \"#utility.yul\":10164:10583   */\n      swap2\n      swap1\n      pop\n      jump\t// out\n        /* \"#utility.yul\":10589:10769   */\n    tag_54:\n        /* \"#utility.yul\":10637:10714   */\n      0x4e487b7100000000000000000000000000000000000000000000000000000000\n        /* \"#utility.yul\":10634:10635   */\n      0x00\n        /* \"#utility.yul\":10627:10715   */\n      mstore\n        /* \"#utility.yul\":10734:10738   */\n      0x32\n        /* \"#utility.yul\":10731:10732   */\n      0x04\n        /* \"#utility.yul\":10724:10739   */\n      mstore\n        /* \"#utility.yul\":10758:10762   */\n      0x24\n        /* \"#utility.yul\":10755:10756   */\n      0x00\n        /* \"#utility.yul\":10748:10763   */\n      revert\n        /* \"#utility.yul\":10775:10916   */\n    tag_111:\n        /* \"#utility.yul\":10824:10828   */\n      0x00\n        /* \"#utility.yul\":10847:10850   */\n      dup2\n        /* \"#utility.yul\":10839:10850   */\n      swap1\n      pop\n        /* \"#utility.yul\":10870:10873   */\n      dup2\n        /* \"#utility.yul\":10867:10868   */\n      0x00\n        /* \"#utility.yul\":10860:10874   */\n      mstore\n        /* \"#utility.yul\":10904:10908   */\n      0x20\n        /* \"#utility.yul\":10901:10902   */\n      0x00\n        /* \"#utility.yul\":10891:10909   */\n      keccak256\n        /* \"#utility.yul\":10883:10909   */\n      swap1\n      pop\n        /* \"#utility.yul\":10775:10916   */\n      swap2\n      swap1\n      pop\n      jump\t// out\n        /* \"#utility.yul\":10946:11820   */\n    tag_112:\n        /* \"#utility.yul\":11049:11052   */\n      0x00\n        /* \"#utility.yul\":11086:11091   */\n      dup2\n        /* \"#utility.yul\":11080:11092   */\n      sload\n        /* \"#utility.yul\":11115:11151   */\n      tag_218\n        /* \"#utility.yul\":11141:11150   */\n      dup2\n        /* \"#utility.yul\":11115:11151   */\n      tag_32\n      jump\t// in\n    tag_218:\n        /* \"#utility.yul\":11167:11256   */\n      tag_219\n        /* \"#utility.yul\":11249:11255   */\n      dup2\n        /* \"#utility.yul\":11244:11247   */\n      dup7\n        /* \"#utility.yul\":11167:11256   */\n      tag_107\n      jump\t// in\n    tag_219:\n        /* \"#utility.yul\":11160:11256   */\n      swap5\n      pop\n        /* \"#utility.yul\":11287:11288   */\n      0x01\n        /* \"#utility.yul\":11276:11285   */\n      dup3\n        /* \"#utility.yul\":11272:11289   */\n      and\n        /* \"#utility.yul\":11303:11304   */\n      0x00\n        /* \"#utility.yul\":11298:11464   */\n      dup2\n      eq\n      tag_221\n      jumpi\n        /* \"#utility.yul\":11478:11479   */\n      0x01\n        /* \"#utility.yul\":11473:11814   */\n      dup2\n      eq\n      tag_222\n      jumpi\n        /* \"#utility.yul\":11265:11814   */\n      jump(tag_220)\n        /* \"#utility.yul\":11298:11464   */\n    tag_221:\n        /* \"#utility.yul\":11382:11386   */\n      0xff\n        /* \"#utility.yul\":11378:11387   */\n      not\n        /* \"#utility.yul\":11367:11376   */\n      dup4\n        /* \"#utility.yul\":11363:11388   */\n      and\n        /* \"#utility.yul\":11358:11361   */\n      dup7\n        /* \"#utility.yul\":11351:11389   */\n      mstore\n        /* \"#utility.yul\":11444:11450   */\n      dup2\n        /* \"#utility.yul\":11437:11451   */\n      iszero\n        /* \"#utility.yul\":11430:11452   */\n      iszero\n        /* \"#utility.yul\":11422:11428   */\n      dup3\n        /* \"#utility.yul\":11418:11453   */\n      mul\n        /* \"#utility.yul\":11413:11416   */\n      dup7\n        /* \"#utility.yul\":11409:11454   */\n      add\n        /* \"#utility.yul\":11402:11454   */\n      swap4\n      pop\n        /* \"#utility.yul\":11298:11464   */\n      jump(tag_220)\n        /* \"#utility.yul\":11473:11814   */\n    tag_222:\n        /* \"#utility.yul\":11540:11578   */\n      tag_223\n        /* \"#utility.yul\":11572:11577   */\n      dup6\n        /* \"#utility.yul\":11540:11578   */\n      tag_111\n      jump\t// in\n    tag_223:\n        /* \"#utility.yul\":11600:11601   */\n      0x00\n        /* \"#utility.yul\":11614:11768   */\n    tag_224:\n        /* \"#utility.yul\":11628:11634   */\n      dup4\n        /* \"#utility.yul\":11625:11626   */\n      dup2\n        /* \"#utility.yul\":11622:11635   */\n      lt\n        /* \"#utility.yul\":11614:11768   */\n      iszero\n      tag_226\n      jumpi\n        /* \"#utility.yul\":11702:11709   */\n      dup2\n        /* \"#utility.yul\":11696:11710   */\n      sload\n        /* \"#utility.yul\":11692:11693   */\n      dup2\n        /* \"#utility.yul\":11687:11690   */\n      dup10\n        /* \"#utility.yul\":11683:11694   */\n      add\n        /* \"#utility.yul\":11676:11711   */\n      mstore\n        /* \"#utility.yul\":11752:11753   */\n      0x01\n        /* \"#utility.yul\":11743:11750   */\n      dup3\n        /* \"#utility.yul\":11739:11754   */\n      add\n        /* \"#utility.yul\":11728:11754   */\n      swap2\n      pop\n        /* \"#utility.yul\":11650:11654   */\n      0x20\n        /* \"#utility.yul\":11647:11648   */\n      dup2\n        /* \"#utility.yul\":11643:11655   */\n      add\n        /* \"#utility.yul\":11638:11655   */\n      swap1\n      pop\n        /* \"#utility.yul\":11614:11768   */\n      jump(tag_224)\n    tag_226:\n        /* \"#utility.yul\":11797:11803   */\n      dup4\n        /* \"#utility.yul\":11792:11795   */\n      dup9\n        /* \"#utility.yul\":11788:11804   */\n      add\n        /* \"#utility.yul\":11781:11804   */\n      swap6\n      pop\n        /* \"#utility.yul\":11480:11814   */\n      pop\n      pop\n        /* \"#utility.yul\":11265:11814   */\n    tag_220:\n      pop\n        /* \"#utility.yul\":11053:11820   */\n      pop\n      pop\n        /* \"#utility.yul\":10946:11820   */\n      swap3\n      swap2\n      pop\n      pop\n      jump\t// out\n        /* \"#utility.yul\":11826:12095   */\n    tag_57:\n        /* \"#utility.yul\":11955:11958   */\n      0x00\n        /* \"#utility.yul\":11977:12069   */\n      tag_228\n        /* \"#utility.yul\":12065:12068   */\n      dup3\n        /* \"#utility.yul\":12056:12062   */\n      dup5\n        /* \"#utility.yul\":11977:12069   */\n      tag_112\n      jump\t// in\n    tag_228:\n        /* \"#utility.yul\":11970:12069   */\n      swap2\n      pop\n        /* \"#utility.yul\":12086:12089   */\n      dup2\n        /* \"#utility.yul\":12079:12089   */\n      swap1\n      pop\n        /* \"#utility.yul\":11826:12095   */\n      swap3\n      swap2\n      pop\n      pop\n      jump\t// out\n        /* \"#utility.yul\":12101:12281   */\n    tag_113:\n        /* \"#utility.yul\":12149:12226   */\n      0x4e487b7100000000000000000000000000000000000000000000000000000000\n        /* \"#utility.yul\":12146:12147   */\n      0x00\n        /* \"#utility.yul\":12139:12227   */\n      mstore\n        /* \"#utility.yul\":12246:12250   */\n      0x11\n        /* \"#utility.yul\":12243:12244   */\n      0x04\n        /* \"#utility.yul\":12236:12251   */\n      mstore\n        /* \"#utility.yul\":12270:12274   */\n      0x24\n        /* \"#utility.yul\":12267:12268   */\n      0x00\n        /* \"#utility.yul\":12260:12275   */\n      revert\n        /* \"#utility.yul\":12287:12520   */\n    tag_64:\n        /* \"#utility.yul\":12326:12329   */\n      0x00\n        /* \"#utility.yul\":12349:12373   */\n      tag_231\n        /* \"#utility.yul\":12367:12372   */\n      dup3\n        /* \"#utility.yul\":12349:12373   */\n      tag_98\n      jump\t// in\n    tag_231:\n        /* \"#utility.yul\":12340:12373   */\n      swap2\n      pop\n        /* \"#utility.yul\":12395:12461   */\n      0xffffffffffffffffffffffffffffffffffffffffffffffffffffffffffffffff\n        /* \"#utility.yul\":12388:12393   */\n      dup3\n        /* \"#utility.yul\":12385:12462   */\n      sub\n        /* \"#utility.yul\":12382:12485   */\n      tag_232\n      jumpi\n        /* \"#utility.yul\":12465:12483   */\n      tag_233\n      tag_113\n      jump\t// in\n    tag_233:\n        /* \"#utility.yul\":12382:12485   */\n    tag_232:\n        /* \"#utility.yul\":12512:12513   */\n      0x01\n        /* \"#utility.yul\":12505:12510   */\n      dup3\n        /* \"#utility.yul\":12501:12514   */\n      add\n        /* \"#utility.yul\":12494:12514   */\n      swap1\n      pop\n        /* \"#utility.yul\":12287:12520   */\n      swap2\n      swap1\n      pop\n      jump\t// out\n        /* \"#utility.yul\":12526:12673   */\n    tag_114:\n        /* \"#utility.yul\":12627:12638   */\n      0x00\n        /* \"#utility.yul\":12664:12667   */\n      dup2\n        /* \"#utility.yul\":12649:12667   */\n      swap1\n      pop\n        /* \"#utility.yul\":12526:12673   */\n      swap3\n      swap2\n      pop\n      pop\n      jump\t// out\n        /* \"#utility.yul\":12679:12823   */\n    tag_115:\n        /* \"#utility.yul\":12731:12735   */\n      0x00\n        /* \"#utility.yul\":12754:12757   */\n      dup2\n        /* \"#utility.yul\":12746:12757   */\n      swap1\n      pop\n        /* \"#utility.yul\":12777:12780   */\n      dup2\n        /* \"#utility.yul\":12774:12775   */\n      0x00\n        /* \"#utility.yul\":12767:12781   */\n      mstore\n        /* \"#utility.yul\":12811:12815   */\n      0x20\n        /* \"#utility.yul\":12808:12809   */\n      0x00\n        /* \"#utility.yul\":12798:12816   */\n      keccak256\n        /* \"#utility.yul\":12790:12816   */\n      swap1\n      pop\n        /* \"#utility.yul\":12679:12823   */\n      swap2\n      swap1\n      pop\n      jump\t// out\n        /* \"#utility.yul\":12851:13729   */\n    tag_116:\n        /* \"#utility.yul\":12956:12959   */\n      0x00\n        /* \"#utility.yul\":12993:12998   */\n      dup2\n        /* \"#utility.yul\":12987:12999   */\n      sload\n        /* \"#utility.yul\":13022:13058   */\n      tag_237\n        /* \"#utility.yul\":13048:13057   */\n      dup2\n        /* \"#utility.yul\":13022:13058   */\n      tag_32\n      jump\t// in\n    tag_237:\n        /* \"#utility.yul\":13074:13162   */\n      tag_238\n        /* \"#utility.yul\":13155:13161   */\n      dup2\n        /* \"#utility.yul\":13150:13153   */\n      dup7\n        /* \"#utility.yul\":13074:13162   */\n      tag_114\n      jump\t// in\n    tag_238:\n        /* \"#utility.yul\":13067:13162   */\n      swap5\n      pop\n        /* \"#utility.yul\":13193:13194   */\n      0x01\n        /* \"#utility.yul\":13182:13191   */\n      dup3\n        /* \"#utility.yul\":13178:13195   */\n      and\n        /* \"#utility.yul\":13209:13210   */\n      0x00\n        /* \"#utility.yul\":13204:13370   */\n      dup2\n      eq\n      tag_240\n      jumpi\n        /* \"#utility.yul\":13384:13385   */\n      0x01\n        /* \"#utility.yul\":13379:13723   */\n      dup2\n      eq\n      tag_241\n      jumpi\n        /* \"#utility.yul\":13171:13723   */\n      jump(tag_239)\n        /* \"#utility.yul\":13204:13370   */\n    tag_240:\n        /* \"#utility.yul\":13288:13292   */\n      0xff\n        /* \"#utility.yul\":13284:13293   */\n      not\n        /* \"#utility.yul\":13273:13282   */\n      dup4\n        /* \"#utility.yul\":13269:13294   */\n      and\n        /* \"#utility.yul\":13264:13267   */\n      dup7\n        /* \"#utility.yul\":13257:13295   */\n      mstore\n        /* \"#utility.yul\":13350:13356   */\n      dup2\n        /* \"#utility.yul\":13343:13357   */\n      iszero\n        /* \"#utility.yul\":13336:13358   */\n      iszero\n        /* \"#utility.yul\":13328:13334   */\n      dup3\n        /* \"#utility.yul\":13324:13359   */\n      mul\n        /* \"#utility.yul\":13319:13322   */\n      dup7\n        /* \"#utility.yul\":13315:13360   */\n      add\n        /* \"#utility.yul\":13308:13360   */\n      swap4\n      pop\n        /* \"#utility.yul\":13204:13370   */\n      jump(tag_239)\n        /* \"#utility.yul\":13379:13723   */\n    tag_241:\n        /* \"#utility.yul\":13446:13487   */\n      tag_242\n        /* \"#utility.yul\":13481:13486   */\n      dup6\n        /* \"#utility.yul\":13446:13487   */\n      tag_115\n      jump\t// in\n    tag_242:\n        /* \"#utility.yul\":13509:13510   */\n      0x00\n        /* \"#utility.yul\":13523:13677   */\n    tag_243:\n        /* \"#utility.yul\":13537:13543   */\n      dup4\n        /* \"#utility.yul\":13534:13535   */\n      dup2\n        /* \"#utility.yul\":13531:13544   */\n      lt\n        /* \"#utility.yul\":13523:13677   */\n      iszero\n      tag_245\n      jumpi\n        /* \"#utility.yul\":13611:13618   */\n      dup2\n        /* \"#utility.yul\":13605:13619   */\n      sload\n        /* \"#utility.yul\":13601:13602   */\n      dup2\n        /* \"#utility.yul\":13596:13599   */\n      dup10\n        /* \"#utility.yul\":13592:13603   */\n      add\n        /* \"#utility.yul\":13585:13620   */\n      mstore\n        /* \"#utility.yul\":13661:13662   */\n      0x01\n        /* \"#utility.yul\":13652:13659   */\n      dup3\n        /* \"#utility.yul\":13648:13663   */\n      add\n        /* \"#utility.yul\":13637:13663   */\n      swap2\n      pop\n        /* \"#utility.yul\":13559:13563   */\n      0x20\n        /* \"#utility.yul\":13556:13557   */\n      dup2\n        /* \"#utility.yul\":13552:13564   */\n      add\n        /* \"#utility.yul\":13547:13564   */\n      swap1\n      pop\n        /* \"#utility.yul\":13523:13677   */\n      jump(tag_243)\n    tag_245:\n        /* \"#utility.yul\":13706:13712   */\n      dup4\n        /* \"#utility.yul\":13701:13704   */\n      dup9\n        /* \"#utility.yul\":13697:13713   */\n      add\n        /* \"#utility.yul\":13690:13713   */\n      swap6\n      pop\n        /* \"#utility.yul\":13386:13723   */\n      pop\n      pop\n        /* \"#utility.yul\":13171:13723   */\n    tag_239:\n      pop\n        /* \"#utility.yul\":12960:13729   */\n      pop\n      pop\n        /* \"#utility.yul\":12851:13729   */\n      swap3\n      swap2\n      pop\n      pop\n      jump\t// out\n        /* \"#utility.yul\":13735:14008   */\n    tag_73:\n        /* \"#utility.yul\":13866:13869   */\n      0x00\n        /* \"#utility.yul\":13888:13982   */\n      tag_247\n        /* \"#utility.yul\":13978:13981   */\n      dup3\n        /* \"#utility.yul\":13969:13975   */\n      dup5\n        /* \"#utility.yul\":13888:13982   */\n      tag_116\n      jump\t// in\n    tag_247:\n        /* \"#utility.yul\":13881:13982   */\n      swap2\n      pop\n        /* \"#utility.yul\":13999:14002   */\n      dup2\n        /* \"#utility.yul\":13992:14002   */\n      swap1\n      pop\n        /* \"#utility.yul\":13735:14008   */\n      swap3\n      swap2\n      pop\n      pop\n      jump\t// out\n\n    auxdata: 0xa26469706673582212206d275614ad283b3b17201df58dc2f6e88ffdb80d69e190a7f0da404b7ee2515264736f6c634300081a0033\n}\n",
				"bytecode": {
					"linkReferences": {},
					"object": "608060405234801561000f575f80fd5b506040516112d33803806112d3833981810160405281019061003191906103e4565b3360025f6101000a81548173ffffffffffffffffffffffffffffffffffffffff021916908373ffffffffffffffffffffffffffffffffffffffff16021790555080600190805190602001906100879291906100e3565b505f5b81518110156100dc575f808383815181106100a8576100a761042b565b5b60200260200101516040516100bd919061049c565b908152602001604051809103902081905550808060010191505061008a565b5050610784565b828054828255905f5260205f20908101928215610129579160200282015b8281111561012857825182908161011891906106b5565b5091602001919060010190610101565b5b509050610136919061013a565b5090565b5b80821115610159575f8181610150919061015d565b5060010161013b565b5090565b508054610169906104df565b5f825580601f1061017a5750610197565b601f0160209004905f5260205f2090810190610196919061019a565b5b50565b5b808211156101b1575f815f90555060010161019b565b5090565b5f604051905090565b5f80fd5b5f80fd5b5f80fd5b5f601f19601f8301169050919050565b7f4e487b71000000000000000000000000000000000000000000000000000000005f52604160045260245ffd5b610210826101ca565b810181811067ffffffffffffffff8211171561022f5761022e6101da565b5b80604052505050565b5f6102416101b5565b905061024d8282610207565b919050565b5f67ffffffffffffffff82111561026c5761026b6101da565b5b602082029050602081019050919050565b5f80fd5b5f80fd5b5f67ffffffffffffffff82111561029f5761029e6101da565b5b6102a8826101ca565b9050602081019050919050565b8281835e5f83830152505050565b5f6102d56102d084610285565b610238565b9050828152602081018484840111156102f1576102f0610281565b5b6102fc8482856102b5565b509392505050565b5f82601f830112610318576103176101c6565b5b81516103288482602086016102c3565b91505092915050565b5f61034361033e84610252565b610238565b905080838252602082019050602084028301858111156103665761036561027d565b5b835b818110156103ad57805167ffffffffffffffff81111561038b5761038a6101c6565b5b8086016103988982610304565b85526020850194505050602081019050610368565b5050509392505050565b5f82601f8301126103cb576103ca6101c6565b5b81516103db848260208601610331565b91505092915050565b5f602082840312156103f9576103f86101be565b5b5f82015167ffffffffffffffff811115610416576104156101c2565b5b610422848285016103b7565b91505092915050565b7f4e487b71000000000000000000000000000000000000000000000000000000005f52603260045260245ffd5b5f81519050919050565b5f81905092915050565b5f61047682610458565b6104808185610462565b93506104908185602086016102b5565b80840191505092915050565b5f6104a7828461046c565b915081905092915050565b7f4e487b71000000000000000000000000000000000000000000000000000000005f52602260045260245ffd5b5f60028204905060018216806104f657607f821691505b602082108103610509576105086104b2565b5b50919050565b5f819050815f5260205f209050919050565b5f6020601f8301049050919050565b5f82821b905092915050565b5f6008830261056b7fffffffffffffffffffffffffffffffffffffffffffffffffffffffffffffffff82610530565b6105758683610530565b95508019841693508086168417925050509392505050565b5f819050919050565b5f819050919050565b5f6105b96105b46105af8461058d565b610596565b61058d565b9050919050565b5f819050919050565b6105d28361059f565b6105e66105de826105c0565b84845461053c565b825550505050565b5f90565b6105fa6105ee565b6106058184846105c9565b505050565b5b818110156106285761061d5f826105f2565b60018101905061060b565b5050565b601f82111561066d5761063e8161050f565b61064784610521565b81016020851015610656578190505b61066a61066285610521565b83018261060a565b50505b505050565b5f82821c905092915050565b5f61068d5f1984600802610672565b1980831691505092915050565b5f6106a5838361067e565b9150826002028217905092915050565b6106be82610458565b67ffffffffffffffff8111156106d7576106d66101da565b5b6106e182546104df565b6106ec82828561062c565b5f60209050601f83116001811461071d575f841561070b578287015190505b610715858261069a565b86555061077c565b601f19841661072b8661050f565b5f5b828110156107525784890151825560018201915060208501945060208101905061072d565b8683101561076f578489015161076b601f89168261067e565b8355505b6001600288020188555050505b505050505050565b610b42806107915f395ff3fe608060405234801561000f575f80fd5b5060043610610055575f3560e01c80632e6997fe14610059578063805265e5146100775780638da5cb5b146100a7578063b9830ff1146100c5578063fc36e15b146100cf575b5f80fd5b6100616100eb565b60405161006e9190610557565b60405180910390f35b610091600480360381019061008c91906106b4565b6101bf565b60405161009e9190610713565b60405180910390f35b6100af61022d565b6040516100bc919061076b565b60405180910390f35b6100cd610252565b005b6100e960048036038101906100e491906106b4565b61033d565b005b60606001805480602002602001604051908101604052809291908181526020015f905b828210156101b6578382905f5260205f2001805461012b906107b1565b80601f0160208091040260200160405190810160405280929190818152602001828054610157906107b1565b80156101a25780601f10610179576101008083540402835291602001916101a2565b820191905f5260205f20905b81548152906001019060200180831161018557829003601f168201915b50505050508152602001906001019061010e565b50505050905090565b5f6101c9826103ba565b610208576040517f08c379a00000000000000000000000000000000000000000000000000000000081526004016101ff9061083b565b60405180910390fd5b5f826040516102179190610893565b9081526020016040518091039020549050919050565b60025f9054906101000a900473ffffffffffffffffffffffffffffffffffffffff1681565b60025f9054906101000a900473ffffffffffffffffffffffffffffffffffffffff1673ffffffffffffffffffffffffffffffffffffffff163373ffffffffffffffffffffffffffffffffffffffff16146102e1576040517f08c379a00000000000000000000000000000000000000000000000000000000081526004016102d8906108f3565b60405180910390fd5b5f5b60018054905081101561033a575f806001838154811061030657610305610911565b5b905f5260205f200160405161031b91906109d0565b90815260200160405180910390208190555080806001019150506102e3565b50565b610346816103ba565b610385576040517f08c379a000000000000000000000000000000000000000000000000000000000815260040161037c9061083b565b60405180910390fd5b5f816040516103949190610893565b90815260200160405180910390205f8154809291906103b290610a13565b919050555050565b5f805f90505b600180549050811015610422578280519060200120600182815481106103e9576103e8610911565b5b905f5260205f20016040516103fe9190610af6565b604051809103902003610415576001915050610427565b80806001019150506103c0565b505f90505b919050565b5f81519050919050565b5f82825260208201905092915050565b5f819050602082019050919050565b5f81519050919050565b5f82825260208201905092915050565b8281835e5f83830152505050565b5f601f19601f8301169050919050565b5f61049782610455565b6104a1818561045f565b93506104b181856020860161046f565b6104ba8161047d565b840191505092915050565b5f6104d0838361048d565b905092915050565b5f602082019050919050565b5f6104ee8261042c565b6104f88185610436565b93508360208202850161050a85610446565b805f5b85811015610545578484038952815161052685826104c5565b9450610531836104d8565b925060208a0199505060018101905061050d565b50829750879550505050505092915050565b5f6020820190508181035f83015261056f81846104e4565b905092915050565b5f604051905090565b5f80fd5b5f80fd5b5f80fd5b5f80fd5b7f4e487b71000000000000000000000000000000000000000000000000000000005f52604160045260245ffd5b6105c68261047d565b810181811067ffffffffffffffff821117156105e5576105e4610590565b5b80604052505050565b5f6105f7610577565b905061060382826105bd565b919050565b5f67ffffffffffffffff82111561062257610621610590565b5b61062b8261047d565b9050602081019050919050565b828183375f83830152505050565b5f61065861065384610608565b6105ee565b9050828152602081018484840111156106745761067361058c565b5b61067f848285610638565b509392505050565b5f82601f83011261069b5761069a610588565b5b81356106ab848260208601610646565b91505092915050565b5f602082840312156106c9576106c8610580565b5b5f82013567ffffffffffffffff8111156106e6576106e5610584565b5b6106f284828501610687565b91505092915050565b5f819050919050565b61070d816106fb565b82525050565b5f6020820190506107265f830184610704565b92915050565b5f73ffffffffffffffffffffffffffffffffffffffff82169050919050565b5f6107558261072c565b9050919050565b6107658161074b565b82525050565b5f60208201905061077e5f83018461075c565b92915050565b7f4e487b71000000000000000000000000000000000000000000000000000000005f52602260045260245ffd5b5f60028204905060018216806107c857607f821691505b6020821081036107db576107da610784565b5b50919050565b5f82825260208201905092915050565b7f496e76616c69642063616e6469646174650000000000000000000000000000005f82015250565b5f6108256011836107e1565b9150610830826107f1565b602082019050919050565b5f6020820190508181035f83015261085281610819565b9050919050565b5f81905092915050565b5f61086d82610455565b6108778185610859565b935061088781856020860161046f565b80840191505092915050565b5f61089e8284610863565b915081905092915050565b7f4f6e6c79206f776e65722063616e20726573657420766f7465730000000000005f82015250565b5f6108dd601a836107e1565b91506108e8826108a9565b602082019050919050565b5f6020820190508181035f83015261090a816108d1565b9050919050565b7f4e487b71000000000000000000000000000000000000000000000000000000005f52603260045260245ffd5b5f819050815f5260205f209050919050565b5f815461095c816107b1565b6109668186610859565b9450600182165f81146109805760018114610995576109c7565b60ff19831686528115158202860193506109c7565b61099e8561093e565b5f5b838110156109bf578154818901526001820191506020810190506109a0565b838801955050505b50505092915050565b5f6109db8284610950565b915081905092915050565b7f4e487b71000000000000000000000000000000000000000000000000000000005f52601160045260245ffd5b5f610a1d826106fb565b91507fffffffffffffffffffffffffffffffffffffffffffffffffffffffffffffffff8203610a4f57610a4e6109e6565b5b600182019050919050565b5f81905092915050565b5f819050815f5260205f209050919050565b5f8154610a82816107b1565b610a8c8186610a5a565b9450600182165f8114610aa65760018114610abb57610aed565b60ff1983168652811515820286019350610aed565b610ac485610a64565b5f5b83811015610ae557815481890152600182019150602081019050610ac6565b838801955050505b50505092915050565b5f610b018284610a76565b91508190509291505056fea26469706673582212206d275614ad283b3b17201df58dc2f6e88ffdb80d69e190a7f0da404b7ee2515264736f6c634300081a0033",
					"opcodes": "PUSH1 0x80 PUSH1 0x40 MSTORE CALLVALUE DUP1 ISZERO PUSH2 0xF JUMPI PUSH0 DUP1 REVERT JUMPDEST POP PUSH1 0x40 MLOAD PUSH2 0x12D3 CODESIZE SUB DUP1 PUSH2 0x12D3 DUP4 CODECOPY DUP2 DUP2 ADD PUSH1 0x40 MSTORE DUP2 ADD SWAP1 PUSH2 0x31 SWAP2 SWAP1 PUSH2 0x3E4 JUMP JUMPDEST CALLER PUSH1 0x2 PUSH0 PUSH2 0x100 EXP DUP2 SLOAD DUP2 PUSH20 0xFFFFFFFFFFFFFFFFFFFFFFFFFFFFFFFFFFFFFFFF MUL NOT AND SWAP1 DUP4 PUSH20 0xFFFFFFFFFFFFFFFFFFFFFFFFFFFFFFFFFFFFFFFF AND MUL OR SWAP1 SSTORE POP DUP1 PUSH1 0x1 SWAP1 DUP1 MLOAD SWAP1 PUSH1 0x20 ADD SWAP1 PUSH2 0x87 SWAP3 SWAP2 SWAP1 PUSH2 0xE3 JUMP JUMPDEST POP PUSH0 JUMPDEST DUP2 MLOAD DUP2 LT ISZERO PUSH2 0xDC JUMPI PUSH0 DUP1 DUP4 DUP4 DUP2 MLOAD DUP2 LT PUSH2 0xA8 JUMPI PUSH2 0xA7 PUSH2 0x42B JUMP JUMPDEST JUMPDEST PUSH1 0x20 MUL PUSH1 0x20 ADD ADD MLOAD PUSH1 0x40 MLOAD PUSH2 0xBD SWAP2 SWAP1 PUSH2 0x49C JUMP JUMPDEST SWAP1 DUP2 MSTORE PUSH1 0x20 ADD PUSH1 0x40 MLOAD DUP1 SWAP2 SUB SWAP1 KECCAK256 DUP2 SWAP1 SSTORE POP DUP1 DUP1 PUSH1 0x1 ADD SWAP2 POP POP PUSH2 0x8A JUMP JUMPDEST POP POP PUSH2 0x784 JUMP JUMPDEST DUP3 DUP1 SLOAD DUP3 DUP3 SSTORE SWAP1 PUSH0 MSTORE PUSH1 0x20 PUSH0 KECCAK256 SWAP1 DUP2 ADD SWAP3 DUP3 ISZERO PUSH2 0x129 JUMPI SWAP2 PUSH1 0x20 MUL DUP3 ADD JUMPDEST DUP3 DUP2 GT ISZERO PUSH2 0x128 JUMPI DUP3 MLOAD DUP3 SWAP1 DUP2 PUSH2 0x118 SWAP2 SWAP1 PUSH2 0x6B5 JUMP JUMPDEST POP SWAP2 PUSH1 0x20 ADD SWAP2 SWAP1 PUSH1 0x1 ADD SWAP1 PUSH2 0x101 JUMP JUMPDEST JUMPDEST POP SWAP1 POP PUSH2 0x136 SWAP2 SWAP1 PUSH2 0x13A JUMP JUMPDEST POP SWAP1 JUMP JUMPDEST JUMPDEST DUP1 DUP3 GT ISZERO PUSH2 0x159 JUMPI PUSH0 DUP2 DUP2 PUSH2 0x150 SWAP2 SWAP1 PUSH2 0x15D JUMP JUMPDEST POP PUSH1 0x1 ADD PUSH2 0x13B JUMP JUMPDEST POP SWAP1 JUMP JUMPDEST POP DUP1 SLOAD PUSH2 0x169 SWAP1 PUSH2 0x4DF JUMP JUMPDEST PUSH0 DUP3 SSTORE DUP1 PUSH1 0x1F LT PUSH2 0x17A JUMPI POP PUSH2 0x197 JUMP JUMPDEST PUSH1 0x1F ADD PUSH1 0x20 SWAP1 DIV SWAP1 PUSH0 MSTORE PUSH1 0x20 PUSH0 KECCAK256 SWAP1 DUP2 ADD SWAP1 PUSH2 0x196 SWAP2 SWAP1 PUSH2 0x19A JUMP JUMPDEST JUMPDEST POP JUMP JUMPDEST JUMPDEST DUP1 DUP3 GT ISZERO PUSH2 0x1B1 JUMPI PUSH0 DUP2 PUSH0 SWAP1 SSTORE POP PUSH1 0x1 ADD PUSH2 0x19B JUMP JUMPDEST POP SWAP1 JUMP JUMPDEST PUSH0 PUSH1 0x40 MLOAD SWAP1 POP SWAP1 JUMP JUMPDEST PUSH0 DUP1 REVERT JUMPDEST PUSH0 DUP1 REVERT JUMPDEST PUSH0 DUP1 REVERT JUMPDEST PUSH0 PUSH1 0x1F NOT PUSH1 0x1F DUP4 ADD AND SWAP1 POP SWAP2 SWAP1 POP JUMP JUMPDEST PUSH32 0x4E487B7100000000000000000000000000000000000000000000000000000000 PUSH0 MSTORE PUSH1 0x41 PUSH1 0x4 MSTORE PUSH1 0x24 PUSH0 REVERT JUMPDEST PUSH2 0x210 DUP3 PUSH2 0x1CA JUMP JUMPDEST DUP2 ADD DUP2 DUP2 LT PUSH8 0xFFFFFFFFFFFFFFFF DUP3 GT OR ISZERO PUSH2 0x22F JUMPI PUSH2 0x22E PUSH2 0x1DA JUMP JUMPDEST JUMPDEST DUP1 PUSH1 0x40 MSTORE POP POP POP JUMP JUMPDEST PUSH0 PUSH2 0x241 PUSH2 0x1B5 JUMP JUMPDEST SWAP1 POP PUSH2 0x24D DUP3 DUP3 PUSH2 0x207 JUMP JUMPDEST SWAP2 SWAP1 POP JUMP JUMPDEST PUSH0 PUSH8 0xFFFFFFFFFFFFFFFF DUP3 GT ISZERO PUSH2 0x26C JUMPI PUSH2 0x26B PUSH2 0x1DA JUMP JUMPDEST JUMPDEST PUSH1 0x20 DUP3 MUL SWAP1 POP PUSH1 0x20 DUP2 ADD SWAP1 POP SWAP2 SWAP1 POP JUMP JUMPDEST PUSH0 DUP1 REVERT JUMPDEST PUSH0 DUP1 REVERT JUMPDEST PUSH0 PUSH8 0xFFFFFFFFFFFFFFFF DUP3 GT ISZERO PUSH2 0x29F JUMPI PUSH2 0x29E PUSH2 0x1DA JUMP JUMPDEST JUMPDEST PUSH2 0x2A8 DUP3 PUSH2 0x1CA JUMP JUMPDEST SWAP1 POP PUSH1 0x20 DUP2 ADD SWAP1 POP SWAP2 SWAP1 POP JUMP JUMPDEST DUP3 DUP2 DUP4 MCOPY PUSH0 DUP4 DUP4 ADD MSTORE POP POP POP JUMP JUMPDEST PUSH0 PUSH2 0x2D5 PUSH2 0x2D0 DUP5 PUSH2 0x285 JUMP JUMPDEST PUSH2 0x238 JUMP JUMPDEST SWAP1 POP DUP3 DUP2 MSTORE PUSH1 0x20 DUP2 ADD DUP5 DUP5 DUP5 ADD GT ISZERO PUSH2 0x2F1 JUMPI PUSH2 0x2F0 PUSH2 0x281 JUMP JUMPDEST JUMPDEST PUSH2 0x2FC DUP5 DUP3 DUP6 PUSH2 0x2B5 JUMP JUMPDEST POP SWAP4 SWAP3 POP POP POP JUMP JUMPDEST PUSH0 DUP3 PUSH1 0x1F DUP4 ADD SLT PUSH2 0x318 JUMPI PUSH2 0x317 PUSH2 0x1C6 JUMP JUMPDEST JUMPDEST DUP2 MLOAD PUSH2 0x328 DUP5 DUP3 PUSH1 0x20 DUP7 ADD PUSH2 0x2C3 JUMP JUMPDEST SWAP2 POP POP SWAP3 SWAP2 POP POP JUMP JUMPDEST PUSH0 PUSH2 0x343 PUSH2 0x33E DUP5 PUSH2 0x252 JUMP JUMPDEST PUSH2 0x238 JUMP JUMPDEST SWAP1 POP DUP1 DUP4 DUP3 MSTORE PUSH1 0x20 DUP3 ADD SWAP1 POP PUSH1 0x20 DUP5 MUL DUP4 ADD DUP6 DUP2 GT ISZERO PUSH2 0x366 JUMPI PUSH2 0x365 PUSH2 0x27D JUMP JUMPDEST JUMPDEST DUP4 JUMPDEST DUP2 DUP2 LT ISZERO PUSH2 0x3AD JUMPI DUP1 MLOAD PUSH8 0xFFFFFFFFFFFFFFFF DUP2 GT ISZERO PUSH2 0x38B JUMPI PUSH2 0x38A PUSH2 0x1C6 JUMP JUMPDEST JUMPDEST DUP1 DUP7 ADD PUSH2 0x398 DUP10 DUP3 PUSH2 0x304 JUMP JUMPDEST DUP6 MSTORE PUSH1 0x20 DUP6 ADD SWAP5 POP POP POP PUSH1 0x20 DUP2 ADD SWAP1 POP PUSH2 0x368 JUMP JUMPDEST POP POP POP SWAP4 SWAP3 POP POP POP JUMP JUMPDEST PUSH0 DUP3 PUSH1 0x1F DUP4 ADD SLT PUSH2 0x3CB JUMPI PUSH2 0x3CA PUSH2 0x1C6 JUMP JUMPDEST JUMPDEST DUP2 MLOAD PUSH2 0x3DB DUP5 DUP3 PUSH1 0x20 DUP7 ADD PUSH2 0x331 JUMP JUMPDEST SWAP2 POP POP SWAP3 SWAP2 POP POP JUMP JUMPDEST PUSH0 PUSH1 0x20 DUP3 DUP5 SUB SLT ISZERO PUSH2 0x3F9 JUMPI PUSH2 0x3F8 PUSH2 0x1BE JUMP JUMPDEST JUMPDEST PUSH0 DUP3 ADD MLOAD PUSH8 0xFFFFFFFFFFFFFFFF DUP2 GT ISZERO PUSH2 0x416 JUMPI PUSH2 0x415 PUSH2 0x1C2 JUMP JUMPDEST JUMPDEST PUSH2 0x422 DUP5 DUP3 DUP6 ADD PUSH2 0x3B7 JUMP JUMPDEST SWAP2 POP POP SWAP3 SWAP2 POP POP JUMP JUMPDEST PUSH32 0x4E487B7100000000000000000000000000000000000000000000000000000000 PUSH0 MSTORE PUSH1 0x32 PUSH1 0x4 MSTORE PUSH1 0x24 PUSH0 REVERT JUMPDEST PUSH0 DUP2 MLOAD SWAP1 POP SWAP2 SWAP1 POP JUMP JUMPDEST PUSH0 DUP2 SWAP1 POP SWAP3 SWAP2 POP POP JUMP JUMPDEST PUSH0 PUSH2 0x476 DUP3 PUSH2 0x458 JUMP JUMPDEST PUSH2 0x480 DUP2 DUP6 PUSH2 0x462 JUMP JUMPDEST SWAP4 POP PUSH2 0x490 DUP2 DUP6 PUSH1 0x20 DUP7 ADD PUSH2 0x2B5 JUMP JUMPDEST DUP1 DUP5 ADD SWAP2 POP POP SWAP3 SWAP2 POP POP JUMP JUMPDEST PUSH0 PUSH2 0x4A7 DUP3 DUP5 PUSH2 0x46C JUMP JUMPDEST SWAP2 POP DUP2 SWAP1 POP SWAP3 SWAP2 POP POP JUMP JUMPDEST PUSH32 0x4E487B7100000000000000000000000000000000000000000000000000000000 PUSH0 MSTORE PUSH1 0x22 PUSH1 0x4 MSTORE PUSH1 0x24 PUSH0 REVERT JUMPDEST PUSH0 PUSH1 0x2 DUP3 DIV SWAP1 POP PUSH1 0x1 DUP3 AND DUP1 PUSH2 0x4F6 JUMPI PUSH1 0x7F DUP3 AND SWAP2 POP JUMPDEST PUSH1 0x20 DUP3 LT DUP2 SUB PUSH2 0x509 JUMPI PUSH2 0x508 PUSH2 0x4B2 JUMP JUMPDEST JUMPDEST POP SWAP2 SWAP1 POP JUMP JUMPDEST PUSH0 DUP2 SWAP1 POP DUP2 PUSH0 MSTORE PUSH1 0x20 PUSH0 KECCAK256 SWAP1 POP SWAP2 SWAP1 POP JUMP JUMPDEST PUSH0 PUSH1 0x20 PUSH1 0x1F DUP4 ADD DIV SWAP1 POP SWAP2 SWAP1 POP JUMP JUMPDEST PUSH0 DUP3 DUP3 SHL SWAP1 POP SWAP3 SWAP2 POP POP JUMP JUMPDEST PUSH0 PUSH1 0x8 DUP4 MUL PUSH2 0x56B PUSH32 0xFFFFFFFFFFFFFFFFFFFFFFFFFFFFFFFFFFFFFFFFFFFFFFFFFFFFFFFFFFFFFFFF DUP3 PUSH2 0x530 JUMP JUMPDEST PUSH2 0x575 DUP7 DUP4 PUSH2 0x530 JUMP JUMPDEST SWAP6 POP DUP1 NOT DUP5 AND SWAP4 POP DUP1 DUP7 AND DUP5 OR SWAP3 POP POP POP SWAP4 SWAP3 POP POP POP JUMP JUMPDEST PUSH0 DUP2 SWAP1 POP SWAP2 SWAP1 POP JUMP JUMPDEST PUSH0 DUP2 SWAP1 POP SWAP2 SWAP1 POP JUMP JUMPDEST PUSH0 PUSH2 0x5B9 PUSH2 0x5B4 PUSH2 0x5AF DUP5 PUSH2 0x58D JUMP JUMPDEST PUSH2 0x596 JUMP JUMPDEST PUSH2 0x58D JUMP JUMPDEST SWAP1 POP SWAP2 SWAP1 POP JUMP JUMPDEST PUSH0 DUP2 SWAP1 POP SWAP2 SWAP1 POP JUMP JUMPDEST PUSH2 0x5D2 DUP4 PUSH2 0x59F JUMP JUMPDEST PUSH2 0x5E6 PUSH2 0x5DE DUP3 PUSH2 0x5C0 JUMP JUMPDEST DUP5 DUP5 SLOAD PUSH2 0x53C JUMP JUMPDEST DUP3 SSTORE POP POP POP POP JUMP JUMPDEST PUSH0 SWAP1 JUMP JUMPDEST PUSH2 0x5FA PUSH2 0x5EE JUMP JUMPDEST PUSH2 0x605 DUP2 DUP5 DUP5 PUSH2 0x5C9 JUMP JUMPDEST POP POP POP JUMP JUMPDEST JUMPDEST DUP2 DUP2 LT ISZERO PUSH2 0x628 JUMPI PUSH2 0x61D PUSH0 DUP3 PUSH2 0x5F2 JUMP JUMPDEST PUSH1 0x1 DUP2 ADD SWAP1 POP PUSH2 0x60B JUMP JUMPDEST POP POP JUMP JUMPDEST PUSH1 0x1F DUP3 GT ISZERO PUSH2 0x66D JUMPI PUSH2 0x63E DUP2 PUSH2 0x50F JUMP JUMPDEST PUSH2 0x647 DUP5 PUSH2 0x521 JUMP JUMPDEST DUP2 ADD PUSH1 0x20 DUP6 LT ISZERO PUSH2 0x656 JUMPI DUP2 SWAP1 POP JUMPDEST PUSH2 0x66A PUSH2 0x662 DUP6 PUSH2 0x521 JUMP JUMPDEST DUP4 ADD DUP3 PUSH2 0x60A JUMP JUMPDEST POP POP JUMPDEST POP POP POP JUMP JUMPDEST PUSH0 DUP3 DUP3 SHR SWAP1 POP SWAP3 SWAP2 POP POP JUMP JUMPDEST PUSH0 PUSH2 0x68D PUSH0 NOT DUP5 PUSH1 0x8 MUL PUSH2 0x672 JUMP JUMPDEST NOT DUP1 DUP4 AND SWAP2 POP POP SWAP3 SWAP2 POP POP JUMP JUMPDEST PUSH0 PUSH2 0x6A5 DUP4 DUP4 PUSH2 0x67E JUMP JUMPDEST SWAP2 POP DUP3 PUSH1 0x2 MUL DUP3 OR SWAP1 POP SWAP3 SWAP2 POP POP JUMP JUMPDEST PUSH2 0x6BE DUP3 PUSH2 0x458 JUMP JUMPDEST PUSH8 0xFFFFFFFFFFFFFFFF DUP2 GT ISZERO PUSH2 0x6D7 JUMPI PUSH2 0x6D6 PUSH2 0x1DA JUMP JUMPDEST JUMPDEST PUSH2 0x6E1 DUP3 SLOAD PUSH2 0x4DF JUMP JUMPDEST PUSH2 0x6EC DUP3 DUP3 DUP6 PUSH2 0x62C JUMP JUMPDEST PUSH0 PUSH1 0x20 SWAP1 POP PUSH1 0x1F DUP4 GT PUSH1 0x1 DUP2 EQ PUSH2 0x71D JUMPI PUSH0 DUP5 ISZERO PUSH2 0x70B JUMPI DUP3 DUP8 ADD MLOAD SWAP1 POP JUMPDEST PUSH2 0x715 DUP6 DUP3 PUSH2 0x69A JUMP JUMPDEST DUP7 SSTORE POP PUSH2 0x77C JUMP JUMPDEST PUSH1 0x1F NOT DUP5 AND PUSH2 0x72B DUP7 PUSH2 0x50F JUMP JUMPDEST PUSH0 JUMPDEST DUP3 DUP2 LT ISZERO PUSH2 0x752 JUMPI DUP5 DUP10 ADD MLOAD DUP3 SSTORE PUSH1 0x1 DUP3 ADD SWAP2 POP PUSH1 0x20 DUP6 ADD SWAP5 POP PUSH1 0x20 DUP2 ADD SWAP1 POP PUSH2 0x72D JUMP JUMPDEST DUP7 DUP4 LT ISZERO PUSH2 0x76F JUMPI DUP5 DUP10 ADD MLOAD PUSH2 0x76B PUSH1 0x1F DUP10 AND DUP3 PUSH2 0x67E JUMP JUMPDEST DUP4 SSTORE POP JUMPDEST PUSH1 0x1 PUSH1 0x2 DUP9 MUL ADD DUP9 SSTORE POP POP POP JUMPDEST POP POP POP POP POP POP JUMP JUMPDEST PUSH2 0xB42 DUP1 PUSH2 0x791 PUSH0 CODECOPY PUSH0 RETURN INVALID PUSH1 0x80 PUSH1 0x40 MSTORE CALLVALUE DUP1 ISZERO PUSH2 0xF JUMPI PUSH0 DUP1 REVERT JUMPDEST POP PUSH1 0x4 CALLDATASIZE LT PUSH2 0x55 JUMPI PUSH0 CALLDATALOAD PUSH1 0xE0 SHR DUP1 PUSH4 0x2E6997FE EQ PUSH2 0x59 JUMPI DUP1 PUSH4 0x805265E5 EQ PUSH2 0x77 JUMPI DUP1 PUSH4 0x8DA5CB5B EQ PUSH2 0xA7 JUMPI DUP1 PUSH4 0xB9830FF1 EQ PUSH2 0xC5 JUMPI DUP1 PUSH4 0xFC36E15B EQ PUSH2 0xCF JUMPI JUMPDEST PUSH0 DUP1 REVERT JUMPDEST PUSH2 0x61 PUSH2 0xEB JUMP JUMPDEST PUSH1 0x40 MLOAD PUSH2 0x6E SWAP2 SWAP1 PUSH2 0x557 JUMP JUMPDEST PUSH1 0x40 MLOAD DUP1 SWAP2 SUB SWAP1 RETURN JUMPDEST PUSH2 0x91 PUSH1 0x4 DUP1 CALLDATASIZE SUB DUP2 ADD SWAP1 PUSH2 0x8C SWAP2 SWAP1 PUSH2 0x6B4 JUMP JUMPDEST PUSH2 0x1BF JUMP JUMPDEST PUSH1 0x40 MLOAD PUSH2 0x9E SWAP2 SWAP1 PUSH2 0x713 JUMP JUMPDEST PUSH1 0x40 MLOAD DUP1 SWAP2 SUB SWAP1 RETURN JUMPDEST PUSH2 0xAF PUSH2 0x22D JUMP JUMPDEST PUSH1 0x40 MLOAD PUSH2 0xBC SWAP2 SWAP1 PUSH2 0x76B JUMP JUMPDEST PUSH1 0x40 MLOAD DUP1 SWAP2 SUB SWAP1 RETURN JUMPDEST PUSH2 0xCD PUSH2 0x252 JUMP JUMPDEST STOP JUMPDEST PUSH2 0xE9 PUSH1 0x4 DUP1 CALLDATASIZE SUB DUP2 ADD SWAP1 PUSH2 0xE4 SWAP2 SWAP1 PUSH2 0x6B4 JUMP JUMPDEST PUSH2 0x33D JUMP JUMPDEST STOP JUMPDEST PUSH1 0x60 PUSH1 0x1 DUP1 SLOAD DUP1 PUSH1 0x20 MUL PUSH1 0x20 ADD PUSH1 0x40 MLOAD SWAP1 DUP2 ADD PUSH1 0x40 MSTORE DUP1 SWAP3 SWAP2 SWAP1 DUP2 DUP2 MSTORE PUSH1 0x20 ADD PUSH0 SWAP1 JUMPDEST DUP3 DUP3 LT ISZERO PUSH2 0x1B6 JUMPI DUP4 DUP3 SWAP1 PUSH0 MSTORE PUSH1 0x20 PUSH0 KECCAK256 ADD DUP1 SLOAD PUSH2 0x12B SWAP1 PUSH2 0x7B1 JUMP JUMPDEST DUP1 PUSH1 0x1F ADD PUSH1 0x20 DUP1 SWAP2 DIV MUL PUSH1 0x20 ADD PUSH1 0x40 MLOAD SWAP1 DUP2 ADD PUSH1 0x40 MSTORE DUP1 SWAP3 SWAP2 SWAP1 DUP2 DUP2 MSTORE PUSH1 0x20 ADD DUP3 DUP1 SLOAD PUSH2 0x157 SWAP1 PUSH2 0x7B1 JUMP JUMPDEST DUP1 ISZERO PUSH2 0x1A2 JUMPI DUP1 PUSH1 0x1F LT PUSH2 0x179 JUMPI PUSH2 0x100 DUP1 DUP4 SLOAD DIV MUL DUP4 MSTORE SWAP2 PUSH1 0x20 ADD SWAP2 PUSH2 0x1A2 JUMP JUMPDEST DUP3 ADD SWAP2 SWAP1 PUSH0 MSTORE PUSH1 0x20 PUSH0 KECCAK256 SWAP1 JUMPDEST DUP2 SLOAD DUP2 MSTORE SWAP1 PUSH1 0x1 ADD SWAP1 PUSH1 0x20 ADD DUP1 DUP4 GT PUSH2 0x185 JUMPI DUP3 SWAP1 SUB PUSH1 0x1F AND DUP3 ADD SWAP2 JUMPDEST POP POP POP POP POP DUP2 MSTORE PUSH1 0x20 ADD SWAP1 PUSH1 0x1 ADD SWAP1 PUSH2 0x10E JUMP JUMPDEST POP POP POP POP SWAP1 POP SWAP1 JUMP JUMPDEST PUSH0 PUSH2 0x1C9 DUP3 PUSH2 0x3BA JUMP JUMPDEST PUSH2 0x208 JUMPI PUSH1 0x40 MLOAD PUSH32 0x8C379A000000000000000000000000000000000000000000000000000000000 DUP2 MSTORE PUSH1 0x4 ADD PUSH2 0x1FF SWAP1 PUSH2 0x83B JUMP JUMPDEST PUSH1 0x40 MLOAD DUP1 SWAP2 SUB SWAP1 REVERT JUMPDEST PUSH0 DUP3 PUSH1 0x40 MLOAD PUSH2 0x217 SWAP2 SWAP1 PUSH2 0x893 JUMP JUMPDEST SWAP1 DUP2 MSTORE PUSH1 0x20 ADD PUSH1 0x40 MLOAD DUP1 SWAP2 SUB SWAP1 KECCAK256 SLOAD SWAP1 POP SWAP2 SWAP1 POP JUMP JUMPDEST PUSH1 0x2 PUSH0 SWAP1 SLOAD SWAP1 PUSH2 0x100 EXP SWAP1 DIV PUSH20 0xFFFFFFFFFFFFFFFFFFFFFFFFFFFFFFFFFFFFFFFF AND DUP2 JUMP JUMPDEST PUSH1 0x2 PUSH0 SWAP1 SLOAD SWAP1 PUSH2 0x100 EXP SWAP1 DIV PUSH20 0xFFFFFFFFFFFFFFFFFFFFFFFFFFFFFFFFFFFFFFFF AND PUSH20 0xFFFFFFFFFFFFFFFFFFFFFFFFFFFFFFFFFFFFFFFF AND CALLER PUSH20 0xFFFFFFFFFFFFFFFFFFFFFFFFFFFFFFFFFFFFFFFF AND EQ PUSH2 0x2E1 JUMPI PUSH1 0x40 MLOAD PUSH32 0x8C379A000000000000000000000000000000000000000000000000000000000 DUP2 MSTORE PUSH1 0x4 ADD PUSH2 0x2D8 SWAP1 PUSH2 0x8F3 JUMP JUMPDEST PUSH1 0x40 MLOAD DUP1 SWAP2 SUB SWAP1 REVERT JUMPDEST PUSH0 JUMPDEST PUSH1 0x1 DUP1 SLOAD SWAP1 POP DUP2 LT ISZERO PUSH2 0x33A JUMPI PUSH0 DUP1 PUSH1 0x1 DUP4 DUP2 SLOAD DUP2 LT PUSH2 0x306 JUMPI PUSH2 0x305 PUSH2 0x911 JUMP JUMPDEST JUMPDEST SWAP1 PUSH0 MSTORE PUSH1 0x20 PUSH0 KECCAK256 ADD PUSH1 0x40 MLOAD PUSH2 0x31B SWAP2 SWAP1 PUSH2 0x9D0 JUMP JUMPDEST SWAP1 DUP2 MSTORE PUSH1 0x20 ADD PUSH1 0x40 MLOAD DUP1 SWAP2 SUB SWAP1 KECCAK256 DUP2 SWAP1 SSTORE POP DUP1 DUP1 PUSH1 0x1 ADD SWAP2 POP POP PUSH2 0x2E3 JUMP JUMPDEST POP JUMP JUMPDEST PUSH2 0x346 DUP2 PUSH2 0x3BA JUMP JUMPDEST PUSH2 0x385 JUMPI PUSH1 0x40 MLOAD PUSH32 0x8C379A000000000000000000000000000000000000000000000000000000000 DUP2 MSTORE PUSH1 0x4 ADD PUSH2 0x37C SWAP1 PUSH2 0x83B JUMP JUMPDEST PUSH1 0x40 MLOAD DUP1 SWAP2 SUB SWAP1 REVERT JUMPDEST PUSH0 DUP2 PUSH1 0x40 MLOAD PUSH2 0x394 SWAP2 SWAP1 PUSH2 0x893 JUMP JUMPDEST SWAP1 DUP2 MSTORE PUSH1 0x20 ADD PUSH1 0x40 MLOAD DUP1 SWAP2 SUB SWAP1 KECCAK256 PUSH0 DUP2 SLOAD DUP1 SWAP3 SWAP2 SWAP1 PUSH2 0x3B2 SWAP1 PUSH2 0xA13 JUMP JUMPDEST SWAP2 SWAP1 POP SSTORE POP POP JUMP JUMPDEST PUSH0 DUP1 PUSH0 SWAP1 POP JUMPDEST PUSH1 0x1 DUP1 SLOAD SWAP1 POP DUP2 LT ISZERO PUSH2 0x422 JUMPI DUP3 DUP1 MLOAD SWAP1 PUSH1 0x20 ADD KECCAK256 PUSH1 0x1 DUP3 DUP2 SLOAD DUP2 LT PUSH2 0x3E9 JUMPI PUSH2 0x3E8 PUSH2 0x911 JUMP JUMPDEST JUMPDEST SWAP1 PUSH0 MSTORE PUSH1 0x20 PUSH0 KECCAK256 ADD PUSH1 0x40 MLOAD PUSH2 0x3FE SWAP2 SWAP1 PUSH2 0xAF6 JUMP JUMPDEST PUSH1 0x40 MLOAD DUP1 SWAP2 SUB SWAP1 KECCAK256 SUB PUSH2 0x415 JUMPI PUSH1 0x1 SWAP2 POP POP PUSH2 0x427 JUMP JUMPDEST DUP1 DUP1 PUSH1 0x1 ADD SWAP2 POP POP PUSH2 0x3C0 JUMP JUMPDEST POP PUSH0 SWAP1 POP JUMPDEST SWAP2 SWAP1 POP JUMP JUMPDEST PUSH0 DUP2 MLOAD SWAP1 POP SWAP2 SWAP1 POP JUMP JUMPDEST PUSH0 DUP3 DUP3 MSTORE PUSH1 0x20 DUP3 ADD SWAP1 POP SWAP3 SWAP2 POP POP JUMP JUMPDEST PUSH0 DUP2 SWAP1 POP PUSH1 0x20 DUP3 ADD SWAP1 POP SWAP2 SWAP1 POP JUMP JUMPDEST PUSH0 DUP2 MLOAD SWAP1 POP SWAP2 SWAP1 POP JUMP JUMPDEST PUSH0 DUP3 DUP3 MSTORE PUSH1 0x20 DUP3 ADD SWAP1 POP SWAP3 SWAP2 POP POP JUMP JUMPDEST DUP3 DUP2 DUP4 MCOPY PUSH0 DUP4 DUP4 ADD MSTORE POP POP POP JUMP JUMPDEST PUSH0 PUSH1 0x1F NOT PUSH1 0x1F DUP4 ADD AND SWAP1 POP SWAP2 SWAP1 POP JUMP JUMPDEST PUSH0 PUSH2 0x497 DUP3 PUSH2 0x455 JUMP JUMPDEST PUSH2 0x4A1 DUP2 DUP6 PUSH2 0x45F JUMP JUMPDEST SWAP4 POP PUSH2 0x4B1 DUP2 DUP6 PUSH1 0x20 DUP7 ADD PUSH2 0x46F JUMP JUMPDEST PUSH2 0x4BA DUP2 PUSH2 0x47D JUMP JUMPDEST DUP5 ADD SWAP2 POP POP SWAP3 SWAP2 POP POP JUMP JUMPDEST PUSH0 PUSH2 0x4D0 DUP4 DUP4 PUSH2 0x48D JUMP JUMPDEST SWAP1 POP SWAP3 SWAP2 POP POP JUMP JUMPDEST PUSH0 PUSH1 0x20 DUP3 ADD SWAP1 POP SWAP2 SWAP1 POP JUMP JUMPDEST PUSH0 PUSH2 0x4EE DUP3 PUSH2 0x42C JUMP JUMPDEST PUSH2 0x4F8 DUP2 DUP6 PUSH2 0x436 JUMP JUMPDEST SWAP4 POP DUP4 PUSH1 0x20 DUP3 MUL DUP6 ADD PUSH2 0x50A DUP6 PUSH2 0x446 JUMP JUMPDEST DUP1 PUSH0 JUMPDEST DUP6 DUP2 LT ISZERO PUSH2 0x545 JUMPI DUP5 DUP5 SUB DUP10 MSTORE DUP2 MLOAD PUSH2 0x526 DUP6 DUP3 PUSH2 0x4C5 JUMP JUMPDEST SWAP5 POP PUSH2 0x531 DUP4 PUSH2 0x4D8 JUMP JUMPDEST SWAP3 POP PUSH1 0x20 DUP11 ADD SWAP10 POP POP PUSH1 0x1 DUP2 ADD SWAP1 POP PUSH2 0x50D JUMP JUMPDEST POP DUP3 SWAP8 POP DUP8 SWAP6 POP POP POP POP POP POP SWAP3 SWAP2 POP POP JUMP JUMPDEST PUSH0 PUSH1 0x20 DUP3 ADD SWAP1 POP DUP2 DUP2 SUB PUSH0 DUP4 ADD MSTORE PUSH2 0x56F DUP2 DUP5 PUSH2 0x4E4 JUMP JUMPDEST SWAP1 POP SWAP3 SWAP2 POP POP JUMP JUMPDEST PUSH0 PUSH1 0x40 MLOAD SWAP1 POP SWAP1 JUMP JUMPDEST PUSH0 DUP1 REVERT JUMPDEST PUSH0 DUP1 REVERT JUMPDEST PUSH0 DUP1 REVERT JUMPDEST PUSH0 DUP1 REVERT JUMPDEST PUSH32 0x4E487B7100000000000000000000000000000000000000000000000000000000 PUSH0 MSTORE PUSH1 0x41 PUSH1 0x4 MSTORE PUSH1 0x24 PUSH0 REVERT JUMPDEST PUSH2 0x5C6 DUP3 PUSH2 0x47D JUMP JUMPDEST DUP2 ADD DUP2 DUP2 LT PUSH8 0xFFFFFFFFFFFFFFFF DUP3 GT OR ISZERO PUSH2 0x5E5 JUMPI PUSH2 0x5E4 PUSH2 0x590 JUMP JUMPDEST JUMPDEST DUP1 PUSH1 0x40 MSTORE POP POP POP JUMP JUMPDEST PUSH0 PUSH2 0x5F7 PUSH2 0x577 JUMP JUMPDEST SWAP1 POP PUSH2 0x603 DUP3 DUP3 PUSH2 0x5BD JUMP JUMPDEST SWAP2 SWAP1 POP JUMP JUMPDEST PUSH0 PUSH8 0xFFFFFFFFFFFFFFFF DUP3 GT ISZERO PUSH2 0x622 JUMPI PUSH2 0x621 PUSH2 0x590 JUMP JUMPDEST JUMPDEST PUSH2 0x62B DUP3 PUSH2 0x47D JUMP JUMPDEST SWAP1 POP PUSH1 0x20 DUP2 ADD SWAP1 POP SWAP2 SWAP1 POP JUMP JUMPDEST DUP3 DUP2 DUP4 CALLDATACOPY PUSH0 DUP4 DUP4 ADD MSTORE POP POP POP JUMP JUMPDEST PUSH0 PUSH2 0x658 PUSH2 0x653 DUP5 PUSH2 0x608 JUMP JUMPDEST PUSH2 0x5EE JUMP JUMPDEST SWAP1 POP DUP3 DUP2 MSTORE PUSH1 0x20 DUP2 ADD DUP5 DUP5 DUP5 ADD GT ISZERO PUSH2 0x674 JUMPI PUSH2 0x673 PUSH2 0x58C JUMP JUMPDEST JUMPDEST PUSH2 0x67F DUP5 DUP3 DUP6 PUSH2 0x638 JUMP JUMPDEST POP SWAP4 SWAP3 POP POP POP JUMP JUMPDEST PUSH0 DUP3 PUSH1 0x1F DUP4 ADD SLT PUSH2 0x69B JUMPI PUSH2 0x69A PUSH2 0x588 JUMP JUMPDEST JUMPDEST DUP2 CALLDATALOAD PUSH2 0x6AB DUP5 DUP3 PUSH1 0x20 DUP7 ADD PUSH2 0x646 JUMP JUMPDEST SWAP2 POP POP SWAP3 SWAP2 POP POP JUMP JUMPDEST PUSH0 PUSH1 0x20 DUP3 DUP5 SUB SLT ISZERO PUSH2 0x6C9 JUMPI PUSH2 0x6C8 PUSH2 0x580 JUMP JUMPDEST JUMPDEST PUSH0 DUP3 ADD CALLDATALOAD PUSH8 0xFFFFFFFFFFFFFFFF DUP2 GT ISZERO PUSH2 0x6E6 JUMPI PUSH2 0x6E5 PUSH2 0x584 JUMP JUMPDEST JUMPDEST PUSH2 0x6F2 DUP5 DUP3 DUP6 ADD PUSH2 0x687 JUMP JUMPDEST SWAP2 POP POP SWAP3 SWAP2 POP POP JUMP JUMPDEST PUSH0 DUP2 SWAP1 POP SWAP2 SWAP1 POP JUMP JUMPDEST PUSH2 0x70D DUP2 PUSH2 0x6FB JUMP JUMPDEST DUP3 MSTORE POP POP JUMP JUMPDEST PUSH0 PUSH1 0x20 DUP3 ADD SWAP1 POP PUSH2 0x726 PUSH0 DUP4 ADD DUP5 PUSH2 0x704 JUMP JUMPDEST SWAP3 SWAP2 POP POP JUMP JUMPDEST PUSH0 PUSH20 0xFFFFFFFFFFFFFFFFFFFFFFFFFFFFFFFFFFFFFFFF DUP3 AND SWAP1 POP SWAP2 SWAP1 POP JUMP JUMPDEST PUSH0 PUSH2 0x755 DUP3 PUSH2 0x72C JUMP JUMPDEST SWAP1 POP SWAP2 SWAP1 POP JUMP JUMPDEST PUSH2 0x765 DUP2 PUSH2 0x74B JUMP JUMPDEST DUP3 MSTORE POP POP JUMP JUMPDEST PUSH0 PUSH1 0x20 DUP3 ADD SWAP1 POP PUSH2 0x77E PUSH0 DUP4 ADD DUP5 PUSH2 0x75C JUMP JUMPDEST SWAP3 SWAP2 POP POP JUMP JUMPDEST PUSH32 0x4E487B7100000000000000000000000000000000000000000000000000000000 PUSH0 MSTORE PUSH1 0x22 PUSH1 0x4 MSTORE PUSH1 0x24 PUSH0 REVERT JUMPDEST PUSH0 PUSH1 0x2 DUP3 DIV SWAP1 POP PUSH1 0x1 DUP3 AND DUP1 PUSH2 0x7C8 JUMPI PUSH1 0x7F DUP3 AND SWAP2 POP JUMPDEST PUSH1 0x20 DUP3 LT DUP2 SUB PUSH2 0x7DB JUMPI PUSH2 0x7DA PUSH2 0x784 JUMP JUMPDEST JUMPDEST POP SWAP2 SWAP1 POP JUMP JUMPDEST PUSH0 DUP3 DUP3 MSTORE PUSH1 0x20 DUP3 ADD SWAP1 POP SWAP3 SWAP2 POP POP JUMP JUMPDEST PUSH32 0x496E76616C69642063616E646964617465000000000000000000000000000000 PUSH0 DUP3 ADD MSTORE POP JUMP JUMPDEST PUSH0 PUSH2 0x825 PUSH1 0x11 DUP4 PUSH2 0x7E1 JUMP JUMPDEST SWAP2 POP PUSH2 0x830 DUP3 PUSH2 0x7F1 JUMP JUMPDEST PUSH1 0x20 DUP3 ADD SWAP1 POP SWAP2 SWAP1 POP JUMP JUMPDEST PUSH0 PUSH1 0x20 DUP3 ADD SWAP1 POP DUP2 DUP2 SUB PUSH0 DUP4 ADD MSTORE PUSH2 0x852 DUP2 PUSH2 0x819 JUMP JUMPDEST SWAP1 POP SWAP2 SWAP1 POP JUMP JUMPDEST PUSH0 DUP2 SWAP1 POP SWAP3 SWAP2 POP POP JUMP JUMPDEST PUSH0 PUSH2 0x86D DUP3 PUSH2 0x455 JUMP JUMPDEST PUSH2 0x877 DUP2 DUP6 PUSH2 0x859 JUMP JUMPDEST SWAP4 POP PUSH2 0x887 DUP2 DUP6 PUSH1 0x20 DUP7 ADD PUSH2 0x46F JUMP JUMPDEST DUP1 DUP5 ADD SWAP2 POP POP SWAP3 SWAP2 POP POP JUMP JUMPDEST PUSH0 PUSH2 0x89E DUP3 DUP5 PUSH2 0x863 JUMP JUMPDEST SWAP2 POP DUP2 SWAP1 POP SWAP3 SWAP2 POP POP JUMP JUMPDEST PUSH32 0x4F6E6C79206F776E65722063616E20726573657420766F746573000000000000 PUSH0 DUP3 ADD MSTORE POP JUMP JUMPDEST PUSH0 PUSH2 0x8DD PUSH1 0x1A DUP4 PUSH2 0x7E1 JUMP JUMPDEST SWAP2 POP PUSH2 0x8E8 DUP3 PUSH2 0x8A9 JUMP JUMPDEST PUSH1 0x20 DUP3 ADD SWAP1 POP SWAP2 SWAP1 POP JUMP JUMPDEST PUSH0 PUSH1 0x20 DUP3 ADD SWAP1 POP DUP2 DUP2 SUB PUSH0 DUP4 ADD MSTORE PUSH2 0x90A DUP2 PUSH2 0x8D1 JUMP JUMPDEST SWAP1 POP SWAP2 SWAP1 POP JUMP JUMPDEST PUSH32 0x4E487B7100000000000000000000000000000000000000000000000000000000 PUSH0 MSTORE PUSH1 0x32 PUSH1 0x4 MSTORE PUSH1 0x24 PUSH0 REVERT JUMPDEST PUSH0 DUP2 SWAP1 POP DUP2 PUSH0 MSTORE PUSH1 0x20 PUSH0 KECCAK256 SWAP1 POP SWAP2 SWAP1 POP JUMP JUMPDEST PUSH0 DUP2 SLOAD PUSH2 0x95C DUP2 PUSH2 0x7B1 JUMP JUMPDEST PUSH2 0x966 DUP2 DUP7 PUSH2 0x859 JUMP JUMPDEST SWAP5 POP PUSH1 0x1 DUP3 AND PUSH0 DUP2 EQ PUSH2 0x980 JUMPI PUSH1 0x1 DUP2 EQ PUSH2 0x995 JUMPI PUSH2 0x9C7 JUMP JUMPDEST PUSH1 0xFF NOT DUP4 AND DUP7 MSTORE DUP2 ISZERO ISZERO DUP3 MUL DUP7 ADD SWAP4 POP PUSH2 0x9C7 JUMP JUMPDEST PUSH2 0x99E DUP6 PUSH2 0x93E JUMP JUMPDEST PUSH0 JUMPDEST DUP4 DUP2 LT ISZERO PUSH2 0x9BF JUMPI DUP2 SLOAD DUP2 DUP10 ADD MSTORE PUSH1 0x1 DUP3 ADD SWAP2 POP PUSH1 0x20 DUP2 ADD SWAP1 POP PUSH2 0x9A0 JUMP JUMPDEST DUP4 DUP9 ADD SWAP6 POP POP POP JUMPDEST POP POP POP SWAP3 SWAP2 POP POP JUMP JUMPDEST PUSH0 PUSH2 0x9DB DUP3 DUP5 PUSH2 0x950 JUMP JUMPDEST SWAP2 POP DUP2 SWAP1 POP SWAP3 SWAP2 POP POP JUMP JUMPDEST PUSH32 0x4E487B7100000000000000000000000000000000000000000000000000000000 PUSH0 MSTORE PUSH1 0x11 PUSH1 0x4 MSTORE PUSH1 0x24 PUSH0 REVERT JUMPDEST PUSH0 PUSH2 0xA1D DUP3 PUSH2 0x6FB JUMP JUMPDEST SWAP2 POP PUSH32 0xFFFFFFFFFFFFFFFFFFFFFFFFFFFFFFFFFFFFFFFFFFFFFFFFFFFFFFFFFFFFFFFF DUP3 SUB PUSH2 0xA4F JUMPI PUSH2 0xA4E PUSH2 0x9E6 JUMP JUMPDEST JUMPDEST PUSH1 0x1 DUP3 ADD SWAP1 POP SWAP2 SWAP1 POP JUMP JUMPDEST PUSH0 DUP2 SWAP1 POP SWAP3 SWAP2 POP POP JUMP JUMPDEST PUSH0 DUP2 SWAP1 POP DUP2 PUSH0 MSTORE PUSH1 0x20 PUSH0 KECCAK256 SWAP1 POP SWAP2 SWAP1 POP JUMP JUMPDEST PUSH0 DUP2 SLOAD PUSH2 0xA82 DUP2 PUSH2 0x7B1 JUMP JUMPDEST PUSH2 0xA8C DUP2 DUP7 PUSH2 0xA5A JUMP JUMPDEST SWAP5 POP PUSH1 0x1 DUP3 AND PUSH0 DUP2 EQ PUSH2 0xAA6 JUMPI PUSH1 0x1 DUP2 EQ PUSH2 0xABB JUMPI PUSH2 0xAED JUMP JUMPDEST PUSH1 0xFF NOT DUP4 AND DUP7 MSTORE DUP2 ISZERO ISZERO DUP3 MUL DUP7 ADD SWAP4 POP PUSH2 0xAED JUMP JUMPDEST PUSH2 0xAC4 DUP6 PUSH2 0xA64 JUMP JUMPDEST PUSH0 JUMPDEST DUP4 DUP2 LT ISZERO PUSH2 0xAE5 JUMPI DUP2 SLOAD DUP2 DUP10 ADD MSTORE PUSH1 0x1 DUP3 ADD SWAP2 POP PUSH1 0x20 DUP2 ADD SWAP1 POP PUSH2 0xAC6 JUMP JUMPDEST DUP4 DUP9 ADD SWAP6 POP POP POP JUMPDEST POP POP POP SWAP3 SWAP2 POP POP JUMP JUMPDEST PUSH0 PUSH2 0xB01 DUP3 DUP5 PUSH2 0xA76 JUMP JUMPDEST SWAP2 POP DUP2 SWAP1 POP SWAP3 SWAP2 POP POP JUMP INVALID LOG2 PUSH5 0x6970667358 0x22 SLT KECCAK256 PUSH14 0x275614AD283B3B17201DF58DC2F6 0xE8 DUP16 REVERT 0xB8 0xD PUSH10 0xE190A7F0DA404B7EE251 MSTORE PUSH5 0x736F6C6343 STOP ADDMOD BYTE STOP CALLER "
				},
				"gasEstimates": {
					"creation": {
						"codeDepositCost": "576400",
						"executionCost": "infinite",
						"totalCost": "infinite"
					},
					"external": {
						"getAllCandidates()": "infinite",
						"getVotes(string)": "infinite",
						"owner()": "2530",
						"resetVotes()": "infinite",
						"vote(string)": "infinite"
					},
					"internal": {
						"validCandidate(string memory)": "infinite"
					}
				},
				"methodIdentifiers": {
					"getAllCandidates()": "2e6997fe",
					"getVotes(string)": "805265e5",
					"owner()": "8da5cb5b",
					"resetVotes()": "b9830ff1",
					"vote(string)": "fc36e15b"
				}
			},
			"storageLayout": {
				"storage": [
					{
						"astId": 5,
						"contract": "homework/voting.sol:voliting",
						"label": "votes",
						"offset": 0,
						"slot": "0",
						"type": "t_mapping(t_string_memory_ptr,t_uint256)"
					},
					{
						"astId": 8,
						"contract": "homework/voting.sol:voliting",
						"label": "candidates",
						"offset": 0,
						"slot": "1",
						"type": "t_array(t_string_storage)dyn_storage"
					},
					{
						"astId": 10,
						"contract": "homework/voting.sol:voliting",
						"label": "owner",
						"offset": 0,
						"slot": "2",
						"type": "t_address"
					}
				],
				"types": {
					"t_address": {
						"encoding": "inplace",
						"label": "address",
						"numberOfBytes": "20"
					},
					"t_array(t_string_storage)dyn_storage": {
						"base": "t_string_storage",
						"encoding": "dynamic_array",
						"label": "string[]",
						"numberOfBytes": "32"
					},
					"t_mapping(t_string_memory_ptr,t_uint256)": {
						"encoding": "mapping",
						"key": "t_string_memory_ptr",
						"label": "mapping(string => uint256)",
						"numberOfBytes": "32",
						"value": "t_uint256"
					},
					"t_string_memory_ptr": {
						"encoding": "bytes",
						"label": "string",
						"numberOfBytes": "32"
					},
					"t_string_storage": {
						"encoding": "bytes",
						"label": "string",
						"numberOfBytes": "32"
					},
					"t_uint256": {
						"encoding": "inplace",
						"label": "uint256",
						"numberOfBytes": "32"
					}
				}
			},
			"userdoc": {
				"kind": "user",
				"methods": {},
				"version": 1
			}
		}
	}
}