{
	"datatype/StructType.sol": {
		"StructType": {
			"abi": [
				{
					"inputs": [],
					"name": "readPerson",
					"outputs": [
						{
							"components": [
								{
									"internalType": "string",
									"name": "name",
									"type": "string"
								},
								{
									"internalType": "uint8",
									"name": "age",
									"type": "uint8"
								}
							],
							"internalType": "struct StructType.Person",
							"name": "",
							"type": "tuple"
						}
					],
					"stateMutability": "view",
					"type": "function"
				},
				{
					"inputs": [],
					"name": "testMemoryStruct",
					"outputs": [
						{
							"components": [
								{
									"internalType": "string",
									"name": "name",
									"type": "string"
								},
								{
									"internalType": "uint8",
									"name": "age",
									"type": "uint8"
								}
							],
							"internalType": "struct StructType.Person",
							"name": "",
							"type": "tuple"
						}
					],
					"stateMutability": "pure",
					"type": "function"
				},
				{
					"inputs": [],
					"name": "testStorageLocalStruct",
					"outputs": [
						{
							"components": [
								{
									"internalType": "string",
									"name": "name",
									"type": "string"
								},
								{
									"internalType": "uint8",
									"name": "age",
									"type": "uint8"
								}
							],
							"internalType": "struct StructType.Person",
							"name": "",
							"type": "tuple"
						}
					],
					"stateMutability": "view",
					"type": "function"
				},
				{
					"inputs": [
						{
							"internalType": "string",
							"name": "name",
							"type": "string"
						}
					],
					"name": "writePerson",
					"outputs": [],
					"stateMutability": "nonpayable",
					"type": "function"
				},
				{
					"inputs": [
						{
							"components": [
								{
									"internalType": "string",
									"name": "name",
									"type": "string"
								},
								{
									"internalType": "uint8",
									"name": "age",
									"type": "uint8"
								}
							],
							"internalType": "struct StructType.Person",
							"name": "p",
							"type": "tuple"
						}
					],
					"name": "writePerson",
					"outputs": [],
					"stateMutability": "nonpayable",
					"type": "function"
				}
			],
			"devdoc": {
				"kind": "dev",
				"methods": {},
				"version": 1
			},
			"evm": {
				"assembly": "    /* \"datatype/StructType.sol\":71:1371  contract StructType {... */\n  mstore(0x40, 0x80)\n  callvalue\n  dup1\n  iszero\n  tag_1\n  jumpi\n  0x00\n  dup1\n  revert\ntag_1:\n  pop\n  dataSize(sub_0)\n  dup1\n  dataOffset(sub_0)\n  0x00\n  codecopy\n  0x00\n  return\nstop\n\nsub_0: assembly {\n        /* \"datatype/StructType.sol\":71:1371  contract StructType {... */\n      mstore(0x40, 0x80)\n      callvalue\n      dup1\n      iszero\n      tag_1\n      jumpi\n      0x00\n      dup1\n      revert\n    tag_1:\n      pop\n      jumpi(tag_2, lt(calldatasize, 0x04))\n      shr(0xe0, calldataload(0x00))\n      dup1\n      0x0b49c524\n      eq\n      tag_3\n      jumpi\n      dup1\n      0x44ad9612\n      eq\n      tag_4\n      jumpi\n      dup1\n      0x5a73a567\n      eq\n      tag_5\n      jumpi\n      dup1\n      0x7a3f6c36\n      eq\n      tag_6\n      jumpi\n      dup1\n      0x7efcd147\n      eq\n      tag_7\n      jumpi\n    tag_2:\n      0x00\n      dup1\n      revert\n        /* \"datatype/StructType.sol\":1212:1367  function testStorageLocalStruct()public view returns(Person memory){... */\n    tag_3:\n      tag_8\n      tag_9\n      jump\t// in\n    tag_8:\n      mload(0x40)\n      tag_10\n      swap2\n      swap1\n      tag_11\n      jump\t// in\n    tag_10:\n      mload(0x40)\n      dup1\n      swap2\n      sub\n      swap1\n      return\n        /* \"datatype/StructType.sol\":769:1151  function testMemoryStruct()public pure returns(Person memory){... */\n    tag_4:\n      tag_12\n      tag_13\n      jump\t// in\n    tag_12:\n      mload(0x40)\n      tag_14\n      swap2\n      swap1\n      tag_11\n      jump\t// in\n    tag_14:\n      mload(0x40)\n      dup1\n      swap2\n      sub\n      swap1\n      return\n        /* \"datatype/StructType.sol\":409:495  function readPerson()public view returns (Person memory){... */\n    tag_5:\n      tag_15\n      tag_16\n      jump\t// in\n    tag_15:\n      mload(0x40)\n      tag_17\n      swap2\n      swap1\n      tag_11\n      jump\t// in\n    tag_17:\n      mload(0x40)\n      dup1\n      swap2\n      sub\n      swap1\n      return\n        /* \"datatype/StructType.sol\":599:679  function writePerson(string memory name)public {... */\n    tag_6:\n      tag_18\n      0x04\n      dup1\n      calldatasize\n      sub\n      dup2\n      add\n      swap1\n      tag_19\n      swap2\n      swap1\n      tag_20\n      jump\t// in\n    tag_19:\n      tag_21\n      jump\t// in\n    tag_18:\n      stop\n        /* \"datatype/StructType.sol\":523:594  function writePerson(Person memory p)public {... */\n    tag_7:\n      tag_22\n      0x04\n      dup1\n      calldatasize\n      sub\n      dup2\n      add\n      swap1\n      tag_23\n      swap2\n      swap1\n      tag_24\n      jump\t// in\n    tag_23:\n      tag_25\n      jump\t// in\n    tag_22:\n      stop\n        /* \"datatype/StructType.sol\":1212:1367  function testStorageLocalStruct()public view returns(Person memory){... */\n    tag_9:\n        /* \"datatype/StructType.sol\":1265:1278  Person memory */\n      tag_26\n      tag_27\n      jump\t// in\n    tag_26:\n        /* \"datatype/StructType.sol\":1289:1305  Person storage p */\n      0x00\n        /* \"datatype/StructType.sol\":1359:1360  p */\n      dup1\n        /* \"datatype/StructType.sol\":1352:1360  return p */\n      mload(0x40)\n      dup1\n      0x40\n      add\n      0x40\n      mstore\n      swap1\n      dup2\n      0x00\n      dup3\n      add\n      dup1\n      sload\n      tag_29\n      swap1\n      tag_30\n      jump\t// in\n    tag_29:\n      dup1\n      0x1f\n      add\n      0x20\n      dup1\n      swap2\n      div\n      mul\n      0x20\n      add\n      mload(0x40)\n      swap1\n      dup2\n      add\n      0x40\n      mstore\n      dup1\n      swap3\n      swap2\n      swap1\n      dup2\n      dup2\n      mstore\n      0x20\n      add\n      dup3\n      dup1\n      sload\n      tag_31\n      swap1\n      tag_30\n      jump\t// in\n    tag_31:\n      dup1\n      iszero\n      tag_32\n      jumpi\n      dup1\n      0x1f\n      lt\n      tag_33\n      jumpi\n      0x0100\n      dup1\n      dup4\n      sload\n      div\n      mul\n      dup4\n      mstore\n      swap2\n      0x20\n      add\n      swap2\n      jump(tag_32)\n    tag_33:\n      dup3\n      add\n      swap2\n      swap1\n      0x00\n      mstore\n      keccak256(0x00, 0x20)\n      swap1\n    tag_34:\n      dup2\n      sload\n      dup2\n      mstore\n      swap1\n      0x01\n      add\n      swap1\n      0x20\n      add\n      dup1\n      dup4\n      gt\n      tag_34\n      jumpi\n      dup3\n      swap1\n      sub\n      0x1f\n      and\n      dup3\n      add\n      swap2\n    tag_32:\n      pop\n      pop\n      pop\n      pop\n      pop\n      dup2\n      mstore\n      0x20\n      add\n      0x01\n      dup3\n      add\n      0x00\n      swap1\n      sload\n      swap1\n      0x0100\n      exp\n      swap1\n      div\n      0xff\n      and\n      0xff\n      and\n      0xff\n      and\n      dup2\n      mstore\n      pop\n      pop\n      swap2\n      pop\n      pop\n        /* \"datatype/StructType.sol\":1212:1367  function testStorageLocalStruct()public view returns(Person memory){... */\n      swap1\n      jump\t// out\n        /* \"datatype/StructType.sol\":769:1151  function testMemoryStruct()public pure returns(Person memory){... */\n    tag_13:\n        /* \"datatype/StructType.sol\":816:829  Person memory */\n      tag_35\n      tag_27\n      jump\t// in\n    tag_35:\n        /* \"datatype/StructType.sol\":924:939  Person memory p */\n      tag_37\n      tag_27\n      jump\t// in\n    tag_37:\n        /* \"datatype/StructType.sol\":1090:1106  p.name = \"ergou\" */\n      mload(0x40)\n      dup1\n      0x40\n      add\n      0x40\n      mstore\n      dup1\n      0x05\n      dup2\n      mstore\n      0x20\n      add\n      0x6572676f75000000000000000000000000000000000000000000000000000000\n      dup2\n      mstore\n      pop\n        /* \"datatype/StructType.sol\":1090:1091  p */\n      dup2\n        /* \"datatype/StructType.sol\":1090:1096  p.name */\n      0x00\n      add\n        /* \"datatype/StructType.sol\":1090:1106  p.name = \"ergou\" */\n      dup2\n      swap1\n      mstore\n      pop\n        /* \"datatype/StructType.sol\":1124:1126  12 */\n      0x0c\n        /* \"datatype/StructType.sol\":1116:1117  p */\n      dup2\n        /* \"datatype/StructType.sol\":1116:1121  p.age */\n      0x20\n      add\n        /* \"datatype/StructType.sol\":1116:1126  p.age = 12 */\n      swap1\n      0xff\n      and\n      swap1\n      dup2\n      0xff\n      and\n      dup2\n      mstore\n      pop\n      pop\n        /* \"datatype/StructType.sol\":1143:1144  p */\n      dup1\n        /* \"datatype/StructType.sol\":1136:1144  return p */\n      swap2\n      pop\n      pop\n        /* \"datatype/StructType.sol\":769:1151  function testMemoryStruct()public pure returns(Person memory){... */\n      swap1\n      jump\t// out\n        /* \"datatype/StructType.sol\":409:495  function readPerson()public view returns (Person memory){... */\n    tag_16:\n        /* \"datatype/StructType.sol\":451:464  Person memory */\n      tag_38\n      tag_27\n      jump\t// in\n    tag_38:\n        /* \"datatype/StructType.sol\":482:488  master */\n      0x00\n        /* \"datatype/StructType.sol\":475:488  return master */\n      mload(0x40)\n      dup1\n      0x40\n      add\n      0x40\n      mstore\n      swap1\n      dup2\n      0x00\n      dup3\n      add\n      dup1\n      sload\n      tag_40\n      swap1\n      tag_30\n      jump\t// in\n    tag_40:\n      dup1\n      0x1f\n      add\n      0x20\n      dup1\n      swap2\n      div\n      mul\n      0x20\n      add\n      mload(0x40)\n      swap1\n      dup2\n      add\n      0x40\n      mstore\n      dup1\n      swap3\n      swap2\n      swap1\n      dup2\n      dup2\n      mstore\n      0x20\n      add\n      dup3\n      dup1\n      sload\n      tag_41\n      swap1\n      tag_30\n      jump\t// in\n    tag_41:\n      dup1\n      iszero\n      tag_42\n      jumpi\n      dup1\n      0x1f\n      lt\n      tag_43\n      jumpi\n      0x0100\n      dup1\n      dup4\n      sload\n      div\n      mul\n      dup4\n      mstore\n      swap2\n      0x20\n      add\n      swap2\n      jump(tag_42)\n    tag_43:\n      dup3\n      add\n      swap2\n      swap1\n      0x00\n      mstore\n      keccak256(0x00, 0x20)\n      swap1\n    tag_44:\n      dup2\n      sload\n      dup2\n      mstore\n      swap1\n      0x01\n      add\n      swap1\n      0x20\n      add\n      dup1\n      dup4\n      gt\n      tag_44\n      jumpi\n      dup3\n      swap1\n      sub\n      0x1f\n      and\n      dup3\n      add\n      swap2\n    tag_42:\n      pop\n      pop\n      pop\n      pop\n      pop\n      dup2\n      mstore\n      0x20\n      add\n      0x01\n      dup3\n      add\n      0x00\n      swap1\n      sload\n      swap1\n      0x0100\n      exp\n      swap1\n      div\n      0xff\n      and\n      0xff\n      and\n      0xff\n      and\n      dup2\n      mstore\n      pop\n      pop\n      swap1\n      pop\n        /* \"datatype/StructType.sol\":409:495  function readPerson()public view returns (Person memory){... */\n      swap1\n      jump\t// out\n        /* \"datatype/StructType.sol\":599:679  function writePerson(string memory name)public {... */\n    tag_21:\n        /* \"datatype/StructType.sol\":668:672  name */\n      dup1\n        /* \"datatype/StructType.sol\":654:660  master */\n      0x00\n        /* \"datatype/StructType.sol\":654:665  master.name */\n      dup1\n      add\n        /* \"datatype/StructType.sol\":654:672  master.name = name */\n      swap1\n      dup2\n      tag_46\n      swap2\n      swap1\n      tag_47\n      jump\t// in\n    tag_46:\n      pop\n        /* \"datatype/StructType.sol\":599:679  function writePerson(string memory name)public {... */\n      pop\n      jump\t// out\n        /* \"datatype/StructType.sol\":523:594  function writePerson(Person memory p)public {... */\n    tag_25:\n        /* \"datatype/StructType.sol\":586:587  p */\n      dup1\n        /* \"datatype/StructType.sol\":577:583  master */\n      0x00\n        /* \"datatype/StructType.sol\":577:587  master = p */\n      dup1\n      dup3\n      add\n      mload\n      dup2\n      0x00\n      add\n      swap1\n      dup2\n      tag_49\n      swap2\n      swap1\n      tag_47\n      jump\t// in\n    tag_49:\n      pop\n      0x20\n      dup3\n      add\n      mload\n      dup2\n      0x01\n      add\n      exp(0x0100, 0x00)\n      dup2\n      sload\n      dup2\n      0xff\n      mul\n      not\n      and\n      swap1\n      dup4\n      0xff\n      and\n      mul\n      or\n      swap1\n      sstore\n      pop\n      swap1\n      pop\n      pop\n        /* \"datatype/StructType.sol\":523:594  function writePerson(Person memory p)public {... */\n      pop\n      jump\t// out\n    tag_27:\n      mload(0x40)\n      dup1\n      0x40\n      add\n      0x40\n      mstore\n      dup1\n      0x60\n      dup2\n      mstore\n      0x20\n      add\n      and(0xff, 0x00)\n      dup2\n      mstore\n      pop\n      swap1\n      jump\t// out\n        /* \"#utility.yul\":7:106   */\n    tag_50:\n        /* \"#utility.yul\":59:65   */\n      0x00\n        /* \"#utility.yul\":93:98   */\n      dup2\n        /* \"#utility.yul\":87:99   */\n      mload\n        /* \"#utility.yul\":77:99   */\n      swap1\n      pop\n        /* \"#utility.yul\":7:106   */\n      swap2\n      swap1\n      pop\n      jump\t// out\n        /* \"#utility.yul\":112:271   */\n    tag_51:\n        /* \"#utility.yul\":186:197   */\n      0x00\n        /* \"#utility.yul\":220:226   */\n      dup3\n        /* \"#utility.yul\":215:218   */\n      dup3\n        /* \"#utility.yul\":208:227   */\n      mstore\n        /* \"#utility.yul\":260:264   */\n      0x20\n        /* \"#utility.yul\":255:258   */\n      dup3\n        /* \"#utility.yul\":251:265   */\n      add\n        /* \"#utility.yul\":236:265   */\n      swap1\n      pop\n        /* \"#utility.yul\":112:271   */\n      swap3\n      swap2\n      pop\n      pop\n      jump\t// out\n        /* \"#utility.yul\":277:416   */\n    tag_52:\n        /* \"#utility.yul\":366:372   */\n      dup3\n        /* \"#utility.yul\":361:364   */\n      dup2\n        /* \"#utility.yul\":356:359   */\n      dup4\n        /* \"#utility.yul\":350:373   */\n      mcopy\n        /* \"#utility.yul\":407:408   */\n      0x00\n        /* \"#utility.yul\":398:404   */\n      dup4\n        /* \"#utility.yul\":393:396   */\n      dup4\n        /* \"#utility.yul\":389:405   */\n      add\n        /* \"#utility.yul\":382:409   */\n      mstore\n        /* \"#utility.yul\":277:416   */\n      pop\n      pop\n      pop\n      jump\t// out\n        /* \"#utility.yul\":422:524   */\n    tag_53:\n        /* \"#utility.yul\":463:469   */\n      0x00\n        /* \"#utility.yul\":514:516   */\n      0x1f\n        /* \"#utility.yul\":510:517   */\n      not\n        /* \"#utility.yul\":505:507   */\n      0x1f\n        /* \"#utility.yul\":498:503   */\n      dup4\n        /* \"#utility.yul\":494:508   */\n      add\n        /* \"#utility.yul\":490:518   */\n      and\n        /* \"#utility.yul\":480:518   */\n      swap1\n      pop\n        /* \"#utility.yul\":422:524   */\n      swap2\n      swap1\n      pop\n      jump\t// out\n        /* \"#utility.yul\":530:887   */\n    tag_54:\n        /* \"#utility.yul\":608:611   */\n      0x00\n        /* \"#utility.yul\":636:675   */\n      tag_98\n        /* \"#utility.yul\":669:674   */\n      dup3\n        /* \"#utility.yul\":636:675   */\n      tag_50\n      jump\t// in\n    tag_98:\n        /* \"#utility.yul\":691:752   */\n      tag_99\n        /* \"#utility.yul\":745:751   */\n      dup2\n        /* \"#utility.yul\":740:743   */\n      dup6\n        /* \"#utility.yul\":691:752   */\n      tag_51\n      jump\t// in\n    tag_99:\n        /* \"#utility.yul\":684:752   */\n      swap4\n      pop\n        /* \"#utility.yul\":761:826   */\n      tag_100\n        /* \"#utility.yul\":819:825   */\n      dup2\n        /* \"#utility.yul\":814:817   */\n      dup6\n        /* \"#utility.yul\":807:811   */\n      0x20\n        /* \"#utility.yul\":800:805   */\n      dup7\n        /* \"#utility.yul\":796:812   */\n      add\n        /* \"#utility.yul\":761:826   */\n      tag_52\n      jump\t// in\n    tag_100:\n        /* \"#utility.yul\":851:880   */\n      tag_101\n        /* \"#utility.yul\":873:879   */\n      dup2\n        /* \"#utility.yul\":851:880   */\n      tag_53\n      jump\t// in\n    tag_101:\n        /* \"#utility.yul\":846:849   */\n      dup5\n        /* \"#utility.yul\":842:881   */\n      add\n        /* \"#utility.yul\":835:881   */\n      swap2\n      pop\n        /* \"#utility.yul\":612:887   */\n      pop\n        /* \"#utility.yul\":530:887   */\n      swap3\n      swap2\n      pop\n      pop\n      jump\t// out\n        /* \"#utility.yul\":893:979   */\n    tag_55:\n        /* \"#utility.yul\":928:935   */\n      0x00\n        /* \"#utility.yul\":968:972   */\n      0xff\n        /* \"#utility.yul\":961:966   */\n      dup3\n        /* \"#utility.yul\":957:973   */\n      and\n        /* \"#utility.yul\":946:973   */\n      swap1\n      pop\n        /* \"#utility.yul\":893:979   */\n      swap2\n      swap1\n      pop\n      jump\t// out\n        /* \"#utility.yul\":985:1087   */\n    tag_56:\n        /* \"#utility.yul\":1058:1080   */\n      tag_104\n        /* \"#utility.yul\":1074:1079   */\n      dup2\n        /* \"#utility.yul\":1058:1080   */\n      tag_55\n      jump\t// in\n    tag_104:\n        /* \"#utility.yul\":1053:1056   */\n      dup3\n        /* \"#utility.yul\":1046:1081   */\n      mstore\n        /* \"#utility.yul\":985:1087   */\n      pop\n      pop\n      jump\t// out\n        /* \"#utility.yul\":1153:1746   */\n    tag_57:\n        /* \"#utility.yul\":1264:1267   */\n      0x00\n        /* \"#utility.yul\":1300:1304   */\n      0x40\n        /* \"#utility.yul\":1295:1298   */\n      dup4\n        /* \"#utility.yul\":1291:1305   */\n      add\n        /* \"#utility.yul\":1387:1391   */\n      0x00\n        /* \"#utility.yul\":1380:1385   */\n      dup4\n        /* \"#utility.yul\":1376:1392   */\n      add\n        /* \"#utility.yul\":1370:1393   */\n      mload\n        /* \"#utility.yul\":1440:1443   */\n      dup5\n        /* \"#utility.yul\":1434:1438   */\n      dup3\n        /* \"#utility.yul\":1430:1444   */\n      sub\n        /* \"#utility.yul\":1423:1427   */\n      0x00\n        /* \"#utility.yul\":1418:1421   */\n      dup7\n        /* \"#utility.yul\":1414:1428   */\n      add\n        /* \"#utility.yul\":1407:1445   */\n      mstore\n        /* \"#utility.yul\":1466:1539   */\n      tag_106\n        /* \"#utility.yul\":1534:1538   */\n      dup3\n        /* \"#utility.yul\":1520:1532   */\n      dup3\n        /* \"#utility.yul\":1466:1539   */\n      tag_54\n      jump\t// in\n    tag_106:\n        /* \"#utility.yul\":1458:1539   */\n      swap2\n      pop\n        /* \"#utility.yul\":1315:1550   */\n      pop\n        /* \"#utility.yul\":1631:1635   */\n      0x20\n        /* \"#utility.yul\":1624:1629   */\n      dup4\n        /* \"#utility.yul\":1620:1636   */\n      add\n        /* \"#utility.yul\":1614:1637   */\n      mload\n        /* \"#utility.yul\":1650:1709   */\n      tag_107\n        /* \"#utility.yul\":1703:1707   */\n      0x20\n        /* \"#utility.yul\":1698:1701   */\n      dup7\n        /* \"#utility.yul\":1694:1708   */\n      add\n        /* \"#utility.yul\":1680:1692   */\n      dup3\n        /* \"#utility.yul\":1650:1709   */\n      tag_56\n      jump\t// in\n    tag_107:\n        /* \"#utility.yul\":1560:1719   */\n      pop\n        /* \"#utility.yul\":1736:1740   */\n      dup1\n        /* \"#utility.yul\":1729:1740   */\n      swap2\n      pop\n        /* \"#utility.yul\":1269:1746   */\n      pop\n        /* \"#utility.yul\":1153:1746   */\n      swap3\n      swap2\n      pop\n      pop\n      jump\t// out\n        /* \"#utility.yul\":1752:2109   */\n    tag_11:\n        /* \"#utility.yul\":1887:1891   */\n      0x00\n        /* \"#utility.yul\":1925:1927   */\n      0x20\n        /* \"#utility.yul\":1914:1923   */\n      dup3\n        /* \"#utility.yul\":1910:1928   */\n      add\n        /* \"#utility.yul\":1902:1928   */\n      swap1\n      pop\n        /* \"#utility.yul\":1974:1983   */\n      dup2\n        /* \"#utility.yul\":1968:1972   */\n      dup2\n        /* \"#utility.yul\":1964:1984   */\n      sub\n        /* \"#utility.yul\":1960:1961   */\n      0x00\n        /* \"#utility.yul\":1949:1958   */\n      dup4\n        /* \"#utility.yul\":1945:1962   */\n      add\n        /* \"#utility.yul\":1938:1985   */\n      mstore\n        /* \"#utility.yul\":2002:2102   */\n      tag_109\n        /* \"#utility.yul\":2097:2101   */\n      dup2\n        /* \"#utility.yul\":2088:2094   */\n      dup5\n        /* \"#utility.yul\":2002:2102   */\n      tag_57\n      jump\t// in\n    tag_109:\n        /* \"#utility.yul\":1994:2102   */\n      swap1\n      pop\n        /* \"#utility.yul\":1752:2109   */\n      swap3\n      swap2\n      pop\n      pop\n      jump\t// out\n        /* \"#utility.yul\":2115:2190   */\n    tag_58:\n        /* \"#utility.yul\":2148:2154   */\n      0x00\n        /* \"#utility.yul\":2181:2183   */\n      0x40\n        /* \"#utility.yul\":2175:2184   */\n      mload\n        /* \"#utility.yul\":2165:2184   */\n      swap1\n      pop\n        /* \"#utility.yul\":2115:2190   */\n      swap1\n      jump\t// out\n        /* \"#utility.yul\":2196:2313   */\n    tag_59:\n        /* \"#utility.yul\":2305:2306   */\n      0x00\n        /* \"#utility.yul\":2302:2303   */\n      dup1\n        /* \"#utility.yul\":2295:2307   */\n      revert\n        /* \"#utility.yul\":2319:2436   */\n    tag_60:\n        /* \"#utility.yul\":2428:2429   */\n      0x00\n        /* \"#utility.yul\":2425:2426   */\n      dup1\n        /* \"#utility.yul\":2418:2430   */\n      revert\n        /* \"#utility.yul\":2442:2559   */\n    tag_61:\n        /* \"#utility.yul\":2551:2552   */\n      0x00\n        /* \"#utility.yul\":2548:2549   */\n      dup1\n        /* \"#utility.yul\":2541:2553   */\n      revert\n        /* \"#utility.yul\":2565:2682   */\n    tag_62:\n        /* \"#utility.yul\":2674:2675   */\n      0x00\n        /* \"#utility.yul\":2671:2672   */\n      dup1\n        /* \"#utility.yul\":2664:2676   */\n      revert\n        /* \"#utility.yul\":2688:2868   */\n    tag_63:\n        /* \"#utility.yul\":2736:2813   */\n      0x4e487b7100000000000000000000000000000000000000000000000000000000\n        /* \"#utility.yul\":2733:2734   */\n      0x00\n        /* \"#utility.yul\":2726:2814   */\n      mstore\n        /* \"#utility.yul\":2833:2837   */\n      0x41\n        /* \"#utility.yul\":2830:2831   */\n      0x04\n        /* \"#utility.yul\":2823:2838   */\n      mstore\n        /* \"#utility.yul\":2857:2861   */\n      0x24\n        /* \"#utility.yul\":2854:2855   */\n      0x00\n        /* \"#utility.yul\":2847:2862   */\n      revert\n        /* \"#utility.yul\":2874:3155   */\n    tag_64:\n        /* \"#utility.yul\":2957:2984   */\n      tag_117\n        /* \"#utility.yul\":2979:2983   */\n      dup3\n        /* \"#utility.yul\":2957:2984   */\n      tag_53\n      jump\t// in\n    tag_117:\n        /* \"#utility.yul\":2949:2955   */\n      dup2\n        /* \"#utility.yul\":2945:2985   */\n      add\n        /* \"#utility.yul\":3087:3093   */\n      dup2\n        /* \"#utility.yul\":3075:3085   */\n      dup2\n        /* \"#utility.yul\":3072:3094   */\n      lt\n        /* \"#utility.yul\":3051:3069   */\n      0xffffffffffffffff\n        /* \"#utility.yul\":3039:3049   */\n      dup3\n        /* \"#utility.yul\":3036:3070   */\n      gt\n        /* \"#utility.yul\":3033:3095   */\n      or\n        /* \"#utility.yul\":3030:3118   */\n      iszero\n      tag_118\n      jumpi\n        /* \"#utility.yul\":3098:3116   */\n      tag_119\n      tag_63\n      jump\t// in\n    tag_119:\n        /* \"#utility.yul\":3030:3118   */\n    tag_118:\n        /* \"#utility.yul\":3138:3148   */\n      dup1\n        /* \"#utility.yul\":3134:3136   */\n      0x40\n        /* \"#utility.yul\":3127:3149   */\n      mstore\n        /* \"#utility.yul\":2917:3155   */\n      pop\n        /* \"#utility.yul\":2874:3155   */\n      pop\n      pop\n      jump\t// out\n        /* \"#utility.yul\":3161:3290   */\n    tag_65:\n        /* \"#utility.yul\":3195:3201   */\n      0x00\n        /* \"#utility.yul\":3222:3242   */\n      tag_121\n      tag_58\n      jump\t// in\n    tag_121:\n        /* \"#utility.yul\":3212:3242   */\n      swap1\n      pop\n        /* \"#utility.yul\":3251:3284   */\n      tag_122\n        /* \"#utility.yul\":3279:3283   */\n      dup3\n        /* \"#utility.yul\":3271:3277   */\n      dup3\n        /* \"#utility.yul\":3251:3284   */\n      tag_64\n      jump\t// in\n    tag_122:\n        /* \"#utility.yul\":3161:3290   */\n      swap2\n      swap1\n      pop\n      jump\t// out\n        /* \"#utility.yul\":3296:3604   */\n    tag_66:\n        /* \"#utility.yul\":3358:3362   */\n      0x00\n        /* \"#utility.yul\":3448:3466   */\n      0xffffffffffffffff\n        /* \"#utility.yul\":3440:3446   */\n      dup3\n        /* \"#utility.yul\":3437:3467   */\n      gt\n        /* \"#utility.yul\":3434:3490   */\n      iszero\n      tag_124\n      jumpi\n        /* \"#utility.yul\":3470:3488   */\n      tag_125\n      tag_63\n      jump\t// in\n    tag_125:\n        /* \"#utility.yul\":3434:3490   */\n    tag_124:\n        /* \"#utility.yul\":3508:3537   */\n      tag_126\n        /* \"#utility.yul\":3530:3536   */\n      dup3\n        /* \"#utility.yul\":3508:3537   */\n      tag_53\n      jump\t// in\n    tag_126:\n        /* \"#utility.yul\":3500:3537   */\n      swap1\n      pop\n        /* \"#utility.yul\":3592:3596   */\n      0x20\n        /* \"#utility.yul\":3586:3590   */\n      dup2\n        /* \"#utility.yul\":3582:3597   */\n      add\n        /* \"#utility.yul\":3574:3597   */\n      swap1\n      pop\n        /* \"#utility.yul\":3296:3604   */\n      swap2\n      swap1\n      pop\n      jump\t// out\n        /* \"#utility.yul\":3610:3758   */\n    tag_67:\n        /* \"#utility.yul\":3708:3714   */\n      dup3\n        /* \"#utility.yul\":3703:3706   */\n      dup2\n        /* \"#utility.yul\":3698:3701   */\n      dup4\n        /* \"#utility.yul\":3685:3715   */\n      calldatacopy\n        /* \"#utility.yul\":3749:3750   */\n      0x00\n        /* \"#utility.yul\":3740:3746   */\n      dup4\n        /* \"#utility.yul\":3735:3738   */\n      dup4\n        /* \"#utility.yul\":3731:3747   */\n      add\n        /* \"#utility.yul\":3724:3751   */\n      mstore\n        /* \"#utility.yul\":3610:3758   */\n      pop\n      pop\n      pop\n      jump\t// out\n        /* \"#utility.yul\":3764:4189   */\n    tag_68:\n        /* \"#utility.yul\":3842:3847   */\n      0x00\n        /* \"#utility.yul\":3867:3933   */\n      tag_129\n        /* \"#utility.yul\":3883:3932   */\n      tag_130\n        /* \"#utility.yul\":3925:3931   */\n      dup5\n        /* \"#utility.yul\":3883:3932   */\n      tag_66\n      jump\t// in\n    tag_130:\n        /* \"#utility.yul\":3867:3933   */\n      tag_65\n      jump\t// in\n    tag_129:\n        /* \"#utility.yul\":3858:3933   */\n      swap1\n      pop\n        /* \"#utility.yul\":3956:3962   */\n      dup3\n        /* \"#utility.yul\":3949:3954   */\n      dup2\n        /* \"#utility.yul\":3942:3963   */\n      mstore\n        /* \"#utility.yul\":3994:3998   */\n      0x20\n        /* \"#utility.yul\":3987:3992   */\n      dup2\n        /* \"#utility.yul\":3983:3999   */\n      add\n        /* \"#utility.yul\":4032:4035   */\n      dup5\n        /* \"#utility.yul\":4023:4029   */\n      dup5\n        /* \"#utility.yul\":4018:4021   */\n      dup5\n        /* \"#utility.yul\":4014:4030   */\n      add\n        /* \"#utility.yul\":4011:4036   */\n      gt\n        /* \"#utility.yul\":4008:4120   */\n      iszero\n      tag_131\n      jumpi\n        /* \"#utility.yul\":4039:4118   */\n      tag_132\n      tag_62\n      jump\t// in\n    tag_132:\n        /* \"#utility.yul\":4008:4120   */\n    tag_131:\n        /* \"#utility.yul\":4129:4183   */\n      tag_133\n        /* \"#utility.yul\":4176:4182   */\n      dup5\n        /* \"#utility.yul\":4171:4174   */\n      dup3\n        /* \"#utility.yul\":4166:4169   */\n      dup6\n        /* \"#utility.yul\":4129:4183   */\n      tag_67\n      jump\t// in\n    tag_133:\n        /* \"#utility.yul\":3848:4189   */\n      pop\n        /* \"#utility.yul\":3764:4189   */\n      swap4\n      swap3\n      pop\n      pop\n      pop\n      jump\t// out\n        /* \"#utility.yul\":4209:4549   */\n    tag_69:\n        /* \"#utility.yul\":4265:4270   */\n      0x00\n        /* \"#utility.yul\":4314:4317   */\n      dup3\n        /* \"#utility.yul\":4307:4311   */\n      0x1f\n        /* \"#utility.yul\":4299:4305   */\n      dup4\n        /* \"#utility.yul\":4295:4312   */\n      add\n        /* \"#utility.yul\":4291:4318   */\n      slt\n        /* \"#utility.yul\":4281:4403   */\n      tag_135\n      jumpi\n        /* \"#utility.yul\":4322:4401   */\n      tag_136\n      tag_61\n      jump\t// in\n    tag_136:\n        /* \"#utility.yul\":4281:4403   */\n    tag_135:\n        /* \"#utility.yul\":4439:4445   */\n      dup2\n        /* \"#utility.yul\":4426:4446   */\n      calldataload\n        /* \"#utility.yul\":4464:4543   */\n      tag_137\n        /* \"#utility.yul\":4539:4542   */\n      dup5\n        /* \"#utility.yul\":4531:4537   */\n      dup3\n        /* \"#utility.yul\":4524:4528   */\n      0x20\n        /* \"#utility.yul\":4516:4522   */\n      dup7\n        /* \"#utility.yul\":4512:4529   */\n      add\n        /* \"#utility.yul\":4464:4543   */\n      tag_68\n      jump\t// in\n    tag_137:\n        /* \"#utility.yul\":4455:4543   */\n      swap2\n      pop\n        /* \"#utility.yul\":4271:4549   */\n      pop\n        /* \"#utility.yul\":4209:4549   */\n      swap3\n      swap2\n      pop\n      pop\n      jump\t// out\n        /* \"#utility.yul\":4555:5064   */\n    tag_20:\n        /* \"#utility.yul\":4624:4630   */\n      0x00\n        /* \"#utility.yul\":4673:4675   */\n      0x20\n        /* \"#utility.yul\":4661:4670   */\n      dup3\n        /* \"#utility.yul\":4652:4659   */\n      dup5\n        /* \"#utility.yul\":4648:4671   */\n      sub\n        /* \"#utility.yul\":4644:4676   */\n      slt\n        /* \"#utility.yul\":4641:4760   */\n      iszero\n      tag_139\n      jumpi\n        /* \"#utility.yul\":4679:4758   */\n      tag_140\n      tag_59\n      jump\t// in\n    tag_140:\n        /* \"#utility.yul\":4641:4760   */\n    tag_139:\n        /* \"#utility.yul\":4827:4828   */\n      0x00\n        /* \"#utility.yul\":4816:4825   */\n      dup3\n        /* \"#utility.yul\":4812:4829   */\n      add\n        /* \"#utility.yul\":4799:4830   */\n      calldataload\n        /* \"#utility.yul\":4857:4875   */\n      0xffffffffffffffff\n        /* \"#utility.yul\":4849:4855   */\n      dup2\n        /* \"#utility.yul\":4846:4876   */\n      gt\n        /* \"#utility.yul\":4843:4960   */\n      iszero\n      tag_141\n      jumpi\n        /* \"#utility.yul\":4879:4958   */\n      tag_142\n      tag_60\n      jump\t// in\n    tag_142:\n        /* \"#utility.yul\":4843:4960   */\n    tag_141:\n        /* \"#utility.yul\":4984:5047   */\n      tag_143\n        /* \"#utility.yul\":5039:5046   */\n      dup5\n        /* \"#utility.yul\":5030:5036   */\n      dup3\n        /* \"#utility.yul\":5019:5028   */\n      dup6\n        /* \"#utility.yul\":5015:5037   */\n      add\n        /* \"#utility.yul\":4984:5047   */\n      tag_69\n      jump\t// in\n    tag_143:\n        /* \"#utility.yul\":4974:5047   */\n      swap2\n      pop\n        /* \"#utility.yul\":4770:5057   */\n      pop\n        /* \"#utility.yul\":4555:5064   */\n      swap3\n      swap2\n      pop\n      pop\n      jump\t// out\n        /* \"#utility.yul\":5070:5187   */\n    tag_70:\n        /* \"#utility.yul\":5179:5180   */\n      0x00\n        /* \"#utility.yul\":5176:5177   */\n      dup1\n        /* \"#utility.yul\":5169:5181   */\n      revert\n        /* \"#utility.yul\":5193:5310   */\n    tag_71:\n        /* \"#utility.yul\":5302:5303   */\n      0x00\n        /* \"#utility.yul\":5299:5300   */\n      dup1\n        /* \"#utility.yul\":5292:5304   */\n      revert\n        /* \"#utility.yul\":5316:5434   */\n    tag_72:\n        /* \"#utility.yul\":5387:5409   */\n      tag_147\n        /* \"#utility.yul\":5403:5408   */\n      dup2\n        /* \"#utility.yul\":5387:5409   */\n      tag_55\n      jump\t// in\n    tag_147:\n        /* \"#utility.yul\":5380:5385   */\n      dup2\n        /* \"#utility.yul\":5377:5410   */\n      eq\n        /* \"#utility.yul\":5367:5428   */\n      tag_148\n      jumpi\n        /* \"#utility.yul\":5424:5425   */\n      0x00\n        /* \"#utility.yul\":5421:5422   */\n      dup1\n        /* \"#utility.yul\":5414:5426   */\n      revert\n        /* \"#utility.yul\":5367:5428   */\n    tag_148:\n        /* \"#utility.yul\":5316:5434   */\n      pop\n      jump\t// out\n        /* \"#utility.yul\":5440:5575   */\n    tag_73:\n        /* \"#utility.yul\":5484:5489   */\n      0x00\n        /* \"#utility.yul\":5522:5528   */\n      dup2\n        /* \"#utility.yul\":5509:5529   */\n      calldataload\n        /* \"#utility.yul\":5500:5529   */\n      swap1\n      pop\n        /* \"#utility.yul\":5538:5569   */\n      tag_150\n        /* \"#utility.yul\":5563:5568   */\n      dup2\n        /* \"#utility.yul\":5538:5569   */\n      tag_72\n      jump\t// in\n    tag_150:\n        /* \"#utility.yul\":5440:5575   */\n      swap3\n      swap2\n      pop\n      pop\n      jump\t// out\n        /* \"#utility.yul\":5613:6350   */\n    tag_74:\n        /* \"#utility.yul\":5683:5688   */\n      0x00\n        /* \"#utility.yul\":5727:5731   */\n      0x40\n        /* \"#utility.yul\":5715:5724   */\n      dup3\n        /* \"#utility.yul\":5710:5713   */\n      dup5\n        /* \"#utility.yul\":5706:5725   */\n      sub\n        /* \"#utility.yul\":5702:5732   */\n      slt\n        /* \"#utility.yul\":5699:5816   */\n      iszero\n      tag_152\n      jumpi\n        /* \"#utility.yul\":5735:5814   */\n      tag_153\n      tag_70\n      jump\t// in\n    tag_153:\n        /* \"#utility.yul\":5699:5816   */\n    tag_152:\n        /* \"#utility.yul\":5834:5855   */\n      tag_154\n        /* \"#utility.yul\":5850:5854   */\n      0x40\n        /* \"#utility.yul\":5834:5855   */\n      tag_65\n      jump\t// in\n    tag_154:\n        /* \"#utility.yul\":5825:5855   */\n      swap1\n      pop\n        /* \"#utility.yul\":5942:5943   */\n      0x00\n        /* \"#utility.yul\":5931:5940   */\n      dup3\n        /* \"#utility.yul\":5927:5944   */\n      add\n        /* \"#utility.yul\":5914:5945   */\n      calldataload\n        /* \"#utility.yul\":5972:5990   */\n      0xffffffffffffffff\n        /* \"#utility.yul\":5964:5970   */\n      dup2\n        /* \"#utility.yul\":5961:5991   */\n      gt\n        /* \"#utility.yul\":5958:6075   */\n      iszero\n      tag_155\n      jumpi\n        /* \"#utility.yul\":5994:6073   */\n      tag_156\n      tag_71\n      jump\t// in\n    tag_156:\n        /* \"#utility.yul\":5958:6075   */\n    tag_155:\n        /* \"#utility.yul\":6114:6173   */\n      tag_157\n        /* \"#utility.yul\":6169:6172   */\n      dup5\n        /* \"#utility.yul\":6160:6166   */\n      dup3\n        /* \"#utility.yul\":6149:6158   */\n      dup6\n        /* \"#utility.yul\":6145:6167   */\n      add\n        /* \"#utility.yul\":6114:6173   */\n      tag_69\n      jump\t// in\n    tag_157:\n        /* \"#utility.yul\":6107:6111   */\n      0x00\n        /* \"#utility.yul\":6100:6105   */\n      dup4\n        /* \"#utility.yul\":6096:6112   */\n      add\n        /* \"#utility.yul\":6089:6174   */\n      mstore\n        /* \"#utility.yul\":5865:6185   */\n      pop\n        /* \"#utility.yul\":6243:6245   */\n      0x20\n        /* \"#utility.yul\":6284:6331   */\n      tag_158\n        /* \"#utility.yul\":6327:6330   */\n      dup5\n        /* \"#utility.yul\":6318:6324   */\n      dup3\n        /* \"#utility.yul\":6307:6316   */\n      dup6\n        /* \"#utility.yul\":6303:6325   */\n      add\n        /* \"#utility.yul\":6284:6331   */\n      tag_73\n      jump\t// in\n    tag_158:\n        /* \"#utility.yul\":6277:6281   */\n      0x20\n        /* \"#utility.yul\":6270:6275   */\n      dup4\n        /* \"#utility.yul\":6266:6282   */\n      add\n        /* \"#utility.yul\":6259:6332   */\n      mstore\n        /* \"#utility.yul\":6195:6343   */\n      pop\n        /* \"#utility.yul\":5613:6350   */\n      swap3\n      swap2\n      pop\n      pop\n      jump\t// out\n        /* \"#utility.yul\":6356:6887   */\n    tag_24:\n        /* \"#utility.yul\":6436:6442   */\n      0x00\n        /* \"#utility.yul\":6485:6487   */\n      0x20\n        /* \"#utility.yul\":6473:6482   */\n      dup3\n        /* \"#utility.yul\":6464:6471   */\n      dup5\n        /* \"#utility.yul\":6460:6483   */\n      sub\n        /* \"#utility.yul\":6456:6488   */\n      slt\n        /* \"#utility.yul\":6453:6572   */\n      iszero\n      tag_160\n      jumpi\n        /* \"#utility.yul\":6491:6570   */\n      tag_161\n      tag_59\n      jump\t// in\n    tag_161:\n        /* \"#utility.yul\":6453:6572   */\n    tag_160:\n        /* \"#utility.yul\":6639:6640   */\n      0x00\n        /* \"#utility.yul\":6628:6637   */\n      dup3\n        /* \"#utility.yul\":6624:6641   */\n      add\n        /* \"#utility.yul\":6611:6642   */\n      calldataload\n        /* \"#utility.yul\":6669:6687   */\n      0xffffffffffffffff\n        /* \"#utility.yul\":6661:6667   */\n      dup2\n        /* \"#utility.yul\":6658:6688   */\n      gt\n        /* \"#utility.yul\":6655:6772   */\n      iszero\n      tag_162\n      jumpi\n        /* \"#utility.yul\":6691:6770   */\n      tag_163\n      tag_60\n      jump\t// in\n    tag_163:\n        /* \"#utility.yul\":6655:6772   */\n    tag_162:\n        /* \"#utility.yul\":6796:6870   */\n      tag_164\n        /* \"#utility.yul\":6862:6869   */\n      dup5\n        /* \"#utility.yul\":6853:6859   */\n      dup3\n        /* \"#utility.yul\":6842:6851   */\n      dup6\n        /* \"#utility.yul\":6838:6860   */\n      add\n        /* \"#utility.yul\":6796:6870   */\n      tag_74\n      jump\t// in\n    tag_164:\n        /* \"#utility.yul\":6786:6870   */\n      swap2\n      pop\n        /* \"#utility.yul\":6582:6880   */\n      pop\n        /* \"#utility.yul\":6356:6887   */\n      swap3\n      swap2\n      pop\n      pop\n      jump\t// out\n        /* \"#utility.yul\":6893:7073   */\n    tag_75:\n        /* \"#utility.yul\":6941:7018   */\n      0x4e487b7100000000000000000000000000000000000000000000000000000000\n        /* \"#utility.yul\":6938:6939   */\n      0x00\n        /* \"#utility.yul\":6931:7019   */\n      mstore\n        /* \"#utility.yul\":7038:7042   */\n      0x22\n        /* \"#utility.yul\":7035:7036   */\n      0x04\n        /* \"#utility.yul\":7028:7043   */\n      mstore\n        /* \"#utility.yul\":7062:7066   */\n      0x24\n        /* \"#utility.yul\":7059:7060   */\n      0x00\n        /* \"#utility.yul\":7052:7067   */\n      revert\n        /* \"#utility.yul\":7079:7399   */\n    tag_30:\n        /* \"#utility.yul\":7123:7129   */\n      0x00\n        /* \"#utility.yul\":7160:7161   */\n      0x02\n        /* \"#utility.yul\":7154:7158   */\n      dup3\n        /* \"#utility.yul\":7150:7162   */\n      div\n        /* \"#utility.yul\":7140:7162   */\n      swap1\n      pop\n        /* \"#utility.yul\":7207:7208   */\n      0x01\n        /* \"#utility.yul\":7201:7205   */\n      dup3\n        /* \"#utility.yul\":7197:7209   */\n      and\n        /* \"#utility.yul\":7228:7246   */\n      dup1\n        /* \"#utility.yul\":7218:7299   */\n      tag_167\n      jumpi\n        /* \"#utility.yul\":7284:7288   */\n      0x7f\n        /* \"#utility.yul\":7276:7282   */\n      dup3\n        /* \"#utility.yul\":7272:7289   */\n      and\n        /* \"#utility.yul\":7262:7289   */\n      swap2\n      pop\n        /* \"#utility.yul\":7218:7299   */\n    tag_167:\n        /* \"#utility.yul\":7346:7348   */\n      0x20\n        /* \"#utility.yul\":7338:7344   */\n      dup3\n        /* \"#utility.yul\":7335:7349   */\n      lt\n        /* \"#utility.yul\":7315:7333   */\n      dup2\n        /* \"#utility.yul\":7312:7350   */\n      sub\n        /* \"#utility.yul\":7309:7393   */\n      tag_168\n      jumpi\n        /* \"#utility.yul\":7365:7383   */\n      tag_169\n      tag_75\n      jump\t// in\n    tag_169:\n        /* \"#utility.yul\":7309:7393   */\n    tag_168:\n        /* \"#utility.yul\":7130:7399   */\n      pop\n        /* \"#utility.yul\":7079:7399   */\n      swap2\n      swap1\n      pop\n      jump\t// out\n        /* \"#utility.yul\":7405:7546   */\n    tag_76:\n        /* \"#utility.yul\":7454:7458   */\n      0x00\n        /* \"#utility.yul\":7477:7480   */\n      dup2\n        /* \"#utility.yul\":7469:7480   */\n      swap1\n      pop\n        /* \"#utility.yul\":7500:7503   */\n      dup2\n        /* \"#utility.yul\":7497:7498   */\n      0x00\n        /* \"#utility.yul\":7490:7504   */\n      mstore\n        /* \"#utility.yul\":7534:7538   */\n      0x20\n        /* \"#utility.yul\":7531:7532   */\n      0x00\n        /* \"#utility.yul\":7521:7539   */\n      keccak256\n        /* \"#utility.yul\":7513:7539   */\n      swap1\n      pop\n        /* \"#utility.yul\":7405:7546   */\n      swap2\n      swap1\n      pop\n      jump\t// out\n        /* \"#utility.yul\":7552:7645   */\n    tag_77:\n        /* \"#utility.yul\":7589:7595   */\n      0x00\n        /* \"#utility.yul\":7636:7638   */\n      0x20\n        /* \"#utility.yul\":7631:7633   */\n      0x1f\n        /* \"#utility.yul\":7624:7629   */\n      dup4\n        /* \"#utility.yul\":7620:7634   */\n      add\n        /* \"#utility.yul\":7616:7639   */\n      div\n        /* \"#utility.yul\":7606:7639   */\n      swap1\n      pop\n        /* \"#utility.yul\":7552:7645   */\n      swap2\n      swap1\n      pop\n      jump\t// out\n        /* \"#utility.yul\":7651:7758   */\n    tag_78:\n        /* \"#utility.yul\":7695:7703   */\n      0x00\n        /* \"#utility.yul\":7745:7750   */\n      dup3\n        /* \"#utility.yul\":7739:7743   */\n      dup3\n        /* \"#utility.yul\":7735:7751   */\n      shl\n        /* \"#utility.yul\":7714:7751   */\n      swap1\n      pop\n        /* \"#utility.yul\":7651:7758   */\n      swap3\n      swap2\n      pop\n      pop\n      jump\t// out\n        /* \"#utility.yul\":7764:8157   */\n    tag_79:\n        /* \"#utility.yul\":7833:7839   */\n      0x00\n        /* \"#utility.yul\":7883:7884   */\n      0x08\n        /* \"#utility.yul\":7871:7881   */\n      dup4\n        /* \"#utility.yul\":7867:7885   */\n      mul\n        /* \"#utility.yul\":7906:8003   */\n      tag_174\n        /* \"#utility.yul\":7936:8002   */\n      0xffffffffffffffffffffffffffffffffffffffffffffffffffffffffffffffff\n        /* \"#utility.yul\":7925:7934   */\n      dup3\n        /* \"#utility.yul\":7906:8003   */\n      tag_78\n      jump\t// in\n    tag_174:\n        /* \"#utility.yul\":8024:8063   */\n      tag_175\n        /* \"#utility.yul\":8054:8062   */\n      dup7\n        /* \"#utility.yul\":8043:8052   */\n      dup4\n        /* \"#utility.yul\":8024:8063   */\n      tag_78\n      jump\t// in\n    tag_175:\n        /* \"#utility.yul\":8012:8063   */\n      swap6\n      pop\n        /* \"#utility.yul\":8096:8100   */\n      dup1\n        /* \"#utility.yul\":8092:8101   */\n      not\n        /* \"#utility.yul\":8085:8090   */\n      dup5\n        /* \"#utility.yul\":8081:8102   */\n      and\n        /* \"#utility.yul\":8072:8102   */\n      swap4\n      pop\n        /* \"#utility.yul\":8145:8149   */\n      dup1\n        /* \"#utility.yul\":8135:8143   */\n      dup7\n        /* \"#utility.yul\":8131:8150   */\n      and\n        /* \"#utility.yul\":8124:8129   */\n      dup5\n        /* \"#utility.yul\":8121:8151   */\n      or\n        /* \"#utility.yul\":8111:8151   */\n      swap3\n      pop\n        /* \"#utility.yul\":7840:8157   */\n      pop\n      pop\n        /* \"#utility.yul\":7764:8157   */\n      swap4\n      swap3\n      pop\n      pop\n      pop\n      jump\t// out\n        /* \"#utility.yul\":8163:8240   */\n    tag_80:\n        /* \"#utility.yul\":8200:8207   */\n      0x00\n        /* \"#utility.yul\":8229:8234   */\n      dup2\n        /* \"#utility.yul\":8218:8234   */\n      swap1\n      pop\n        /* \"#utility.yul\":8163:8240   */\n      swap2\n      swap1\n      pop\n      jump\t// out\n        /* \"#utility.yul\":8246:8306   */\n    tag_81:\n        /* \"#utility.yul\":8274:8277   */\n      0x00\n        /* \"#utility.yul\":8295:8300   */\n      dup2\n        /* \"#utility.yul\":8288:8300   */\n      swap1\n      pop\n        /* \"#utility.yul\":8246:8306   */\n      swap2\n      swap1\n      pop\n      jump\t// out\n        /* \"#utility.yul\":8312:8454   */\n    tag_82:\n        /* \"#utility.yul\":8362:8371   */\n      0x00\n        /* \"#utility.yul\":8395:8448   */\n      tag_179\n        /* \"#utility.yul\":8413:8447   */\n      tag_180\n        /* \"#utility.yul\":8422:8446   */\n      tag_181\n        /* \"#utility.yul\":8440:8445   */\n      dup5\n        /* \"#utility.yul\":8422:8446   */\n      tag_80\n      jump\t// in\n    tag_181:\n        /* \"#utility.yul\":8413:8447   */\n      tag_81\n      jump\t// in\n    tag_180:\n        /* \"#utility.yul\":8395:8448   */\n      tag_80\n      jump\t// in\n    tag_179:\n        /* \"#utility.yul\":8382:8448   */\n      swap1\n      pop\n        /* \"#utility.yul\":8312:8454   */\n      swap2\n      swap1\n      pop\n      jump\t// out\n        /* \"#utility.yul\":8460:8535   */\n    tag_83:\n        /* \"#utility.yul\":8503:8506   */\n      0x00\n        /* \"#utility.yul\":8524:8529   */\n      dup2\n        /* \"#utility.yul\":8517:8529   */\n      swap1\n      pop\n        /* \"#utility.yul\":8460:8535   */\n      swap2\n      swap1\n      pop\n      jump\t// out\n        /* \"#utility.yul\":8541:8810   */\n    tag_84:\n        /* \"#utility.yul\":8651:8690   */\n      tag_184\n        /* \"#utility.yul\":8682:8689   */\n      dup4\n        /* \"#utility.yul\":8651:8690   */\n      tag_82\n      jump\t// in\n    tag_184:\n        /* \"#utility.yul\":8712:8803   */\n      tag_185\n        /* \"#utility.yul\":8761:8802   */\n      tag_186\n        /* \"#utility.yul\":8785:8801   */\n      dup3\n        /* \"#utility.yul\":8761:8802   */\n      tag_83\n      jump\t// in\n    tag_186:\n        /* \"#utility.yul\":8753:8759   */\n      dup5\n        /* \"#utility.yul\":8746:8750   */\n      dup5\n        /* \"#utility.yul\":8740:8751   */\n      sload\n        /* \"#utility.yul\":8712:8803   */\n      tag_79\n      jump\t// in\n    tag_185:\n        /* \"#utility.yul\":8706:8710   */\n      dup3\n        /* \"#utility.yul\":8699:8804   */\n      sstore\n        /* \"#utility.yul\":8617:8810   */\n      pop\n        /* \"#utility.yul\":8541:8810   */\n      pop\n      pop\n      pop\n      jump\t// out\n        /* \"#utility.yul\":8816:8889   */\n    tag_85:\n        /* \"#utility.yul\":8861:8864   */\n      0x00\n        /* \"#utility.yul\":8816:8889   */\n      swap1\n      jump\t// out\n        /* \"#utility.yul\":8895:9084   */\n    tag_86:\n        /* \"#utility.yul\":8972:9004   */\n      tag_189\n      tag_85\n      jump\t// in\n    tag_189:\n        /* \"#utility.yul\":9013:9078   */\n      tag_190\n        /* \"#utility.yul\":9071:9077   */\n      dup2\n        /* \"#utility.yul\":9063:9069   */\n      dup5\n        /* \"#utility.yul\":9057:9061   */\n      dup5\n        /* \"#utility.yul\":9013:9078   */\n      tag_84\n      jump\t// in\n    tag_190:\n        /* \"#utility.yul\":8948:9084   */\n      pop\n        /* \"#utility.yul\":8895:9084   */\n      pop\n      pop\n      jump\t// out\n        /* \"#utility.yul\":9090:9276   */\n    tag_87:\n        /* \"#utility.yul\":9150:9270   */\n    tag_192:\n        /* \"#utility.yul\":9167:9170   */\n      dup2\n        /* \"#utility.yul\":9160:9165   */\n      dup2\n        /* \"#utility.yul\":9157:9171   */\n      lt\n        /* \"#utility.yul\":9150:9270   */\n      iszero\n      tag_194\n      jumpi\n        /* \"#utility.yul\":9221:9260   */\n      tag_195\n        /* \"#utility.yul\":9258:9259   */\n      0x00\n        /* \"#utility.yul\":9251:9256   */\n      dup3\n        /* \"#utility.yul\":9221:9260   */\n      tag_86\n      jump\t// in\n    tag_195:\n        /* \"#utility.yul\":9194:9195   */\n      0x01\n        /* \"#utility.yul\":9187:9192   */\n      dup2\n        /* \"#utility.yul\":9183:9196   */\n      add\n        /* \"#utility.yul\":9174:9196   */\n      swap1\n      pop\n        /* \"#utility.yul\":9150:9270   */\n      jump(tag_192)\n    tag_194:\n        /* \"#utility.yul\":9090:9276   */\n      pop\n      pop\n      jump\t// out\n        /* \"#utility.yul\":9282:9825   */\n    tag_88:\n        /* \"#utility.yul\":9383:9385   */\n      0x1f\n        /* \"#utility.yul\":9378:9381   */\n      dup3\n        /* \"#utility.yul\":9375:9386   */\n      gt\n        /* \"#utility.yul\":9372:9818   */\n      iszero\n      tag_197\n      jumpi\n        /* \"#utility.yul\":9417:9455   */\n      tag_198\n        /* \"#utility.yul\":9449:9454   */\n      dup2\n        /* \"#utility.yul\":9417:9455   */\n      tag_76\n      jump\t// in\n    tag_198:\n        /* \"#utility.yul\":9501:9530   */\n      tag_199\n        /* \"#utility.yul\":9519:9529   */\n      dup5\n        /* \"#utility.yul\":9501:9530   */\n      tag_77\n      jump\t// in\n    tag_199:\n        /* \"#utility.yul\":9491:9499   */\n      dup2\n        /* \"#utility.yul\":9487:9531   */\n      add\n        /* \"#utility.yul\":9684:9686   */\n      0x20\n        /* \"#utility.yul\":9672:9682   */\n      dup6\n        /* \"#utility.yul\":9669:9687   */\n      lt\n        /* \"#utility.yul\":9666:9715   */\n      iszero\n      tag_200\n      jumpi\n        /* \"#utility.yul\":9705:9713   */\n      dup2\n        /* \"#utility.yul\":9690:9713   */\n      swap1\n      pop\n        /* \"#utility.yul\":9666:9715   */\n    tag_200:\n        /* \"#utility.yul\":9728:9808   */\n      tag_201\n        /* \"#utility.yul\":9784:9806   */\n      tag_202\n        /* \"#utility.yul\":9802:9805   */\n      dup6\n        /* \"#utility.yul\":9784:9806   */\n      tag_77\n      jump\t// in\n    tag_202:\n        /* \"#utility.yul\":9774:9782   */\n      dup4\n        /* \"#utility.yul\":9770:9807   */\n      add\n        /* \"#utility.yul\":9757:9768   */\n      dup3\n        /* \"#utility.yul\":9728:9808   */\n      tag_87\n      jump\t// in\n    tag_201:\n        /* \"#utility.yul\":9387:9818   */\n      pop\n      pop\n        /* \"#utility.yul\":9372:9818   */\n    tag_197:\n        /* \"#utility.yul\":9282:9825   */\n      pop\n      pop\n      pop\n      jump\t// out\n        /* \"#utility.yul\":9831:9948   */\n    tag_89:\n        /* \"#utility.yul\":9885:9893   */\n      0x00\n        /* \"#utility.yul\":9935:9940   */\n      dup3\n        /* \"#utility.yul\":9929:9933   */\n      dup3\n        /* \"#utility.yul\":9925:9941   */\n      shr\n        /* \"#utility.yul\":9904:9941   */\n      swap1\n      pop\n        /* \"#utility.yul\":9831:9948   */\n      swap3\n      swap2\n      pop\n      pop\n      jump\t// out\n        /* \"#utility.yul\":9954:10123   */\n    tag_90:\n        /* \"#utility.yul\":9998:10004   */\n      0x00\n        /* \"#utility.yul\":10031:10082   */\n      tag_205\n        /* \"#utility.yul\":10079:10080   */\n      0x00\n        /* \"#utility.yul\":10075:10081   */\n      not\n        /* \"#utility.yul\":10067:10072   */\n      dup5\n        /* \"#utility.yul\":10064:10065   */\n      0x08\n        /* \"#utility.yul\":10060:10073   */\n      mul\n        /* \"#utility.yul\":10031:10082   */\n      tag_89\n      jump\t// in\n    tag_205:\n        /* \"#utility.yul\":10027:10083   */\n      not\n        /* \"#utility.yul\":10112:10116   */\n      dup1\n        /* \"#utility.yul\":10106:10110   */\n      dup4\n        /* \"#utility.yul\":10102:10117   */\n      and\n        /* \"#utility.yul\":10092:10117   */\n      swap2\n      pop\n        /* \"#utility.yul\":10005:10123   */\n      pop\n        /* \"#utility.yul\":9954:10123   */\n      swap3\n      swap2\n      pop\n      pop\n      jump\t// out\n        /* \"#utility.yul\":10128:10423   */\n    tag_91:\n        /* \"#utility.yul\":10204:10208   */\n      0x00\n        /* \"#utility.yul\":10350:10379   */\n      tag_207\n        /* \"#utility.yul\":10375:10378   */\n      dup4\n        /* \"#utility.yul\":10369:10373   */\n      dup4\n        /* \"#utility.yul\":10350:10379   */\n      tag_90\n      jump\t// in\n    tag_207:\n        /* \"#utility.yul\":10342:10379   */\n      swap2\n      pop\n        /* \"#utility.yul\":10412:10415   */\n      dup3\n        /* \"#utility.yul\":10409:10410   */\n      0x02\n        /* \"#utility.yul\":10405:10416   */\n      mul\n        /* \"#utility.yul\":10399:10403   */\n      dup3\n        /* \"#utility.yul\":10396:10417   */\n      or\n        /* \"#utility.yul\":10388:10417   */\n      swap1\n      pop\n        /* \"#utility.yul\":10128:10423   */\n      swap3\n      swap2\n      pop\n      pop\n      jump\t// out\n        /* \"#utility.yul\":10428:11823   */\n    tag_47:\n        /* \"#utility.yul\":10545:10582   */\n      tag_209\n        /* \"#utility.yul\":10578:10581   */\n      dup3\n        /* \"#utility.yul\":10545:10582   */\n      tag_50\n      jump\t// in\n    tag_209:\n        /* \"#utility.yul\":10647:10665   */\n      0xffffffffffffffff\n        /* \"#utility.yul\":10639:10645   */\n      dup2\n        /* \"#utility.yul\":10636:10666   */\n      gt\n        /* \"#utility.yul\":10633:10689   */\n      iszero\n      tag_210\n      jumpi\n        /* \"#utility.yul\":10669:10687   */\n      tag_211\n      tag_63\n      jump\t// in\n    tag_211:\n        /* \"#utility.yul\":10633:10689   */\n    tag_210:\n        /* \"#utility.yul\":10713:10751   */\n      tag_212\n        /* \"#utility.yul\":10745:10749   */\n      dup3\n        /* \"#utility.yul\":10739:10750   */\n      sload\n        /* \"#utility.yul\":10713:10751   */\n      tag_30\n      jump\t// in\n    tag_212:\n        /* \"#utility.yul\":10798:10865   */\n      tag_213\n        /* \"#utility.yul\":10858:10864   */\n      dup3\n        /* \"#utility.yul\":10850:10856   */\n      dup3\n        /* \"#utility.yul\":10844:10848   */\n      dup6\n        /* \"#utility.yul\":10798:10865   */\n      tag_88\n      jump\t// in\n    tag_213:\n        /* \"#utility.yul\":10892:10893   */\n      0x00\n        /* \"#utility.yul\":10916:10920   */\n      0x20\n        /* \"#utility.yul\":10903:10920   */\n      swap1\n      pop\n        /* \"#utility.yul\":10948:10950   */\n      0x1f\n        /* \"#utility.yul\":10940:10946   */\n      dup4\n        /* \"#utility.yul\":10937:10951   */\n      gt\n        /* \"#utility.yul\":10965:10966   */\n      0x01\n        /* \"#utility.yul\":10960:11578   */\n      dup2\n      eq\n      tag_215\n      jumpi\n        /* \"#utility.yul\":11622:11623   */\n      0x00\n        /* \"#utility.yul\":11639:11645   */\n      dup5\n        /* \"#utility.yul\":11636:11713   */\n      iszero\n      tag_216\n      jumpi\n        /* \"#utility.yul\":11688:11697   */\n      dup3\n        /* \"#utility.yul\":11683:11686   */\n      dup8\n        /* \"#utility.yul\":11679:11698   */\n      add\n        /* \"#utility.yul\":11673:11699   */\n      mload\n        /* \"#utility.yul\":11664:11699   */\n      swap1\n      pop\n        /* \"#utility.yul\":11636:11713   */\n    tag_216:\n        /* \"#utility.yul\":11739:11806   */\n      tag_217\n        /* \"#utility.yul\":11799:11805   */\n      dup6\n        /* \"#utility.yul\":11792:11797   */\n      dup3\n        /* \"#utility.yul\":11739:11806   */\n      tag_91\n      jump\t// in\n    tag_217:\n        /* \"#utility.yul\":11733:11737   */\n      dup7\n        /* \"#utility.yul\":11726:11807   */\n      sstore\n        /* \"#utility.yul\":11595:11817   */\n      pop\n        /* \"#utility.yul\":10930:11817   */\n      jump(tag_214)\n        /* \"#utility.yul\":10960:11578   */\n    tag_215:\n        /* \"#utility.yul\":11012:11016   */\n      0x1f\n        /* \"#utility.yul\":11008:11017   */\n      not\n        /* \"#utility.yul\":11000:11006   */\n      dup5\n        /* \"#utility.yul\":10996:11018   */\n      and\n        /* \"#utility.yul\":11046:11083   */\n      tag_218\n        /* \"#utility.yul\":11078:11082   */\n      dup7\n        /* \"#utility.yul\":11046:11083   */\n      tag_76\n      jump\t// in\n    tag_218:\n        /* \"#utility.yul\":11105:11106   */\n      0x00\n        /* \"#utility.yul\":11119:11327   */\n    tag_219:\n        /* \"#utility.yul\":11133:11140   */\n      dup3\n        /* \"#utility.yul\":11130:11131   */\n      dup2\n        /* \"#utility.yul\":11127:11141   */\n      lt\n        /* \"#utility.yul\":11119:11327   */\n      iszero\n      tag_221\n      jumpi\n        /* \"#utility.yul\":11212:11221   */\n      dup5\n        /* \"#utility.yul\":11207:11210   */\n      dup10\n        /* \"#utility.yul\":11203:11222   */\n      add\n        /* \"#utility.yul\":11197:11223   */\n      mload\n        /* \"#utility.yul\":11189:11195   */\n      dup3\n        /* \"#utility.yul\":11182:11224   */\n      sstore\n        /* \"#utility.yul\":11263:11264   */\n      0x01\n        /* \"#utility.yul\":11255:11261   */\n      dup3\n        /* \"#utility.yul\":11251:11265   */\n      add\n        /* \"#utility.yul\":11241:11265   */\n      swap2\n      pop\n        /* \"#utility.yul\":11310:11312   */\n      0x20\n        /* \"#utility.yul\":11299:11308   */\n      dup6\n        /* \"#utility.yul\":11295:11313   */\n      add\n        /* \"#utility.yul\":11282:11313   */\n      swap5\n      pop\n        /* \"#utility.yul\":11156:11160   */\n      0x20\n        /* \"#utility.yul\":11153:11154   */\n      dup2\n        /* \"#utility.yul\":11149:11161   */\n      add\n        /* \"#utility.yul\":11144:11161   */\n      swap1\n      pop\n        /* \"#utility.yul\":11119:11327   */\n      jump(tag_219)\n    tag_221:\n        /* \"#utility.yul\":11355:11361   */\n      dup7\n        /* \"#utility.yul\":11346:11353   */\n      dup4\n        /* \"#utility.yul\":11343:11362   */\n      lt\n        /* \"#utility.yul\":11340:11519   */\n      iszero\n      tag_222\n      jumpi\n        /* \"#utility.yul\":11413:11422   */\n      dup5\n        /* \"#utility.yul\":11408:11411   */\n      dup10\n        /* \"#utility.yul\":11404:11423   */\n      add\n        /* \"#utility.yul\":11398:11424   */\n      mload\n        /* \"#utility.yul\":11456:11504   */\n      tag_223\n        /* \"#utility.yul\":11498:11502   */\n      0x1f\n        /* \"#utility.yul\":11490:11496   */\n      dup10\n        /* \"#utility.yul\":11486:11503   */\n      and\n        /* \"#utility.yul\":11475:11484   */\n      dup3\n        /* \"#utility.yul\":11456:11504   */\n      tag_90\n      jump\t// in\n    tag_223:\n        /* \"#utility.yul\":11448:11454   */\n      dup4\n        /* \"#utility.yul\":11441:11505   */\n      sstore\n        /* \"#utility.yul\":11363:11519   */\n      pop\n        /* \"#utility.yul\":11340:11519   */\n    tag_222:\n        /* \"#utility.yul\":11565:11566   */\n      0x01\n        /* \"#utility.yul\":11561:11562   */\n      0x02\n        /* \"#utility.yul\":11553:11559   */\n      dup9\n        /* \"#utility.yul\":11549:11563   */\n      mul\n        /* \"#utility.yul\":11545:11567   */\n      add\n        /* \"#utility.yul\":11539:11543   */\n      dup9\n        /* \"#utility.yul\":11532:11568   */\n      sstore\n        /* \"#utility.yul\":10967:11578   */\n      pop\n      pop\n      pop\n        /* \"#utility.yul\":10930:11817   */\n    tag_214:\n      pop\n        /* \"#utility.yul\":10520:11823   */\n      pop\n      pop\n      pop\n        /* \"#utility.yul\":10428:11823   */\n      pop\n      pop\n      jump\t// out\n\n    auxdata: 0xa2646970667358221220ebb24c50a568363476c35a8610ff847eb5b0a0427f301512e96778f634a2f70c64736f6c634300081a0033\n}\n",
				"bytecode": {
					"linkReferences": {},
					"object": "6080604052348015600e575f80fd5b5061099b8061001c5f395ff3fe608060405234801561000f575f80fd5b5060043610610055575f3560e01c80630b49c5241461005957806344ad9612146100775780635a73a567146100955780637a3f6c36146100b35780637efcd147146100cf575b5f80fd5b6100616100eb565b60405161006e919061040d565b60405180910390f35b61007f6101b1565b60405161008c919061040d565b60405180910390f35b61009d610218565b6040516100aa919061040d565b60405180910390f35b6100cd60048036038101906100c8919061056a565b6102dc565b005b6100e960048036038101906100e4919061064c565b6102f0565b005b6100f361032c565b5f806040518060400160405290815f8201805461010f906106c0565b80601f016020809104026020016040519081016040528092919081815260200182805461013b906106c0565b80156101865780601f1061015d57610100808354040283529160200191610186565b820191905f5260205f20905b81548152906001019060200180831161016957829003601f168201915b50505050508152602001600182015f9054906101000a900460ff1660ff1660ff168152505091505090565b6101b961032c565b6101c161032c565b6040518060400160405280600581526020017f6572676f75000000000000000000000000000000000000000000000000000000815250815f0181905250600c816020019060ff16908160ff16815250508091505090565b61022061032c565b5f6040518060400160405290815f8201805461023b906106c0565b80601f0160208091040260200160405190810160405280929190818152602001828054610267906106c0565b80156102b25780601f10610289576101008083540402835291602001916102b2565b820191905f5260205f20905b81548152906001019060200180831161029557829003601f168201915b50505050508152602001600182015f9054906101000a900460ff1660ff1660ff1681525050905090565b805f800190816102ec9190610896565b5050565b805f80820151815f0190816103059190610896565b506020820151816001015f6101000a81548160ff021916908360ff16021790555090505050565b6040518060400160405280606081526020015f60ff1681525090565b5f81519050919050565b5f82825260208201905092915050565b8281835e5f83830152505050565b5f601f19601f8301169050919050565b5f61038a82610348565b6103948185610352565b93506103a4818560208601610362565b6103ad81610370565b840191505092915050565b5f60ff82169050919050565b6103cd816103b8565b82525050565b5f604083015f8301518482035f8601526103ed8282610380565b915050602083015161040260208601826103c4565b508091505092915050565b5f6020820190508181035f83015261042581846103d3565b905092915050565b5f604051905090565b5f80fd5b5f80fd5b5f80fd5b5f80fd5b7f4e487b71000000000000000000000000000000000000000000000000000000005f52604160045260245ffd5b61047c82610370565b810181811067ffffffffffffffff8211171561049b5761049a610446565b5b80604052505050565b5f6104ad61042d565b90506104b98282610473565b919050565b5f67ffffffffffffffff8211156104d8576104d7610446565b5b6104e182610370565b9050602081019050919050565b828183375f83830152505050565b5f61050e610509846104be565b6104a4565b90508281526020810184848401111561052a57610529610442565b5b6105358482856104ee565b509392505050565b5f82601f8301126105515761055061043e565b5b81356105618482602086016104fc565b91505092915050565b5f6020828403121561057f5761057e610436565b5b5f82013567ffffffffffffffff81111561059c5761059b61043a565b5b6105a88482850161053d565b91505092915050565b5f80fd5b5f80fd5b6105c2816103b8565b81146105cc575f80fd5b50565b5f813590506105dd816105b9565b92915050565b5f604082840312156105f8576105f76105b1565b5b61060260406104a4565b90505f82013567ffffffffffffffff811115610621576106206105b5565b5b61062d8482850161053d565b5f830152506020610640848285016105cf565b60208301525092915050565b5f6020828403121561066157610660610436565b5b5f82013567ffffffffffffffff81111561067e5761067d61043a565b5b61068a848285016105e3565b91505092915050565b7f4e487b71000000000000000000000000000000000000000000000000000000005f52602260045260245ffd5b5f60028204905060018216806106d757607f821691505b6020821081036106ea576106e9610693565b5b50919050565b5f819050815f5260205f209050919050565b5f6020601f8301049050919050565b5f82821b905092915050565b5f6008830261074c7fffffffffffffffffffffffffffffffffffffffffffffffffffffffffffffffff82610711565b6107568683610711565b95508019841693508086168417925050509392505050565b5f819050919050565b5f819050919050565b5f61079a6107956107908461076e565b610777565b61076e565b9050919050565b5f819050919050565b6107b383610780565b6107c76107bf826107a1565b84845461071d565b825550505050565b5f90565b6107db6107cf565b6107e68184846107aa565b505050565b5b81811015610809576107fe5f826107d3565b6001810190506107ec565b5050565b601f82111561084e5761081f816106f0565b61082884610702565b81016020851015610837578190505b61084b61084385610702565b8301826107eb565b50505b505050565b5f82821c905092915050565b5f61086e5f1984600802610853565b1980831691505092915050565b5f610886838361085f565b9150826002028217905092915050565b61089f82610348565b67ffffffffffffffff8111156108b8576108b7610446565b5b6108c282546106c0565b6108cd82828561080d565b5f60209050601f8311600181146108fe575f84156108ec578287015190505b6108f6858261087b565b86555061095d565b601f19841661090c866106f0565b5f5b828110156109335784890151825560018201915060208501945060208101905061090e565b86831015610950578489015161094c601f89168261085f565b8355505b6001600288020188555050505b50505050505056fea2646970667358221220ebb24c50a568363476c35a8610ff847eb5b0a0427f301512e96778f634a2f70c64736f6c634300081a0033",
					"opcodes": "PUSH1 0x80 PUSH1 0x40 MSTORE CALLVALUE DUP1 ISZERO PUSH1 0xE JUMPI PUSH0 DUP1 REVERT JUMPDEST POP PUSH2 0x99B DUP1 PUSH2 0x1C PUSH0 CODECOPY PUSH0 RETURN INVALID PUSH1 0x80 PUSH1 0x40 MSTORE CALLVALUE DUP1 ISZERO PUSH2 0xF JUMPI PUSH0 DUP1 REVERT JUMPDEST POP PUSH1 0x4 CALLDATASIZE LT PUSH2 0x55 JUMPI PUSH0 CALLDATALOAD PUSH1 0xE0 SHR DUP1 PUSH4 0xB49C524 EQ PUSH2 0x59 JUMPI DUP1 PUSH4 0x44AD9612 EQ PUSH2 0x77 JUMPI DUP1 PUSH4 0x5A73A567 EQ PUSH2 0x95 JUMPI DUP1 PUSH4 0x7A3F6C36 EQ PUSH2 0xB3 JUMPI DUP1 PUSH4 0x7EFCD147 EQ PUSH2 0xCF JUMPI JUMPDEST PUSH0 DUP1 REVERT JUMPDEST PUSH2 0x61 PUSH2 0xEB JUMP JUMPDEST PUSH1 0x40 MLOAD PUSH2 0x6E SWAP2 SWAP1 PUSH2 0x40D JUMP JUMPDEST PUSH1 0x40 MLOAD DUP1 SWAP2 SUB SWAP1 RETURN JUMPDEST PUSH2 0x7F PUSH2 0x1B1 JUMP JUMPDEST PUSH1 0x40 MLOAD PUSH2 0x8C SWAP2 SWAP1 PUSH2 0x40D JUMP JUMPDEST PUSH1 0x40 MLOAD DUP1 SWAP2 SUB SWAP1 RETURN JUMPDEST PUSH2 0x9D PUSH2 0x218 JUMP JUMPDEST PUSH1 0x40 MLOAD PUSH2 0xAA SWAP2 SWAP1 PUSH2 0x40D JUMP JUMPDEST PUSH1 0x40 MLOAD DUP1 SWAP2 SUB SWAP1 RETURN JUMPDEST PUSH2 0xCD PUSH1 0x4 DUP1 CALLDATASIZE SUB DUP2 ADD SWAP1 PUSH2 0xC8 SWAP2 SWAP1 PUSH2 0x56A JUMP JUMPDEST PUSH2 0x2DC JUMP JUMPDEST STOP JUMPDEST PUSH2 0xE9 PUSH1 0x4 DUP1 CALLDATASIZE SUB DUP2 ADD SWAP1 PUSH2 0xE4 SWAP2 SWAP1 PUSH2 0x64C JUMP JUMPDEST PUSH2 0x2F0 JUMP JUMPDEST STOP JUMPDEST PUSH2 0xF3 PUSH2 0x32C JUMP JUMPDEST PUSH0 DUP1 PUSH1 0x40 MLOAD DUP1 PUSH1 0x40 ADD PUSH1 0x40 MSTORE SWAP1 DUP2 PUSH0 DUP3 ADD DUP1 SLOAD PUSH2 0x10F SWAP1 PUSH2 0x6C0 JUMP JUMPDEST DUP1 PUSH1 0x1F ADD PUSH1 0x20 DUP1 SWAP2 DIV MUL PUSH1 0x20 ADD PUSH1 0x40 MLOAD SWAP1 DUP2 ADD PUSH1 0x40 MSTORE DUP1 SWAP3 SWAP2 SWAP1 DUP2 DUP2 MSTORE PUSH1 0x20 ADD DUP3 DUP1 SLOAD PUSH2 0x13B SWAP1 PUSH2 0x6C0 JUMP JUMPDEST DUP1 ISZERO PUSH2 0x186 JUMPI DUP1 PUSH1 0x1F LT PUSH2 0x15D JUMPI PUSH2 0x100 DUP1 DUP4 SLOAD DIV MUL DUP4 MSTORE SWAP2 PUSH1 0x20 ADD SWAP2 PUSH2 0x186 JUMP JUMPDEST DUP3 ADD SWAP2 SWAP1 PUSH0 MSTORE PUSH1 0x20 PUSH0 KECCAK256 SWAP1 JUMPDEST DUP2 SLOAD DUP2 MSTORE SWAP1 PUSH1 0x1 ADD SWAP1 PUSH1 0x20 ADD DUP1 DUP4 GT PUSH2 0x169 JUMPI DUP3 SWAP1 SUB PUSH1 0x1F AND DUP3 ADD SWAP2 JUMPDEST POP POP POP POP POP DUP2 MSTORE PUSH1 0x20 ADD PUSH1 0x1 DUP3 ADD PUSH0 SWAP1 SLOAD SWAP1 PUSH2 0x100 EXP SWAP1 DIV PUSH1 0xFF AND PUSH1 0xFF AND PUSH1 0xFF AND DUP2 MSTORE POP POP SWAP2 POP POP SWAP1 JUMP JUMPDEST PUSH2 0x1B9 PUSH2 0x32C JUMP JUMPDEST PUSH2 0x1C1 PUSH2 0x32C JUMP JUMPDEST PUSH1 0x40 MLOAD DUP1 PUSH1 0x40 ADD PUSH1 0x40 MSTORE DUP1 PUSH1 0x5 DUP2 MSTORE PUSH1 0x20 ADD PUSH32 0x6572676F75000000000000000000000000000000000000000000000000000000 DUP2 MSTORE POP DUP2 PUSH0 ADD DUP2 SWAP1 MSTORE POP PUSH1 0xC DUP2 PUSH1 0x20 ADD SWAP1 PUSH1 0xFF AND SWAP1 DUP2 PUSH1 0xFF AND DUP2 MSTORE POP POP DUP1 SWAP2 POP POP SWAP1 JUMP JUMPDEST PUSH2 0x220 PUSH2 0x32C JUMP JUMPDEST PUSH0 PUSH1 0x40 MLOAD DUP1 PUSH1 0x40 ADD PUSH1 0x40 MSTORE SWAP1 DUP2 PUSH0 DUP3 ADD DUP1 SLOAD PUSH2 0x23B SWAP1 PUSH2 0x6C0 JUMP JUMPDEST DUP1 PUSH1 0x1F ADD PUSH1 0x20 DUP1 SWAP2 DIV MUL PUSH1 0x20 ADD PUSH1 0x40 MLOAD SWAP1 DUP2 ADD PUSH1 0x40 MSTORE DUP1 SWAP3 SWAP2 SWAP1 DUP2 DUP2 MSTORE PUSH1 0x20 ADD DUP3 DUP1 SLOAD PUSH2 0x267 SWAP1 PUSH2 0x6C0 JUMP JUMPDEST DUP1 ISZERO PUSH2 0x2B2 JUMPI DUP1 PUSH1 0x1F LT PUSH2 0x289 JUMPI PUSH2 0x100 DUP1 DUP4 SLOAD DIV MUL DUP4 MSTORE SWAP2 PUSH1 0x20 ADD SWAP2 PUSH2 0x2B2 JUMP JUMPDEST DUP3 ADD SWAP2 SWAP1 PUSH0 MSTORE PUSH1 0x20 PUSH0 KECCAK256 SWAP1 JUMPDEST DUP2 SLOAD DUP2 MSTORE SWAP1 PUSH1 0x1 ADD SWAP1 PUSH1 0x20 ADD DUP1 DUP4 GT PUSH2 0x295 JUMPI DUP3 SWAP1 SUB PUSH1 0x1F AND DUP3 ADD SWAP2 JUMPDEST POP POP POP POP POP DUP2 MSTORE PUSH1 0x20 ADD PUSH1 0x1 DUP3 ADD PUSH0 SWAP1 SLOAD SWAP1 PUSH2 0x100 EXP SWAP1 DIV PUSH1 0xFF AND PUSH1 0xFF AND PUSH1 0xFF AND DUP2 MSTORE POP POP SWAP1 POP SWAP1 JUMP JUMPDEST DUP1 PUSH0 DUP1 ADD SWAP1 DUP2 PUSH2 0x2EC SWAP2 SWAP1 PUSH2 0x896 JUMP JUMPDEST POP POP JUMP JUMPDEST DUP1 PUSH0 DUP1 DUP3 ADD MLOAD DUP2 PUSH0 ADD SWAP1 DUP2 PUSH2 0x305 SWAP2 SWAP1 PUSH2 0x896 JUMP JUMPDEST POP PUSH1 0x20 DUP3 ADD MLOAD DUP2 PUSH1 0x1 ADD PUSH0 PUSH2 0x100 EXP DUP2 SLOAD DUP2 PUSH1 0xFF MUL NOT AND SWAP1 DUP4 PUSH1 0xFF AND MUL OR SWAP1 SSTORE POP SWAP1 POP POP POP JUMP JUMPDEST PUSH1 0x40 MLOAD DUP1 PUSH1 0x40 ADD PUSH1 0x40 MSTORE DUP1 PUSH1 0x60 DUP2 MSTORE PUSH1 0x20 ADD PUSH0 PUSH1 0xFF AND DUP2 MSTORE POP SWAP1 JUMP JUMPDEST PUSH0 DUP2 MLOAD SWAP1 POP SWAP2 SWAP1 POP JUMP JUMPDEST PUSH0 DUP3 DUP3 MSTORE PUSH1 0x20 DUP3 ADD SWAP1 POP SWAP3 SWAP2 POP POP JUMP JUMPDEST DUP3 DUP2 DUP4 MCOPY PUSH0 DUP4 DUP4 ADD MSTORE POP POP POP JUMP JUMPDEST PUSH0 PUSH1 0x1F NOT PUSH1 0x1F DUP4 ADD AND SWAP1 POP SWAP2 SWAP1 POP JUMP JUMPDEST PUSH0 PUSH2 0x38A DUP3 PUSH2 0x348 JUMP JUMPDEST PUSH2 0x394 DUP2 DUP6 PUSH2 0x352 JUMP JUMPDEST SWAP4 POP PUSH2 0x3A4 DUP2 DUP6 PUSH1 0x20 DUP7 ADD PUSH2 0x362 JUMP JUMPDEST PUSH2 0x3AD DUP2 PUSH2 0x370 JUMP JUMPDEST DUP5 ADD SWAP2 POP POP SWAP3 SWAP2 POP POP JUMP JUMPDEST PUSH0 PUSH1 0xFF DUP3 AND SWAP1 POP SWAP2 SWAP1 POP JUMP JUMPDEST PUSH2 0x3CD DUP2 PUSH2 0x3B8 JUMP JUMPDEST DUP3 MSTORE POP POP JUMP JUMPDEST PUSH0 PUSH1 0x40 DUP4 ADD PUSH0 DUP4 ADD MLOAD DUP5 DUP3 SUB PUSH0 DUP7 ADD MSTORE PUSH2 0x3ED DUP3 DUP3 PUSH2 0x380 JUMP JUMPDEST SWAP2 POP POP PUSH1 0x20 DUP4 ADD MLOAD PUSH2 0x402 PUSH1 0x20 DUP7 ADD DUP3 PUSH2 0x3C4 JUMP JUMPDEST POP DUP1 SWAP2 POP POP SWAP3 SWAP2 POP POP JUMP JUMPDEST PUSH0 PUSH1 0x20 DUP3 ADD SWAP1 POP DUP2 DUP2 SUB PUSH0 DUP4 ADD MSTORE PUSH2 0x425 DUP2 DUP5 PUSH2 0x3D3 JUMP JUMPDEST SWAP1 POP SWAP3 SWAP2 POP POP JUMP JUMPDEST PUSH0 PUSH1 0x40 MLOAD SWAP1 POP SWAP1 JUMP JUMPDEST PUSH0 DUP1 REVERT JUMPDEST PUSH0 DUP1 REVERT JUMPDEST PUSH0 DUP1 REVERT JUMPDEST PUSH0 DUP1 REVERT JUMPDEST PUSH32 0x4E487B7100000000000000000000000000000000000000000000000000000000 PUSH0 MSTORE PUSH1 0x41 PUSH1 0x4 MSTORE PUSH1 0x24 PUSH0 REVERT JUMPDEST PUSH2 0x47C DUP3 PUSH2 0x370 JUMP JUMPDEST DUP2 ADD DUP2 DUP2 LT PUSH8 0xFFFFFFFFFFFFFFFF DUP3 GT OR ISZERO PUSH2 0x49B JUMPI PUSH2 0x49A PUSH2 0x446 JUMP JUMPDEST JUMPDEST DUP1 PUSH1 0x40 MSTORE POP POP POP JUMP JUMPDEST PUSH0 PUSH2 0x4AD PUSH2 0x42D JUMP JUMPDEST SWAP1 POP PUSH2 0x4B9 DUP3 DUP3 PUSH2 0x473 JUMP JUMPDEST SWAP2 SWAP1 POP JUMP JUMPDEST PUSH0 PUSH8 0xFFFFFFFFFFFFFFFF DUP3 GT ISZERO PUSH2 0x4D8 JUMPI PUSH2 0x4D7 PUSH2 0x446 JUMP JUMPDEST JUMPDEST PUSH2 0x4E1 DUP3 PUSH2 0x370 JUMP JUMPDEST SWAP1 POP PUSH1 0x20 DUP2 ADD SWAP1 POP SWAP2 SWAP1 POP JUMP JUMPDEST DUP3 DUP2 DUP4 CALLDATACOPY PUSH0 DUP4 DUP4 ADD MSTORE POP POP POP JUMP JUMPDEST PUSH0 PUSH2 0x50E PUSH2 0x509 DUP5 PUSH2 0x4BE JUMP JUMPDEST PUSH2 0x4A4 JUMP JUMPDEST SWAP1 POP DUP3 DUP2 MSTORE PUSH1 0x20 DUP2 ADD DUP5 DUP5 DUP5 ADD GT ISZERO PUSH2 0x52A JUMPI PUSH2 0x529 PUSH2 0x442 JUMP JUMPDEST JUMPDEST PUSH2 0x535 DUP5 DUP3 DUP6 PUSH2 0x4EE JUMP JUMPDEST POP SWAP4 SWAP3 POP POP POP JUMP JUMPDEST PUSH0 DUP3 PUSH1 0x1F DUP4 ADD SLT PUSH2 0x551 JUMPI PUSH2 0x550 PUSH2 0x43E JUMP JUMPDEST JUMPDEST DUP2 CALLDATALOAD PUSH2 0x561 DUP5 DUP3 PUSH1 0x20 DUP7 ADD PUSH2 0x4FC JUMP JUMPDEST SWAP2 POP POP SWAP3 SWAP2 POP POP JUMP JUMPDEST PUSH0 PUSH1 0x20 DUP3 DUP5 SUB SLT ISZERO PUSH2 0x57F JUMPI PUSH2 0x57E PUSH2 0x436 JUMP JUMPDEST JUMPDEST PUSH0 DUP3 ADD CALLDATALOAD PUSH8 0xFFFFFFFFFFFFFFFF DUP2 GT ISZERO PUSH2 0x59C JUMPI PUSH2 0x59B PUSH2 0x43A JUMP JUMPDEST JUMPDEST PUSH2 0x5A8 DUP5 DUP3 DUP6 ADD PUSH2 0x53D JUMP JUMPDEST SWAP2 POP POP SWAP3 SWAP2 POP POP JUMP JUMPDEST PUSH0 DUP1 REVERT JUMPDEST PUSH0 DUP1 REVERT JUMPDEST PUSH2 0x5C2 DUP2 PUSH2 0x3B8 JUMP JUMPDEST DUP2 EQ PUSH2 0x5CC JUMPI PUSH0 DUP1 REVERT JUMPDEST POP JUMP JUMPDEST PUSH0 DUP2 CALLDATALOAD SWAP1 POP PUSH2 0x5DD DUP2 PUSH2 0x5B9 JUMP JUMPDEST SWAP3 SWAP2 POP POP JUMP JUMPDEST PUSH0 PUSH1 0x40 DUP3 DUP5 SUB SLT ISZERO PUSH2 0x5F8 JUMPI PUSH2 0x5F7 PUSH2 0x5B1 JUMP JUMPDEST JUMPDEST PUSH2 0x602 PUSH1 0x40 PUSH2 0x4A4 JUMP JUMPDEST SWAP1 POP PUSH0 DUP3 ADD CALLDATALOAD PUSH8 0xFFFFFFFFFFFFFFFF DUP2 GT ISZERO PUSH2 0x621 JUMPI PUSH2 0x620 PUSH2 0x5B5 JUMP JUMPDEST JUMPDEST PUSH2 0x62D DUP5 DUP3 DUP6 ADD PUSH2 0x53D JUMP JUMPDEST PUSH0 DUP4 ADD MSTORE POP PUSH1 0x20 PUSH2 0x640 DUP5 DUP3 DUP6 ADD PUSH2 0x5CF JUMP JUMPDEST PUSH1 0x20 DUP4 ADD MSTORE POP SWAP3 SWAP2 POP POP JUMP JUMPDEST PUSH0 PUSH1 0x20 DUP3 DUP5 SUB SLT ISZERO PUSH2 0x661 JUMPI PUSH2 0x660 PUSH2 0x436 JUMP JUMPDEST JUMPDEST PUSH0 DUP3 ADD CALLDATALOAD PUSH8 0xFFFFFFFFFFFFFFFF DUP2 GT ISZERO PUSH2 0x67E JUMPI PUSH2 0x67D PUSH2 0x43A JUMP JUMPDEST JUMPDEST PUSH2 0x68A DUP5 DUP3 DUP6 ADD PUSH2 0x5E3 JUMP JUMPDEST SWAP2 POP POP SWAP3 SWAP2 POP POP JUMP JUMPDEST PUSH32 0x4E487B7100000000000000000000000000000000000000000000000000000000 PUSH0 MSTORE PUSH1 0x22 PUSH1 0x4 MSTORE PUSH1 0x24 PUSH0 REVERT JUMPDEST PUSH0 PUSH1 0x2 DUP3 DIV SWAP1 POP PUSH1 0x1 DUP3 AND DUP1 PUSH2 0x6D7 JUMPI PUSH1 0x7F DUP3 AND SWAP2 POP JUMPDEST PUSH1 0x20 DUP3 LT DUP2 SUB PUSH2 0x6EA JUMPI PUSH2 0x6E9 PUSH2 0x693 JUMP JUMPDEST JUMPDEST POP SWAP2 SWAP1 POP JUMP JUMPDEST PUSH0 DUP2 SWAP1 POP DUP2 PUSH0 MSTORE PUSH1 0x20 PUSH0 KECCAK256 SWAP1 POP SWAP2 SWAP1 POP JUMP JUMPDEST PUSH0 PUSH1 0x20 PUSH1 0x1F DUP4 ADD DIV SWAP1 POP SWAP2 SWAP1 POP JUMP JUMPDEST PUSH0 DUP3 DUP3 SHL SWAP1 POP SWAP3 SWAP2 POP POP JUMP JUMPDEST PUSH0 PUSH1 0x8 DUP4 MUL PUSH2 0x74C PUSH32 0xFFFFFFFFFFFFFFFFFFFFFFFFFFFFFFFFFFFFFFFFFFFFFFFFFFFFFFFFFFFFFFFF DUP3 PUSH2 0x711 JUMP JUMPDEST PUSH2 0x756 DUP7 DUP4 PUSH2 0x711 JUMP JUMPDEST SWAP6 POP DUP1 NOT DUP5 AND SWAP4 POP DUP1 DUP7 AND DUP5 OR SWAP3 POP POP POP SWAP4 SWAP3 POP POP POP JUMP JUMPDEST PUSH0 DUP2 SWAP1 POP SWAP2 SWAP1 POP JUMP JUMPDEST PUSH0 DUP2 SWAP1 POP SWAP2 SWAP1 POP JUMP JUMPDEST PUSH0 PUSH2 0x79A PUSH2 0x795 PUSH2 0x790 DUP5 PUSH2 0x76E JUMP JUMPDEST PUSH2 0x777 JUMP JUMPDEST PUSH2 0x76E JUMP JUMPDEST SWAP1 POP SWAP2 SWAP1 POP JUMP JUMPDEST PUSH0 DUP2 SWAP1 POP SWAP2 SWAP1 POP JUMP JUMPDEST PUSH2 0x7B3 DUP4 PUSH2 0x780 JUMP JUMPDEST PUSH2 0x7C7 PUSH2 0x7BF DUP3 PUSH2 0x7A1 JUMP JUMPDEST DUP5 DUP5 SLOAD PUSH2 0x71D JUMP JUMPDEST DUP3 SSTORE POP POP POP POP JUMP JUMPDEST PUSH0 SWAP1 JUMP JUMPDEST PUSH2 0x7DB PUSH2 0x7CF JUMP JUMPDEST PUSH2 0x7E6 DUP2 DUP5 DUP5 PUSH2 0x7AA JUMP JUMPDEST POP POP POP JUMP JUMPDEST JUMPDEST DUP2 DUP2 LT ISZERO PUSH2 0x809 JUMPI PUSH2 0x7FE PUSH0 DUP3 PUSH2 0x7D3 JUMP JUMPDEST PUSH1 0x1 DUP2 ADD SWAP1 POP PUSH2 0x7EC JUMP JUMPDEST POP POP JUMP JUMPDEST PUSH1 0x1F DUP3 GT ISZERO PUSH2 0x84E JUMPI PUSH2 0x81F DUP2 PUSH2 0x6F0 JUMP JUMPDEST PUSH2 0x828 DUP5 PUSH2 0x702 JUMP JUMPDEST DUP2 ADD PUSH1 0x20 DUP6 LT ISZERO PUSH2 0x837 JUMPI DUP2 SWAP1 POP JUMPDEST PUSH2 0x84B PUSH2 0x843 DUP6 PUSH2 0x702 JUMP JUMPDEST DUP4 ADD DUP3 PUSH2 0x7EB JUMP JUMPDEST POP POP JUMPDEST POP POP POP JUMP JUMPDEST PUSH0 DUP3 DUP3 SHR SWAP1 POP SWAP3 SWAP2 POP POP JUMP JUMPDEST PUSH0 PUSH2 0x86E PUSH0 NOT DUP5 PUSH1 0x8 MUL PUSH2 0x853 JUMP JUMPDEST NOT DUP1 DUP4 AND SWAP2 POP POP SWAP3 SWAP2 POP POP JUMP JUMPDEST PUSH0 PUSH2 0x886 DUP4 DUP4 PUSH2 0x85F JUMP JUMPDEST SWAP2 POP DUP3 PUSH1 0x2 MUL DUP3 OR SWAP1 POP SWAP3 SWAP2 POP POP JUMP JUMPDEST PUSH2 0x89F DUP3 PUSH2 0x348 JUMP JUMPDEST PUSH8 0xFFFFFFFFFFFFFFFF DUP2 GT ISZERO PUSH2 0x8B8 JUMPI PUSH2 0x8B7 PUSH2 0x446 JUMP JUMPDEST JUMPDEST PUSH2 0x8C2 DUP3 SLOAD PUSH2 0x6C0 JUMP JUMPDEST PUSH2 0x8CD DUP3 DUP3 DUP6 PUSH2 0x80D JUMP JUMPDEST PUSH0 PUSH1 0x20 SWAP1 POP PUSH1 0x1F DUP4 GT PUSH1 0x1 DUP2 EQ PUSH2 0x8FE JUMPI PUSH0 DUP5 ISZERO PUSH2 0x8EC JUMPI DUP3 DUP8 ADD MLOAD SWAP1 POP JUMPDEST PUSH2 0x8F6 DUP6 DUP3 PUSH2 0x87B JUMP JUMPDEST DUP7 SSTORE POP PUSH2 0x95D JUMP JUMPDEST PUSH1 0x1F NOT DUP5 AND PUSH2 0x90C DUP7 PUSH2 0x6F0 JUMP JUMPDEST PUSH0 JUMPDEST DUP3 DUP2 LT ISZERO PUSH2 0x933 JUMPI DUP5 DUP10 ADD MLOAD DUP3 SSTORE PUSH1 0x1 DUP3 ADD SWAP2 POP PUSH1 0x20 DUP6 ADD SWAP5 POP PUSH1 0x20 DUP2 ADD SWAP1 POP PUSH2 0x90E JUMP JUMPDEST DUP7 DUP4 LT ISZERO PUSH2 0x950 JUMPI DUP5 DUP10 ADD MLOAD PUSH2 0x94C PUSH1 0x1F DUP10 AND DUP3 PUSH2 0x85F JUMP JUMPDEST DUP4 SSTORE POP JUMPDEST PUSH1 0x1 PUSH1 0x2 DUP9 MUL ADD DUP9 SSTORE POP POP POP JUMPDEST POP POP POP POP POP POP JUMP INVALID LOG2 PUSH5 0x6970667358 0x22 SLT KECCAK256 0xEB 0xB2 0x4C POP 0xA5 PUSH9 0x363476C35A8610FF84 PUSH31 0xB5B0A0427F301512E96778F634A2F70C64736F6C634300081A003300000000 "
				},
				"gasEstimates": {
					"creation": {
						"codeDepositCost": "491800",
						"executionCost": "522",
						"totalCost": "492322"
					},
					"external": {
						"readPerson()": "infinite",
						"testMemoryStruct()": "infinite",
						"testStorageLocalStruct()": "infinite",
						"writePerson((string,uint8))": "infinite",
						"writePerson(string)": "infinite"
					}
				},
				"methodIdentifiers": {
					"readPerson()": "5a73a567",
					"testMemoryStruct()": "44ad9612",
					"testStorageLocalStruct()": "0b49c524",
					"writePerson((string,uint8))": "7efcd147",
					"writePerson(string)": "7a3f6c36"
				}
			},
			"storageLayout": {
				"storage": [
					{
						"astId": 16,
						"contract": "datatype/StructType.sol:StructType",
						"label": "master",
						"offset": 0,
						"slot": "0",
						"type": "t_struct(Person)6_storage"
					}
				],
				"types": {
					"t_string_storage": {
						"encoding": "bytes",
						"label": "string",
						"numberOfBytes": "32"
					},
					"t_struct(Person)6_storage": {
						"encoding": "inplace",
						"label": "struct StructType.Person",
						"members": [
							{
								"astId": 3,
								"contract": "datatype/StructType.sol:StructType",
								"label": "name",
								"offset": 0,
								"slot": "0",
								"type": "t_string_storage"
							},
							{
								"astId": 5,
								"contract": "datatype/StructType.sol:StructType",
								"label": "age",
								"offset": 0,
								"slot": "1",
								"type": "t_uint8"
							}
						],
						"numberOfBytes": "64"
					},
					"t_uint8": {
						"encoding": "inplace",
						"label": "uint8",
						"numberOfBytes": "1"
					}
				}
			},
			"userdoc": {
				"kind": "user",
				"methods": {},
				"version": 1
			}
		}
	}
}