{
	"demo/ComplexValueType.sol": {
		"ComplexValueType": {
			"abi": [
				{
					"inputs": [],
					"name": "testAddress",
					"outputs": [
						{
							"internalType": "address",
							"name": "",
							"type": "address"
						}
					],
					"stateMutability": "view",
					"type": "function"
				},
				{
					"inputs": [],
					"name": "testContract",
					"outputs": [
						{
							"internalType": "contract ComplexValueType",
							"name": "",
							"type": "address"
						}
					],
					"stateMutability": "view",
					"type": "function"
				},
				{
					"inputs": [],
					"name": "testFixedByteArray",
					"outputs": [
						{
							"internalType": "bytes3",
							"name": "",
							"type": "bytes3"
						}
					],
					"stateMutability": "pure",
					"type": "function"
				},
				{
					"inputs": [],
					"name": "testFixedByteArray1",
					"outputs": [
						{
							"internalType": "bytes1",
							"name": "",
							"type": "bytes1"
						}
					],
					"stateMutability": "pure",
					"type": "function"
				},
				{
					"inputs": [],
					"name": "testFixedByteArray2",
					"outputs": [
						{
							"internalType": "bytes1",
							"name": "",
							"type": "bytes1"
						}
					],
					"stateMutability": "pure",
					"type": "function"
				},
				{
					"inputs": [],
					"name": "testMyAddress",
					"outputs": [
						{
							"internalType": "address",
							"name": "",
							"type": "address"
						}
					],
					"stateMutability": "view",
					"type": "function"
				}
			],
			"devdoc": {
				"kind": "dev",
				"methods": {},
				"version": 1
			},
			"evm": {
				"assembly": "    /* \"demo/ComplexValueType.sol\":70:1498  contract  ComplexValueType {... */\n  mstore(0x40, 0x80)\n  callvalue\n  dup1\n  iszero\n  tag_1\n  jumpi\n  0x00\n  dup1\n  revert\ntag_1:\n  pop\n  dataSize(sub_0)\n  dup1\n  dataOffset(sub_0)\n  0x00\n  codecopy\n  0x00\n  return\nstop\n\nsub_0: assembly {\n        /* \"demo/ComplexValueType.sol\":70:1498  contract  ComplexValueType {... */\n      mstore(0x40, 0x80)\n      callvalue\n      dup1\n      iszero\n      tag_1\n      jumpi\n      0x00\n      dup1\n      revert\n    tag_1:\n      pop\n      jumpi(tag_2, lt(calldatasize, 0x04))\n      shr(0xe0, calldataload(0x00))\n      dup1\n      0x038bfb9e\n      eq\n      tag_3\n      jumpi\n      dup1\n      0x262330b4\n      eq\n      tag_4\n      jumpi\n      dup1\n      0x45ee763b\n      eq\n      tag_5\n      jumpi\n      dup1\n      0x9363efff\n      eq\n      tag_6\n      jumpi\n      dup1\n      0x9ff76d70\n      eq\n      tag_7\n      jumpi\n      dup1\n      0xc36631b4\n      eq\n      tag_8\n      jumpi\n    tag_2:\n      0x00\n      dup1\n      revert\n        /* \"demo/ComplexValueType.sol\":1336:1496  function testFixedByteArray2()public pure returns (bytes1){... */\n    tag_3:\n      tag_9\n      tag_10\n      jump\t// in\n    tag_9:\n      mload(0x40)\n      tag_11\n      swap2\n      swap1\n      tag_12\n      jump\t// in\n    tag_11:\n      mload(0x40)\n      dup1\n      swap2\n      sub\n      swap1\n      return\n        /* \"demo/ComplexValueType.sol\":103:407  function testAddress()public view returns(address){... */\n    tag_4:\n      tag_13\n      tag_14\n      jump\t// in\n    tag_13:\n      mload(0x40)\n      tag_15\n      swap2\n      swap1\n      tag_16\n      jump\t// in\n    tag_15:\n      mload(0x40)\n      dup1\n      swap2\n      sub\n      swap1\n      return\n        /* \"demo/ComplexValueType.sol\":1006:1164  function testFixedByteArray()public pure returns (bytes3){... */\n    tag_5:\n      tag_17\n      tag_18\n      jump\t// in\n    tag_17:\n      mload(0x40)\n      tag_19\n      swap2\n      swap1\n      tag_20\n      jump\t// in\n    tag_19:\n      mload(0x40)\n      dup1\n      swap2\n      sub\n      swap1\n      return\n        /* \"demo/ComplexValueType.sol\":1170:1330  function testFixedByteArray1()public pure returns (bytes1){... */\n    tag_6:\n      tag_21\n      tag_22\n      jump\t// in\n    tag_21:\n      mload(0x40)\n      tag_23\n      swap2\n      swap1\n      tag_12\n      jump\t// in\n    tag_23:\n      mload(0x40)\n      dup1\n      swap2\n      sub\n      swap1\n      return\n        /* \"demo/ComplexValueType.sol\":413:737  function testMyAddress()public view returns(address){... */\n    tag_7:\n      tag_24\n      tag_25\n      jump\t// in\n    tag_24:\n      mload(0x40)\n      tag_26\n      swap2\n      swap1\n      tag_16\n      jump\t// in\n    tag_26:\n      mload(0x40)\n      dup1\n      swap2\n      sub\n      swap1\n      return\n        /* \"demo/ComplexValueType.sol\":764:974  function testContract() public view returns (ComplexValueType){... */\n    tag_8:\n      tag_27\n      tag_28\n      jump\t// in\n    tag_27:\n      mload(0x40)\n      tag_29\n      swap2\n      swap1\n      tag_30\n      jump\t// in\n    tag_29:\n      mload(0x40)\n      dup1\n      swap2\n      sub\n      swap1\n      return\n        /* \"demo/ComplexValueType.sol\":1336:1496  function testFixedByteArray2()public pure returns (bytes1){... */\n    tag_10:\n        /* \"demo/ComplexValueType.sol\":1387:1393  bytes1 */\n      0x00\n        /* \"demo/ComplexValueType.sol\":1404:1415  bytes3 data */\n      dup1\n        /* \"demo/ComplexValueType.sol\":1418:1426  0x111111 */\n      0x111111\n        /* \"demo/ComplexValueType.sol\":1404:1426  bytes3 data = 0x111111 */\n      0xe8\n      shl\n      swap1\n      pop\n        /* \"demo/ComplexValueType.sol\":1436:1444  bytes1 f */\n      0x00\n        /* \"demo/ComplexValueType.sol\":1447:1451  data */\n      dup2\n        /* \"demo/ComplexValueType.sol\":1452:1453  1 */\n      0x01\n        /* \"demo/ComplexValueType.sol\":1447:1454  data[1] */\n      0x03\n      dup2\n      lt\n      tag_32\n      jumpi\n      tag_33\n      tag_34\n      jump\t// in\n    tag_33:\n    tag_32:\n      byte\n      0xf8\n      shl\n        /* \"demo/ComplexValueType.sol\":1436:1454  bytes1 f = data[1] */\n      swap1\n      pop\n        /* \"demo/ComplexValueType.sol\":1488:1489  f */\n      dup1\n        /* \"demo/ComplexValueType.sol\":1481:1489  return f */\n      swap3\n      pop\n      pop\n      pop\n        /* \"demo/ComplexValueType.sol\":1336:1496  function testFixedByteArray2()public pure returns (bytes1){... */\n      swap1\n      jump\t// out\n        /* \"demo/ComplexValueType.sol\":103:407  function testAddress()public view returns(address){... */\n    tag_14:\n        /* \"demo/ComplexValueType.sol\":145:152  address */\n      0x00\n        /* \"demo/ComplexValueType.sol\":222:234  address addr */\n      dup1\n        /* \"demo/ComplexValueType.sol\":237:247  msg.sender */\n      caller\n        /* \"demo/ComplexValueType.sol\":222:247  address addr = msg.sender */\n      swap1\n      pop\n        /* \"demo/ComplexValueType.sol\":396:400  addr */\n      dup1\n        /* \"demo/ComplexValueType.sol\":389:400  return addr */\n      swap2\n      pop\n      pop\n        /* \"demo/ComplexValueType.sol\":103:407  function testAddress()public view returns(address){... */\n      swap1\n      jump\t// out\n        /* \"demo/ComplexValueType.sol\":1006:1164  function testFixedByteArray()public pure returns (bytes3){... */\n    tag_18:\n        /* \"demo/ComplexValueType.sol\":1056:1062  bytes3 */\n      0x00\n        /* \"demo/ComplexValueType.sol\":1073:1084  bytes3 data */\n      dup1\n        /* \"demo/ComplexValueType.sol\":1153:1157  data */\n      dup1\n        /* \"demo/ComplexValueType.sol\":1146:1157  return data */\n      swap2\n      pop\n      pop\n        /* \"demo/ComplexValueType.sol\":1006:1164  function testFixedByteArray()public pure returns (bytes3){... */\n      swap1\n      jump\t// out\n        /* \"demo/ComplexValueType.sol\":1170:1330  function testFixedByteArray1()public pure returns (bytes1){... */\n    tag_22:\n        /* \"demo/ComplexValueType.sol\":1221:1227  bytes1 */\n      0x00\n        /* \"demo/ComplexValueType.sol\":1238:1249  bytes3 data */\n      dup1\n        /* \"demo/ComplexValueType.sol\":1252:1260  0x111111 */\n      0x111111\n        /* \"demo/ComplexValueType.sol\":1238:1260  bytes3 data = 0x111111 */\n      0xe8\n      shl\n      swap1\n      pop\n        /* \"demo/ComplexValueType.sol\":1270:1278  bytes1 f */\n      0x00\n        /* \"demo/ComplexValueType.sol\":1281:1285  data */\n      dup2\n        /* \"demo/ComplexValueType.sol\":1286:1287  0 */\n      0x00\n        /* \"demo/ComplexValueType.sol\":1281:1288  data[0] */\n      0x03\n      dup2\n      lt\n      tag_38\n      jumpi\n      tag_39\n      tag_34\n      jump\t// in\n    tag_39:\n    tag_38:\n      byte\n      0xf8\n      shl\n        /* \"demo/ComplexValueType.sol\":1270:1288  bytes1 f = data[0] */\n      swap1\n      pop\n        /* \"demo/ComplexValueType.sol\":1322:1323  f */\n      dup1\n        /* \"demo/ComplexValueType.sol\":1315:1323  return f */\n      swap3\n      pop\n      pop\n      pop\n        /* \"demo/ComplexValueType.sol\":1170:1330  function testFixedByteArray1()public pure returns (bytes1){... */\n      swap1\n      jump\t// out\n        /* \"demo/ComplexValueType.sol\":413:737  function testMyAddress()public view returns(address){... */\n    tag_25:\n        /* \"demo/ComplexValueType.sol\":457:464  address */\n      0x00\n        /* \"demo/ComplexValueType.sol\":534:546  address addr */\n      dup1\n        /* \"demo/ComplexValueType.sol\":557:561  this */\n      address\n        /* \"demo/ComplexValueType.sol\":534:562  address addr = address(this) */\n      swap1\n      pop\n        /* \"demo/ComplexValueType.sol\":726:730  addr */\n      dup1\n        /* \"demo/ComplexValueType.sol\":719:730  return addr */\n      swap2\n      pop\n      pop\n        /* \"demo/ComplexValueType.sol\":413:737  function testMyAddress()public view returns(address){... */\n      swap1\n      jump\t// out\n        /* \"demo/ComplexValueType.sol\":764:974  function testContract() public view returns (ComplexValueType){... */\n    tag_28:\n        /* \"demo/ComplexValueType.sol\":809:825  ComplexValueType */\n      0x00\n        /* \"demo/ComplexValueType.sol\":836:863  ComplexValueType mycontract */\n      dup1\n        /* \"demo/ComplexValueType.sol\":866:870  this */\n      address\n        /* \"demo/ComplexValueType.sol\":836:870  ComplexValueType mycontract = this */\n      swap1\n      pop\n        /* \"demo/ComplexValueType.sol\":957:967  mycontract */\n      dup1\n        /* \"demo/ComplexValueType.sol\":950:967  return mycontract */\n      swap2\n      pop\n      pop\n        /* \"demo/ComplexValueType.sol\":764:974  function testContract() public view returns (ComplexValueType){... */\n      swap1\n      jump\t// out\n        /* \"#utility.yul\":7:156   */\n    tag_42:\n        /* \"#utility.yul\":43:50   */\n      0x00\n        /* \"#utility.yul\":83:149   */\n      0xff00000000000000000000000000000000000000000000000000000000000000\n        /* \"#utility.yul\":76:81   */\n      dup3\n        /* \"#utility.yul\":72:150   */\n      and\n        /* \"#utility.yul\":61:150   */\n      swap1\n      pop\n        /* \"#utility.yul\":7:156   */\n      swap2\n      swap1\n      pop\n      jump\t// out\n        /* \"#utility.yul\":162:277   */\n    tag_43:\n        /* \"#utility.yul\":247:270   */\n      tag_57\n        /* \"#utility.yul\":264:269   */\n      dup2\n        /* \"#utility.yul\":247:270   */\n      tag_42\n      jump\t// in\n    tag_57:\n        /* \"#utility.yul\":242:245   */\n      dup3\n        /* \"#utility.yul\":235:271   */\n      mstore\n        /* \"#utility.yul\":162:277   */\n      pop\n      pop\n      jump\t// out\n        /* \"#utility.yul\":283:501   */\n    tag_12:\n        /* \"#utility.yul\":374:378   */\n      0x00\n        /* \"#utility.yul\":412:414   */\n      0x20\n        /* \"#utility.yul\":401:410   */\n      dup3\n        /* \"#utility.yul\":397:415   */\n      add\n        /* \"#utility.yul\":389:415   */\n      swap1\n      pop\n        /* \"#utility.yul\":425:494   */\n      tag_59\n        /* \"#utility.yul\":491:492   */\n      0x00\n        /* \"#utility.yul\":480:489   */\n      dup4\n        /* \"#utility.yul\":476:493   */\n      add\n        /* \"#utility.yul\":467:473   */\n      dup5\n        /* \"#utility.yul\":425:494   */\n      tag_43\n      jump\t// in\n    tag_59:\n        /* \"#utility.yul\":283:501   */\n      swap3\n      swap2\n      pop\n      pop\n      jump\t// out\n        /* \"#utility.yul\":507:633   */\n    tag_44:\n        /* \"#utility.yul\":544:551   */\n      0x00\n        /* \"#utility.yul\":584:626   */\n      0xffffffffffffffffffffffffffffffffffffffff\n        /* \"#utility.yul\":577:582   */\n      dup3\n        /* \"#utility.yul\":573:627   */\n      and\n        /* \"#utility.yul\":562:627   */\n      swap1\n      pop\n        /* \"#utility.yul\":507:633   */\n      swap2\n      swap1\n      pop\n      jump\t// out\n        /* \"#utility.yul\":639:735   */\n    tag_45:\n        /* \"#utility.yul\":676:683   */\n      0x00\n        /* \"#utility.yul\":705:729   */\n      tag_62\n        /* \"#utility.yul\":723:728   */\n      dup3\n        /* \"#utility.yul\":705:729   */\n      tag_44\n      jump\t// in\n    tag_62:\n        /* \"#utility.yul\":694:729   */\n      swap1\n      pop\n        /* \"#utility.yul\":639:735   */\n      swap2\n      swap1\n      pop\n      jump\t// out\n        /* \"#utility.yul\":741:859   */\n    tag_46:\n        /* \"#utility.yul\":828:852   */\n      tag_64\n        /* \"#utility.yul\":846:851   */\n      dup2\n        /* \"#utility.yul\":828:852   */\n      tag_45\n      jump\t// in\n    tag_64:\n        /* \"#utility.yul\":823:826   */\n      dup3\n        /* \"#utility.yul\":816:853   */\n      mstore\n        /* \"#utility.yul\":741:859   */\n      pop\n      pop\n      jump\t// out\n        /* \"#utility.yul\":865:1087   */\n    tag_16:\n        /* \"#utility.yul\":958:962   */\n      0x00\n        /* \"#utility.yul\":996:998   */\n      0x20\n        /* \"#utility.yul\":985:994   */\n      dup3\n        /* \"#utility.yul\":981:999   */\n      add\n        /* \"#utility.yul\":973:999   */\n      swap1\n      pop\n        /* \"#utility.yul\":1009:1080   */\n      tag_66\n        /* \"#utility.yul\":1077:1078   */\n      0x00\n        /* \"#utility.yul\":1066:1075   */\n      dup4\n        /* \"#utility.yul\":1062:1079   */\n      add\n        /* \"#utility.yul\":1053:1059   */\n      dup5\n        /* \"#utility.yul\":1009:1080   */\n      tag_46\n      jump\t// in\n    tag_66:\n        /* \"#utility.yul\":865:1087   */\n      swap3\n      swap2\n      pop\n      pop\n      jump\t// out\n        /* \"#utility.yul\":1093:1242   */\n    tag_47:\n        /* \"#utility.yul\":1129:1136   */\n      0x00\n        /* \"#utility.yul\":1169:1235   */\n      0xffffff0000000000000000000000000000000000000000000000000000000000\n        /* \"#utility.yul\":1162:1167   */\n      dup3\n        /* \"#utility.yul\":1158:1236   */\n      and\n        /* \"#utility.yul\":1147:1236   */\n      swap1\n      pop\n        /* \"#utility.yul\":1093:1242   */\n      swap2\n      swap1\n      pop\n      jump\t// out\n        /* \"#utility.yul\":1248:1363   */\n    tag_48:\n        /* \"#utility.yul\":1333:1356   */\n      tag_69\n        /* \"#utility.yul\":1350:1355   */\n      dup2\n        /* \"#utility.yul\":1333:1356   */\n      tag_47\n      jump\t// in\n    tag_69:\n        /* \"#utility.yul\":1328:1331   */\n      dup3\n        /* \"#utility.yul\":1321:1357   */\n      mstore\n        /* \"#utility.yul\":1248:1363   */\n      pop\n      pop\n      jump\t// out\n        /* \"#utility.yul\":1369:1587   */\n    tag_20:\n        /* \"#utility.yul\":1460:1464   */\n      0x00\n        /* \"#utility.yul\":1498:1500   */\n      0x20\n        /* \"#utility.yul\":1487:1496   */\n      dup3\n        /* \"#utility.yul\":1483:1501   */\n      add\n        /* \"#utility.yul\":1475:1501   */\n      swap1\n      pop\n        /* \"#utility.yul\":1511:1580   */\n      tag_71\n        /* \"#utility.yul\":1577:1578   */\n      0x00\n        /* \"#utility.yul\":1566:1575   */\n      dup4\n        /* \"#utility.yul\":1562:1579   */\n      add\n        /* \"#utility.yul\":1553:1559   */\n      dup5\n        /* \"#utility.yul\":1511:1580   */\n      tag_48\n      jump\t// in\n    tag_71:\n        /* \"#utility.yul\":1369:1587   */\n      swap3\n      swap2\n      pop\n      pop\n      jump\t// out\n        /* \"#utility.yul\":1593:1653   */\n    tag_49:\n        /* \"#utility.yul\":1621:1624   */\n      0x00\n        /* \"#utility.yul\":1642:1647   */\n      dup2\n        /* \"#utility.yul\":1635:1647   */\n      swap1\n      pop\n        /* \"#utility.yul\":1593:1653   */\n      swap2\n      swap1\n      pop\n      jump\t// out\n        /* \"#utility.yul\":1659:1801   */\n    tag_50:\n        /* \"#utility.yul\":1709:1718   */\n      0x00\n        /* \"#utility.yul\":1742:1795   */\n      tag_74\n        /* \"#utility.yul\":1760:1794   */\n      tag_75\n        /* \"#utility.yul\":1769:1793   */\n      tag_76\n        /* \"#utility.yul\":1787:1792   */\n      dup5\n        /* \"#utility.yul\":1769:1793   */\n      tag_44\n      jump\t// in\n    tag_76:\n        /* \"#utility.yul\":1760:1794   */\n      tag_49\n      jump\t// in\n    tag_75:\n        /* \"#utility.yul\":1742:1795   */\n      tag_44\n      jump\t// in\n    tag_74:\n        /* \"#utility.yul\":1729:1795   */\n      swap1\n      pop\n        /* \"#utility.yul\":1659:1801   */\n      swap2\n      swap1\n      pop\n      jump\t// out\n        /* \"#utility.yul\":1807:1933   */\n    tag_51:\n        /* \"#utility.yul\":1857:1866   */\n      0x00\n        /* \"#utility.yul\":1890:1927   */\n      tag_78\n        /* \"#utility.yul\":1921:1926   */\n      dup3\n        /* \"#utility.yul\":1890:1927   */\n      tag_50\n      jump\t// in\n    tag_78:\n        /* \"#utility.yul\":1877:1927   */\n      swap1\n      pop\n        /* \"#utility.yul\":1807:1933   */\n      swap2\n      swap1\n      pop\n      jump\t// out\n        /* \"#utility.yul\":1939:2088   */\n    tag_52:\n        /* \"#utility.yul\":2012:2021   */\n      0x00\n        /* \"#utility.yul\":2045:2082   */\n      tag_80\n        /* \"#utility.yul\":2076:2081   */\n      dup3\n        /* \"#utility.yul\":2045:2082   */\n      tag_51\n      jump\t// in\n    tag_80:\n        /* \"#utility.yul\":2032:2082   */\n      swap1\n      pop\n        /* \"#utility.yul\":1939:2088   */\n      swap2\n      swap1\n      pop\n      jump\t// out\n        /* \"#utility.yul\":2094:2271   */\n    tag_53:\n        /* \"#utility.yul\":2204:2264   */\n      tag_82\n        /* \"#utility.yul\":2258:2263   */\n      dup2\n        /* \"#utility.yul\":2204:2264   */\n      tag_52\n      jump\t// in\n    tag_82:\n        /* \"#utility.yul\":2199:2202   */\n      dup3\n        /* \"#utility.yul\":2192:2265   */\n      mstore\n        /* \"#utility.yul\":2094:2271   */\n      pop\n      pop\n      jump\t// out\n        /* \"#utility.yul\":2277:2545   */\n    tag_30:\n        /* \"#utility.yul\":2393:2397   */\n      0x00\n        /* \"#utility.yul\":2431:2433   */\n      0x20\n        /* \"#utility.yul\":2420:2429   */\n      dup3\n        /* \"#utility.yul\":2416:2434   */\n      add\n        /* \"#utility.yul\":2408:2434   */\n      swap1\n      pop\n        /* \"#utility.yul\":2444:2538   */\n      tag_84\n        /* \"#utility.yul\":2535:2536   */\n      0x00\n        /* \"#utility.yul\":2524:2533   */\n      dup4\n        /* \"#utility.yul\":2520:2537   */\n      add\n        /* \"#utility.yul\":2511:2517   */\n      dup5\n        /* \"#utility.yul\":2444:2538   */\n      tag_53\n      jump\t// in\n    tag_84:\n        /* \"#utility.yul\":2277:2545   */\n      swap3\n      swap2\n      pop\n      pop\n      jump\t// out\n        /* \"#utility.yul\":2551:2731   */\n    tag_34:\n        /* \"#utility.yul\":2599:2676   */\n      0x4e487b7100000000000000000000000000000000000000000000000000000000\n        /* \"#utility.yul\":2596:2597   */\n      0x00\n        /* \"#utility.yul\":2589:2677   */\n      mstore\n        /* \"#utility.yul\":2696:2700   */\n      0x32\n        /* \"#utility.yul\":2693:2694   */\n      0x04\n        /* \"#utility.yul\":2686:2701   */\n      mstore\n        /* \"#utility.yul\":2720:2724   */\n      0x24\n        /* \"#utility.yul\":2717:2718   */\n      0x00\n        /* \"#utility.yul\":2710:2725   */\n      revert\n\n    auxdata: 0xa2646970667358221220943e1950b8498375f023275eaca9adf0834bf0a4f5df584f2d02e71a5ddf329e64736f6c634300081a0033\n}\n",
				"bytecode": {
					"linkReferences": {},
					"object": "6080604052348015600e575f80fd5b506103758061001c5f395ff3fe608060405234801561000f575f80fd5b5060043610610060575f3560e01c8063038bfb9e14610064578063262330b41461008257806345ee763b146100a05780639363efff146100be5780639ff76d70146100dc578063c36631b4146100fa575b5f80fd5b61006c610118565b60405161007991906101da565b60405180910390f35b61008a610146565b6040516100979190610232565b60405180910390f35b6100a8610152565b6040516100b59190610285565b60405180910390f35b6100c661015b565b6040516100d391906101da565b60405180910390f35b6100e4610188565b6040516100f19190610232565b60405180910390f35b610102610194565b60405161010f91906102f9565b60405180910390f35b5f806211111160e81b90505f8160016003811061013857610137610312565b5b1a60f81b9050809250505090565b5f803390508091505090565b5f808091505090565b5f806211111160e81b90505f815f6003811061017a57610179610312565b5b1a60f81b9050809250505090565b5f803090508091505090565b5f803090508091505090565b5f7fff0000000000000000000000000000000000000000000000000000000000000082169050919050565b6101d4816101a0565b82525050565b5f6020820190506101ed5f8301846101cb565b92915050565b5f73ffffffffffffffffffffffffffffffffffffffff82169050919050565b5f61021c826101f3565b9050919050565b61022c81610212565b82525050565b5f6020820190506102455f830184610223565b92915050565b5f7fffffff000000000000000000000000000000000000000000000000000000000082169050919050565b61027f8161024b565b82525050565b5f6020820190506102985f830184610276565b92915050565b5f819050919050565b5f6102c16102bc6102b7846101f3565b61029e565b6101f3565b9050919050565b5f6102d2826102a7565b9050919050565b5f6102e3826102c8565b9050919050565b6102f3816102d9565b82525050565b5f60208201905061030c5f8301846102ea565b92915050565b7f4e487b71000000000000000000000000000000000000000000000000000000005f52603260045260245ffdfea2646970667358221220943e1950b8498375f023275eaca9adf0834bf0a4f5df584f2d02e71a5ddf329e64736f6c634300081a0033",
					"opcodes": "PUSH1 0x80 PUSH1 0x40 MSTORE CALLVALUE DUP1 ISZERO PUSH1 0xE JUMPI PUSH0 DUP1 REVERT JUMPDEST POP PUSH2 0x375 DUP1 PUSH2 0x1C PUSH0 CODECOPY PUSH0 RETURN INVALID PUSH1 0x80 PUSH1 0x40 MSTORE CALLVALUE DUP1 ISZERO PUSH2 0xF JUMPI PUSH0 DUP1 REVERT JUMPDEST POP PUSH1 0x4 CALLDATASIZE LT PUSH2 0x60 JUMPI PUSH0 CALLDATALOAD PUSH1 0xE0 SHR DUP1 PUSH4 0x38BFB9E EQ PUSH2 0x64 JUMPI DUP1 PUSH4 0x262330B4 EQ PUSH2 0x82 JUMPI DUP1 PUSH4 0x45EE763B EQ PUSH2 0xA0 JUMPI DUP1 PUSH4 0x9363EFFF EQ PUSH2 0xBE JUMPI DUP1 PUSH4 0x9FF76D70 EQ PUSH2 0xDC JUMPI DUP1 PUSH4 0xC36631B4 EQ PUSH2 0xFA JUMPI JUMPDEST PUSH0 DUP1 REVERT JUMPDEST PUSH2 0x6C PUSH2 0x118 JUMP JUMPDEST PUSH1 0x40 MLOAD PUSH2 0x79 SWAP2 SWAP1 PUSH2 0x1DA JUMP JUMPDEST PUSH1 0x40 MLOAD DUP1 SWAP2 SUB SWAP1 RETURN JUMPDEST PUSH2 0x8A PUSH2 0x146 JUMP JUMPDEST PUSH1 0x40 MLOAD PUSH2 0x97 SWAP2 SWAP1 PUSH2 0x232 JUMP JUMPDEST PUSH1 0x40 MLOAD DUP1 SWAP2 SUB SWAP1 RETURN JUMPDEST PUSH2 0xA8 PUSH2 0x152 JUMP JUMPDEST PUSH1 0x40 MLOAD PUSH2 0xB5 SWAP2 SWAP1 PUSH2 0x285 JUMP JUMPDEST PUSH1 0x40 MLOAD DUP1 SWAP2 SUB SWAP1 RETURN JUMPDEST PUSH2 0xC6 PUSH2 0x15B JUMP JUMPDEST PUSH1 0x40 MLOAD PUSH2 0xD3 SWAP2 SWAP1 PUSH2 0x1DA JUMP JUMPDEST PUSH1 0x40 MLOAD DUP1 SWAP2 SUB SWAP1 RETURN JUMPDEST PUSH2 0xE4 PUSH2 0x188 JUMP JUMPDEST PUSH1 0x40 MLOAD PUSH2 0xF1 SWAP2 SWAP1 PUSH2 0x232 JUMP JUMPDEST PUSH1 0x40 MLOAD DUP1 SWAP2 SUB SWAP1 RETURN JUMPDEST PUSH2 0x102 PUSH2 0x194 JUMP JUMPDEST PUSH1 0x40 MLOAD PUSH2 0x10F SWAP2 SWAP1 PUSH2 0x2F9 JUMP JUMPDEST PUSH1 0x40 MLOAD DUP1 SWAP2 SUB SWAP1 RETURN JUMPDEST PUSH0 DUP1 PUSH3 0x111111 PUSH1 0xE8 SHL SWAP1 POP PUSH0 DUP2 PUSH1 0x1 PUSH1 0x3 DUP2 LT PUSH2 0x138 JUMPI PUSH2 0x137 PUSH2 0x312 JUMP JUMPDEST JUMPDEST BYTE PUSH1 0xF8 SHL SWAP1 POP DUP1 SWAP3 POP POP POP SWAP1 JUMP JUMPDEST PUSH0 DUP1 CALLER SWAP1 POP DUP1 SWAP2 POP POP SWAP1 JUMP JUMPDEST PUSH0 DUP1 DUP1 SWAP2 POP POP SWAP1 JUMP JUMPDEST PUSH0 DUP1 PUSH3 0x111111 PUSH1 0xE8 SHL SWAP1 POP PUSH0 DUP2 PUSH0 PUSH1 0x3 DUP2 LT PUSH2 0x17A JUMPI PUSH2 0x179 PUSH2 0x312 JUMP JUMPDEST JUMPDEST BYTE PUSH1 0xF8 SHL SWAP1 POP DUP1 SWAP3 POP POP POP SWAP1 JUMP JUMPDEST PUSH0 DUP1 ADDRESS SWAP1 POP DUP1 SWAP2 POP POP SWAP1 JUMP JUMPDEST PUSH0 DUP1 ADDRESS SWAP1 POP DUP1 SWAP2 POP POP SWAP1 JUMP JUMPDEST PUSH0 PUSH32 0xFF00000000000000000000000000000000000000000000000000000000000000 DUP3 AND SWAP1 POP SWAP2 SWAP1 POP JUMP JUMPDEST PUSH2 0x1D4 DUP2 PUSH2 0x1A0 JUMP JUMPDEST DUP3 MSTORE POP POP JUMP JUMPDEST PUSH0 PUSH1 0x20 DUP3 ADD SWAP1 POP PUSH2 0x1ED PUSH0 DUP4 ADD DUP5 PUSH2 0x1CB JUMP JUMPDEST SWAP3 SWAP2 POP POP JUMP JUMPDEST PUSH0 PUSH20 0xFFFFFFFFFFFFFFFFFFFFFFFFFFFFFFFFFFFFFFFF DUP3 AND SWAP1 POP SWAP2 SWAP1 POP JUMP JUMPDEST PUSH0 PUSH2 0x21C DUP3 PUSH2 0x1F3 JUMP JUMPDEST SWAP1 POP SWAP2 SWAP1 POP JUMP JUMPDEST PUSH2 0x22C DUP2 PUSH2 0x212 JUMP JUMPDEST DUP3 MSTORE POP POP JUMP JUMPDEST PUSH0 PUSH1 0x20 DUP3 ADD SWAP1 POP PUSH2 0x245 PUSH0 DUP4 ADD DUP5 PUSH2 0x223 JUMP JUMPDEST SWAP3 SWAP2 POP POP JUMP JUMPDEST PUSH0 PUSH32 0xFFFFFF0000000000000000000000000000000000000000000000000000000000 DUP3 AND SWAP1 POP SWAP2 SWAP1 POP JUMP JUMPDEST PUSH2 0x27F DUP2 PUSH2 0x24B JUMP JUMPDEST DUP3 MSTORE POP POP JUMP JUMPDEST PUSH0 PUSH1 0x20 DUP3 ADD SWAP1 POP PUSH2 0x298 PUSH0 DUP4 ADD DUP5 PUSH2 0x276 JUMP JUMPDEST SWAP3 SWAP2 POP POP JUMP JUMPDEST PUSH0 DUP2 SWAP1 POP SWAP2 SWAP1 POP JUMP JUMPDEST PUSH0 PUSH2 0x2C1 PUSH2 0x2BC PUSH2 0x2B7 DUP5 PUSH2 0x1F3 JUMP JUMPDEST PUSH2 0x29E JUMP JUMPDEST PUSH2 0x1F3 JUMP JUMPDEST SWAP1 POP SWAP2 SWAP1 POP JUMP JUMPDEST PUSH0 PUSH2 0x2D2 DUP3 PUSH2 0x2A7 JUMP JUMPDEST SWAP1 POP SWAP2 SWAP1 POP JUMP JUMPDEST PUSH0 PUSH2 0x2E3 DUP3 PUSH2 0x2C8 JUMP JUMPDEST SWAP1 POP SWAP2 SWAP1 POP JUMP JUMPDEST PUSH2 0x2F3 DUP2 PUSH2 0x2D9 JUMP JUMPDEST DUP3 MSTORE POP POP JUMP JUMPDEST PUSH0 PUSH1 0x20 DUP3 ADD SWAP1 POP PUSH2 0x30C PUSH0 DUP4 ADD DUP5 PUSH2 0x2EA JUMP JUMPDEST SWAP3 SWAP2 POP POP JUMP JUMPDEST PUSH32 0x4E487B7100000000000000000000000000000000000000000000000000000000 PUSH0 MSTORE PUSH1 0x32 PUSH1 0x4 MSTORE PUSH1 0x24 PUSH0 REVERT INVALID LOG2 PUSH5 0x6970667358 0x22 SLT KECCAK256 SWAP5 RETURNDATACOPY NOT POP 0xB8 BLOBHASH DUP4 PUSH22 0xF023275EACA9ADF0834BF0A4F5DF584F2D02E71A5DDF ORIGIN SWAP15 PUSH5 0x736F6C6343 STOP ADDMOD BYTE STOP CALLER "
				},
				"gasEstimates": {
					"creation": {
						"codeDepositCost": "177000",
						"executionCost": "218",
						"totalCost": "177218"
					},
					"external": {
						"testAddress()": "392",
						"testContract()": "infinite",
						"testFixedByteArray()": "365",
						"testFixedByteArray1()": "447",
						"testFixedByteArray2()": "382",
						"testMyAddress()": "458"
					}
				},
				"methodIdentifiers": {
					"testAddress()": "262330b4",
					"testContract()": "c36631b4",
					"testFixedByteArray()": "45ee763b",
					"testFixedByteArray1()": "9363efff",
					"testFixedByteArray2()": "038bfb9e",
					"testMyAddress()": "9ff76d70"
				}
			},
			"storageLayout": {
				"storage": [],
				"types": null
			},
			"userdoc": {
				"kind": "user",
				"methods": {},
				"version": 1
			}
		}
	}
}